:020000040800F2
:1000000078420020B10100081D030008E902000841
:10001000EB0200086D0200088106000800000000E5
:1000200000000000000000000000000019010008AE
:100030006F020008000000005D01000825040008B0
:10004000CB010008CB010008CB010008CB01000860
:10005000CB010008CB010008CB010008CB01000850
:10006000CB010008CB010008CB010008CB01000840
:10007000CB010008CB010008CB010008CB01000830
:10008000CB010008CB010008CB010008CB01000820
:10009000CB010008CB010008CB010008CB01000810
:1000A000CB010008CB010008CB010008CB01000800
:1000B000CB010008CB010008CB010008CB010008F0
:1000C000CB010008CB010008CB010008CB010008E0
:1000D000CB010008CB010008CB010008390600085D
:1000E000CB010008CB010008CB0100080000000094
:1000F0000000000000000000000000000000000000
:10010000CB010008DFF80CD000F09EF80048004753
:10011000D90A000878420020224B19680868B0E824
:10012000F00F80F30988BFF36F8F4FF0000080F36A
:1001300011884EF00D0E7047000000000648006860
:10014000006880F3088862B661B6BFF34F8FBFF3D3
:100150006F8F00DF00BF00BF08ED00E0EFF3098004
:10016000BFF36F8F0F4B1A6820E9F00F106008B5CE
:100170004FF0500080F31188BFF34F8FBFF36F8FA4
:1001800001F0B0FC4FF0000080F31188BDE808409A
:1001900019680868B0E8F00F80F30988BFF36F8F23
:1001A000704700BF30000020EFF30580704700006B
:1001B0000648804706480047FEE7FEE7FEE7FEE701
:1001C000FEE7FEE7FEE7FEE7FEE7FEE75104000874
:1001D0000501000840EA01039B0703D009E008C9B4
:1001E000121F08C0042AFAD203E011F8013B00F8FC
:1001F000013B521EF9D27047D2B201E000F8012B48
:10020000491EFBD270470022F6E710B513460A4696
:1002100004461946FFF7F0FF204610BD30B50B46E7
:10022000014600202022012409E021FA02F59D4226
:1002300005D303FA02F5491B04FA02F52844151EFA
:10024000A2F10102F1DC30BD064C074D06E0E0688A
:1002500040F0010394E8070098471034AC42F6D30D
:10026000FFF754FFF821000818220008FEE7FEE718
:100270002DE9F0470F46814601F0C2FD012803D069
:10028000012601F09FFA01E0002672B600F06EFB35
:1002900040F20735284600F0FFFADFF84880404674
:1002A00000F01CFB284600F0F7FAAA460024454659
:1002B0000BE000BF59F8241005EB840000F072FB3E
:1002C000504600F0E9FA641CA4B2BC42F2D300F03C
:1002D000F1FA1EB1BDE8F04701F082BA62B6BDE89E
:1002E000F087000000FC0108FEE7FEE770B5054658
:1002F0004FF6FF7000224AF201040CE0AB5C58405C
:100300000023C6074FEA500000D060405B1C082B5A
:10031000F7DB521C92B28A42F0D370BDFEE70000B8
:100320002DE9F041DFF848800E460746202140467F
:1003300000F084FB00240F4D0BE0395D284601F0EE
:1003400079F90721284601F0AAF90028F9D0641CA0
:10035000A4B2B442F1D30621284601F0A0F9002846
:10036000F9D04046BDE8F041202100F065BB000017
:1003700000080140004800402DE9F0439046060087
:100380004FF0FF372DD007292BD30024CD1F26E0B7
:10039000315D414521D13019417803291DD1817842
:1003A00002291AD1B0F805900521FFF79FFF81457A
:1003B00013D13019B0F8030040BA50280BD3A0F580
:1003C0007F41FD3907D040F20E61884201D94FF4D8
:1003D000C860BDE8F0830020FBE7641CA4B2AC4217
:1003E000D6DD3846F5E71CB500218DF80000032066
:1003F0008DF8010001208DF802008DF804108DF8B1
:1004000003108DF8050006216846FFF76FFF8DF891
:100410000600000A8DF8070008216846FFF780FFF4
:100420001CBD000010B5502080F31188BFF34F8F22
:10043000BFF36F8F01F0F8FC18B104494FF0805002
:100440000860002080F3118810BD000004ED00E07A
:100450002E4808B5016841F0010101600168890773
:10046000FCD54168C1F381020021022A1DD100910F
:10047000009A521C0092502AFAD3426822F0F002ED
:1004800042F0800242600091009A521C0092502A71
:10049000FAD3426822F0F00242F0900242600091EA
:1004A000009A521C0092502AFAD3426822F00302AA
:1004B00042606422009102EB8201009A01E0521C2A
:1004C0000092B2EB410FFAD3026811490A40026070
:1004D0004268104B1A40426002680A40026002689B
:1004E00022F48022026042680B4B1A40426002688C
:1004F0000A4002604FF41F01816001F02DF8BDE851
:10050000084000214FF0006000F074BB0010024072
:10051000FFFFF6FE0C00FFE8FFFF00F770B540F2AA
:10052000026000F0EFFF40F2036000F0EBFF4FF4D9
:10053000C06000F0E7FF40F2117000F0E3FF40F20E
:10054000127000F0DFFF384C0423032218212046EC
:1005500000F076FA082303220421204600F070FA06
:10056000324E304601F06AF84FF4E1352946304604
:1005700001F030F80021304601F0DCF8002130466F
:1005800001F0CAF80021304601F0B8F804213046E5
:1005900001F0BCF80821304601F0C6F8304601F001
:1005A00079F8202303221021204600F049FA202167
:1005B000204600F041FA23151D4C03221821204645
:1005C00000F03EFAE31403220421204600F038FA3A
:1005D000184C204601F032F82946204600F0FAFF78
:1005E0000021204601F0A6F80021204601F094F8F1
:1005F0000021204601F082F80421204601F086F80F
:100600000821204601F090F800221146272000F032
:1006100097FA40F20531204601F04EF82046BDE839
:10062000704001F037B8000000080140004400406D
:10063000000C01400048004010B50E4C0C4920460B
:1006400001F045F828B90321204601F028F80028D8
:100650000DD0204600F0EAFF0749C2B208884028C2
:1006600005D20888054B0344401C08801A7010BD51
:100670000503050000480040060000209C00002003
:10068000FEE700000FB4054B10B503A9044A029819
:1006900000F018F810BC5DF814FB0000150A000803
:1006A0008400002002E008C8121F08C1002AFAD105
:1006B00070477047002001E001C1121F002AFBD1E2
:1006C000704700002DE9FF4F89B09B460446002586
:1006D00006E025280BD05A460B999047641C6D1CE8
:1006E00020780028F5D10DB02846BDE8F08F00270E
:1006F000B8460122474900E0074314F8013F203B78
:1007000002FA03F00842F7D120782E2819D114F804
:10071000010F47F004072A280ED06FF02F0220782F
:10072000A0F1300109290CD808EB880102EB410146
:1007300000EB0108641CF2E70A98641C50F8048B73
:100740000A9020780028CED0642808D0692806D0E6
:1007500075281ED05A460B9990476D1C58E00A998F
:100760004FF00A0901C90A91002802DA40422D21FE
:1007700002E0390504D52B218DF82010012103E07A
:10078000F90704D02021F7E78A4608AE0DE00021E2
:10079000FAE70A994FF00A0901C90A91F7E74946B1
:1007A000FFF73CFD303106F8011D0028F7D1ADEB15
:1007B000060000F12009780701D44FF00108C84570
:1007C00002DDA8EB090000E000208046002706E0DB
:1007D00008A85A46C05D0B9990476D1C7F1C574571
:1007E000F6DB04E030205A460B9990476D1CB8F1B7
:1007F0000001A8F10108F5DC05E016F8010B5A46E6
:100800000B9990476D1CB9F10001A9F10109F4DCC5
:10081000641C65E70928010000B5034600F008F8EC
:100820005B1E012802D1002BF8D1042000BD00007E
:1008300008490020CA68D20701D001207047CA6861
:10084000D20601D503207047C9684907FBD50220AD
:10085000704700000020024000B5034600F008F891
:100860005B1E012802D1002BF8D1042000BD00003E
:1008700008490020CA6CD20701D001207047CA6C19
:10088000D20601D503207047C96C4907FBD5022069
:100890007047000000200240054901EB90110A68F2
:1008A00000F01F030120984002430A6070470000D7
:1008B000002002400748016941F0800101610649BA
:1008C0000988B1F5007F03D9016D41F08001016510
:1008D0007047000000200240E0F7FF1F70B505469A
:1008E0001F48204C4FF470260088B0F5007F02D9D5
:1008F0001D48854217D23046FFF78EFF002811D1E0
:10090000206940F0020020616561206940F04000EC
:10091000206100BF00BF3046FFF77EFF216921F054
:100920000201216170BD3046FFF796FF0028F9D122
:10093000206D40F0020020656565E069800700D504
:100940006561206D40F04000206500BF00BF30466B
:10095000FFF782FF216D21F00201216570BD0000CB
:10096000E0F7FF1F00200240FFFF07080948016968
:10097000094A0B06094901D542604160084B1B88B2
:10098000B3F5007F04D9036D1B0601D542644164B1
:10099000704700000020024023016745AB89EFCD7E
:1009A000E0F7FF1FF0B505461748184C0E460088C3
:1009B0004FF47027B0F5007F02D91548854211D257
:1009C0003846FFF729FF00280BD1206940F00100CD
:1009D00020612E603846FFF71FFF216921F00101D9
:1009E0002161F0BD3846FFF737FF0028F9D1206DAF
:1009F00040F0010020652E603846FFF72DFF216D85
:100A000021F001012165F0BDE0F7FF1F0020024049
:100A1000FFFF070870B5074D0446C1B2284600F035
:100A200009FE0721284600F03AFE0028F9D02046AA
:100A300070BD000000440040416170470161704793
:100A40002DE9F04301F00F04CD0600D51443002535
:100A50004FF00F095FF0010202FA05F61E4014D0B4
:100A600007684FEA850C09FA0CF827EA080704FA28
:100A70000CF848EA0708282902D0482902D002E0E9
:100A8000466100E00661C0F800806D1CADB2082D23
:100A9000E2D3082502FA05F61E4016D047684FEA51
:100AA0008508A8F1200809FA08FC27EA0C0704FACF
:100AB00008FC4CEA070C282902D0482902D002E0A1
:100AC000466100E00661C0F804C06D1CADB2102D97
:100AD000E0D3BDE8F08300001CB54FF4407000F097
:100AE0007FF8FFF71BFD08A0FFF7CCFD00210220D7
:100AF000CDE900010B4602020DA1104801F052F9A8
:100B000000F0B0FFFEE7000053797374656D204973
:100B10006E6974204F4B21205374617274696E6743
:100B2000204672656552544F532E2E2E0D0A00003A
:100B3000536F6E61725461736B000000DD18000822
:100B400070B5264B05460E46186800F4E0614FF478
:100B5000A06081420FD006DCB1F5407F0BD0B1F52B
:100B6000806F06D107E0B1F5C06F04D0B1F5E06F3A
:100B700001D000F035F81868C0F30224C4F1070171
:100B8000042900D90421201D072801D2002400E0F7
:100B9000E41E012000FA01F35B1E3340A34000FA7B
:100BA00004F1491E11400B43002D07DA05F00F0236
:100BB00002F1E022190182F8141D04E005F1E021A0
:100BC0001A0181F8002405F01F0188406909890095
:100BD00001F1E021C1F8000170BD00000CED00E062
:100BE0000249084302490860704700000000FA0506
:100BF0000CED00E0034A1140014303480160BFF3DC
:100C00004F8F704780FFFF1F08ED00E02DE9F04790
:100C10001E4C0F460546E668D4F83490D4F8388068
:100C20002168002081F855002068001D00F08AFD31
:100C3000681C15D1A7B116492268486890602368DE
:100C40008268DA6022688368121D5A602268121D69
:100C50008260206841610868401C0860BDE8F08738
:100C600020683544B5424560216805D24046BDE85C
:100C7000F047091D00F08EBD4846091D00F08AFDB1
:100C8000A06A8542EAD2A562E8E7000030000020B1
:100C9000243E00202DE9F041054600F093FD354C3F
:100CA000A068401CA0602068334F10B1606940B359
:100CB0002DE02560A068012829D10026C6EBC600DA
:100CC00007EB800000F056FD761C052EF6D32A486F
:100CD0008C3000F04FFD2848A83000F04BFD26482E
:100CE000C43000F047FD2448E03000F043FD2248C6
:100CF000FC3000F03FFD20488C3060631C30A06366
:100D000005E02068E96AC06A884200D82560606A08
:100D1000401C6062E86A2169884200D92061C0EB0A
:100D2000C00007EB80004068A8608168E9608268C5
:100D3000291D51608160E86AC0EBC00007EB8001AB
:100D4000696157F82010491C47F8201000F048FD51
:100D5000606900280CD02068E96AC06A884207D21E
:100D600006494FF080500860BFF34F8FBFF36F8F7D
:100D7000BDE8F08130000020283D002004ED00E0B7
:100D800010B500F01FFD0E4C2068A0B90D4800F012
:100D9000F1FC0C481C3000F0EDFC0A48E0601C300F
:100DA0002061002210210A2000F0E0FE206010B136
:100DB00005A100F053FDBDE8104000F011BD00009A
:100DC00070000020403E0020546D72510000000071
:100DD00070B50C4C0C4E11E000F0F4FCF068C568E6
:100DE000281D00F0AFFCA068401EA0606068401E97
:100DF000606000F0F5FC284600F051F860680028BB
:100E0000EAD170BD30000020083E002030B4026DF1
:100E10000B46002A0BD0C1681144C1608468A1420E
:100E200001D30168C16030BC1846FFF7D3B930BCAC
:100E300070472DE9F041856C174604460026026D87
:100E400082B1C7B1E068FFF7C5F9E168206D091A02
:100E5000E1602268914202D2A168081AE060022F84
:100E600016D017E02068A8B9A06801F06DF8064612
:100E70000020A0600EE06068FFF7ACF9216D6068AB
:100E800008446060A168884204D32068606001E083
:100E900005B16D1E6D1CA5643046BDE8F08110B52E
:100EA0000446006B00F0A6FC2046BDE8104000F0B0
:100EB000A1BC00000E484FF47051420706D0C01D7F
:100EC0000B4920F00700411AC1F57051094A00236F
:100ED0000144C2E900030839143A21F00701116006
:100EE0004B600B600B1AC0E90013936053607047AE
:100EF000E800002024000020074C4FF08056074DEA
:100F0000FFF766FF20680128FAD92E60BFF34F8FE4
:100F1000BFF36F8FF4E70000283D002004ED00E0F0
:100F20002DE9F0470E46DDE9098417468246910017
:100F30009946089DA522206BFFF75EF96FF003012B
:100F4000206B01EB8701084420F0070766B1002001
:100F50002218315C82F83410315C11B1401C102829
:100F6000F6D3002084F84300052D00D30425E56264
:100F7000201D656400F00BFC04F1180000F007FC74
:100F80002461C5F105006462A0614A4651463846B5
:100F900000F03CFA2060B8F1000F01D0C8F8004022
:100FA000BDE8F08730B5114900E011460A68824279
:100FB000FBD34B685C18844203D1406818444860F6
:100FC000084643681C18944209D1084C143C246814
:100FD000A24209D052681A4442600A68126802604C
:100FE000814200D0086030BD0460F9E72400002091
:100FF00070B5002441600B4D0061914206D8D11AB2
:101000008269914206D2011D286907E09A4203D203
:10101000994201D3012403E0011DE86800F0BAFB06
:10102000204670BD7000002010B5044600F0CAFBD9
:10103000A06C28B15FF0000400F0D2FB204610BD88
:101040000124F9E7F1B500260098846DA06CE16CED
:10105000884210D294F95550002269462046FFF785
:10106000E8FE0646681C08D000F07EFB854202D2EE
:101070006D1C84F855503046F8BDE06A0028FAD05F
:1010800004F12C0000F09EFF0028F4D00126F2E7C6
:1010900070B506460D480D46C068C068C468201D7E
:1010A00000F050FB94F82400410705D52A4631464C
:1010B000204600F0B9F803E000F0FE0084F82400B8
:1010C0002046216ABDE870400847000070000020FB
:1010D00070B586B00020009001900290364E0390CB
:1010E00061E00098002806DADDE90201019A9047E4
:1010F0000098002857DB029C606910B1201D00F0A9
:1011000021FB04A800F0B2F8054600980A284AD24C
:10111000DFE800F0490505282E3D0505282E94F846
:1011200024002A4640F0010084F824000198A169B7
:10113000034601442046FFF75BFF38B394F82400D0
:10114000410707D50198A1692A460144204600F0CD
:101150006BF803E000F0FE0084F82400216A2046CA
:10116000884720E014F8240F00F0FE0020701AE0F9
:1011700094F824002B4640F0010084F824000198E4
:10118000A06141191A462046FFF732FF0BE094F8A0
:101190002400810703D4204600F02CFB03E000F07C
:1011A000FE0084F8240000226946306800F04EFDFD
:1011B000002896D106B070BD70000020F8B50D462D
:1011C000064600F087FC684600F050F80446009898
:1011D00010B100F05BFFF8BD1148ADB101690968BD
:1011E000D9B10025311B2A46006800F055FB00F0FC
:1011F0004DFF0028EFD10B494FF080500860BFF33E
:101200004F8FBFF36F8FF8BDA642EBD800F03EFFC3
:1012100021463046FFF73CFFF8BD0125E2E700001C
:101220007000002004ED00E070B516460C4605463F
:1012300004E0A869296A044428468847A869234627
:10124000011932462846FFF7D3FE0028F1D170BDC0
:101250000548416B096821B1416BC9680968816221
:1012600070474FF0FF31FAE7300000202DE9F041E0
:10127000064600F0D3FD0E4C0546A068854214D208
:101280004FF0FF3704E0C06839460068FFF700FF01
:10129000E06801680029F6D12169C4E90310012042
:1012A00030602846A560BDE8F0810020F8E7000026
:1012B00070000020502080F31188BFF34F8FBFF3E0
:1012C0006F8FFEE7074CE068016841B1C0680021FC
:1012D000D0F80000FFF772FFFFF7FAFEF3E70121F5
:1012E0000020F7E7700000202DE9F041044600F0EF
:1012F00069FA94F9555004F12C060FE0A06D18B16D
:101300002046FFF79FFE04E0E06A48B1304600F057
:1013100059FE08B100F070FB6D1E6DB2002DEDDCC2
:101320004FF0FF3684F8556000F05AFA00F04AFAA0
:1013300094F9545004F1100709E0206948B1384687
:1013400000F040FE08B100F057FB6D1E6DB2002D9D
:10135000F3DC84F85460BDE8F04100F041BA0000CD
:101360002DE9F04104004FF000060FD014F1090FF1
:101370000BD80834600709D004F00700C0F108005A
:10138000C1438C4201D8044400E0002400F0A2FBD9
:101390001D4D286808B9FFF78DFD002C2FDD6B6807
:1013A0009C422CD8184814300146096801E00846D0
:1013B00011464A68A24202D20A68002AF7D12A6876
:1013C00091421CD006680A6802604A680836171BFA
:1013D000102F05D90A1957604C6004681460026028
:1013E0004A68981A6860AB68984200D2A86042F0D8
:1013F0000040486000200860E868401CE86000F099
:1014000045FE3046BDE8F0811000002010B5031FF6
:101410004FF080741C601B1F21F001011960191F1F
:10142000024B0B60143940380A6010BDB512000839
:1014300070B52EA588B02ECD8DE82E002CA22F4B96
:10144000D2E90012CDE9041229A20446D2E9001221
:10145000CDE9061259680020C1F381022849FAB18A
:10146000012A1DD0022A1BD15A6802F480354A1085
:10147000B5F5803F05D15D6805F40035B5F5003F51
:1014800000D111465A685D68C2F383422D0101D52F
:1014900042F010020F2A01D2921C00E0521C51436C
:1014A0005A68C2F303121DF8025021FA05F25D6872
:1014B00004AEC5F302255B68755D22FA05F5C3F33A
:1014C000C22306AEF35C22FA03F344B1012C08D028
:1014D000022C08D0032C00D1184608B070BD084675
:1014E000FBE71046F9E72846F7E700000000000098
:1014F0000000000001020304060708090010024072
:1015000000127A00054901EB90110A6800F01F03F0
:101510000120984002430A6070470000001002401A
:10152000054901EB90110A6800F01F030120984063
:1015300082430A607047000000100240054901EB39
:1015400090110A6800F01F030120984002430A60CE
:1015500070470000001002401B4808B502680021D7
:1015600042F0010202604FF4A0630268491C12F0CD
:10157000020F01D19942F8D10168890700D4FEE732
:101580004168416041684160416841F48061416067
:1015900041680E4A1140416041680D4A1143416063
:1015A000016841F08071016001688901FCD54168E2
:1015B00021F0030141F00201009141604168C1F353
:1015C00081010229FAD108BD00100240FFFFC3F7D4
:1015D0000000280870B5134B04460D460020E11AA0
:1015E0001A159C421BD005DC0F49611817D0914297
:1015F00008D114E0914212D0B1F56C4F02D1032012
:10160000FFF716FF00EB5500B0FBF5F14FF6F07257
:1016100001EA020001F00F010843A06070BD022042
:10162000EEE70000004C004000BCFFBF4068C0F384
:1016300008007047C1F3080141607047134B10B5B3
:10164000C21A1915984213D007DC114A80180CD021
:1016500088421AD140F212440FE08A420BD0B2F510
:101660006C4F12D140F20E3407E040F2114404E016
:1016700040F2134401E040F214442046FFF75EFFBD
:101680002046BDE81040FFF74BBF10BD004C0040A6
:1016900000BCFFBFC16841F40051C1607047024601
:1016A00002EB91120020126801F01F030121994002
:1016B0000A4200D00120704710B5C1F38912835847
:1016C00001F01F040121A1400B43835010BD30B530
:1016D000C1F389120023845800EB915001F01F05DB
:1016E000012202FA05F500682C40C1F304418A404A
:1016F000104201D004B10123184630BDC26822F463
:10170000C062C260C2680A43C2607047C26822F009
:1017100004020A43C2607047026922F44052026127
:1017200002690A4302617047C26822F008020A4354
:10173000C2607047C26822F48052C260C2680A4325
:10174000C2607047D0E9013201699A60D0E9012393
:101750005A604A68824201D182684A60002202616E
:101760000868401E086070470148806870470000A4
:101770003000002000F108014FF0FF32C0E90112F3
:10178000C1600161002141618161016070470021F8
:101790000161704730B50B685A1C02D000F1080295
:1017A00002E0026904E02246546825689D42FAD9A5
:1017B00053684B6099608A60516008610168491CF8
:1017C000016030BD502080F31188BFF34F8FBFF30D
:1017D0006F8F02480168491C016070472C0000208F
:1017E00003490868401E086001D180F311887047E2
:1017F0002C00002070B500281BD0A0F10804606800
:10180000002816DA2168002913D120F0004060601A
:1018100000F060F9074D6068696808446860204618
:10182000FFF7C0FB2869401C2861BDE8704000F04C
:101830002DBC70BD100000204FF0E02000210161A0
:10184000816105494FF47A720968B1FBF2F1491ED2
:1018500041610721016170470C00002070B5002232
:10186000002915D00B4C002304EBC3056E6886429B
:1018700002D104EBC30207E01AB954F8336006B989
:101880002A465B1C082BEFD3002A01D0C2E90010C6
:1018900070BD0000E83C002070B515460E460446B9
:1018A000FFF790FF94F954100020491C01D184F8EF
:1018B000540094F95510491C01D184F85500FFF7E4
:1018C0008FFFA06C28B92A46314604F12C0000F0A5
:1018D000A9F82046BDE87040FFF706BD1CB54FF4DF
:1018E0007A7000F069F81D4E0024348040211C48B5
:1018F000FEF789FC1B4F1C4DDFF87090A0460024BA
:10190000A6F80080385DFEF76EFD962000F054F8D2
:101910003A5D31881248FEF72FFD45F82400641C1B
:10192000E4B2052CECD3D5E90301CDE9000195E83B
:101930000E000FA0FEF7A6FE99F800004C46002806
:10194000DDD011A0FEF79EFE03211648FEF790FCA5
:1019500084F8008014A0FEF795FED0E70600002072
:101960009C000020000000208800002008000020CB
:1019700024534F4E41522C25642C25642C25642C75
:1019800025642C25640D0A00536176696E67204337
:101990006F6E66696720746F20466C6173682E2EC7
:1019A0002E0D0A00DC0000205361766520446F6E26
:1019B00065210D0A0000000010B5020009D000F0FA
:1019C00089F800211046FFF721F900F05FFB00289D
:1019D00007D104494FF080500860BFF34F8FBFF329
:1019E0006F8F10BD04ED00E002490A6A0260C96809
:1019F00041607047300000200149012008607047B5
:101A00004C00002010B50C46054909681831FFF755
:101A1000C1FE2046BDE810400121FFF7F7B80000E5
:101A200030000020F0B40C460D4943680D68EB61AE
:101A30009D680E6835620D689E68183575600D6882
:101A400018359D60096888620168491C01600AB107
:101A50004FF0FF342046F0BC1146FFF7D7B8000026
:101A60003000002030B587B0002002A915A2125C1A
:101A70000A5412B1401C1028F8DB15490025CDE9A5
:101A8000005112482B46802202A900F08BF9104C1D
:101A90003C3CA0B1012812D100F090FB01280ED1EE
:101AA000502080F31188BFF34F8FBFF36F8F4FF03B
:101AB000FF30A06201206061E56000F03FF8E06A5D
:101AC00007B030BD49444C4500000000F90E000845
:101AD0006C0000200248016B491C01637047000044
:101AE00030000020134A10B5116B02F11C0011B137
:101AF0000121016010BD0021016011690E4800E064
:101B0000491EC1EBC10350F82330002BF8D0C1EBC4
:101B1000C10300EB830000F1080443685B68436085
:101B2000A34201D1C3684360D86810601161106896
:101B300010BD000030000020283D0020094810B5ED
:101B4000016841F47F010160016841F07F4101605B
:101B5000FFF772FE044900200860FEF7EFFA00204C
:101B600010BD000020ED00E02C00002070B50E46F6
:101B700005004FF000041AD0601EB0FBF5F0B04233
:101B800015D305FB06F010F15D0F10D85C30FFF7A0
:101B9000E7FB04000BD004F15C0056B12060C4E9FF
:101BA00013562046012100F007F80021A1652046C8
:101BB00070BD2460F3E700002DE9F0410F460400FA
:101BC0004FF001063CD0E06CC8B3B51EB5FBF0F198
:101BD000206D814234D3FFF7F5FDD4E9132021684D
:101BE00002FB0011A1600021A164216861600A4626
:101BF000D4E91301401E00FB01212046E16000F8FA
:101C0000545F457004F110004FB1FFF7B3FD04F1CC
:101C10002C00FFF7AFFD00BFFFF7E2FD11E02169E7
:101C20000029F9D000F0CEF90028F5D006494FF090
:101C300080500860BFF34F8FBFF36F8FECE7FFE773
:101C400000263046BDE8F08104ED00E02DE9F747BD
:101C50000026DFF8E48083B08A460446B1464FF0A0
:101C6000805700BFFFF7AEFDA56CC5B151462046B9
:101C7000FFF7CCF86D1EA564206950B104F1100087
:101C800000F0A0F928B1C8F80070BFF34F8FBFF380
:101C90006F8FFFF7A5FD012006B0BDE8F08705981E
:101CA00008B11EB106E0FFF79BFD27E06846FFF78D
:101CB0009BFE0126FFF794FDFFF70CFFFFF782FD67
:101CC00094F95400401C01D184F8549094F95500C3
:101CD000401C01D184F85590FFF782FD05A96846A4
:101CE00000F02CF8002820460AD0FFF7FDFA00F09B
:101CF000CDF92046FFF798F90028B3D00020CBE7B4
:101D0000FFF792F990B104F12C000599FFF77AFEE4
:101D10002046FFF7E9FA00F0B9F90028A2D1C8F887
:101D20000070BFF34F8FBFF36F8F9BE72046FFF725
:101D3000DBFA00F0ABF995E704ED00E02DE9F041A6
:101D40000D460446FFF73EFD154EF368676831689F
:101D5000D81B002291F8551019B1306880F8552031
:101D600018E02968B1F1FF3F09D0D4F800C0366A05
:101D7000B44506D09F4204D801242A600BE0002419
:101D800009E0814205D9081A28602046FFF72CFE99
:101D9000F5E72A600124FFF723FD2046BDE8F08126
:101DA000300000202DE9FF5F8346DDE90E878A467B
:101DB000164699469000FFF7D3FA05001DD058202B
:101DC000FFF7CEFA040015D05821FEF71CFA256360
:101DD0000021CDE90241CDE900874B46324651460C
:101DE0005846FFF79DF82046FEF754FF012004B047
:101DF000BDE8F09F2846FFF7FDFC4FF0FF30F6E707
:101E00000548416919B1006B18B1002070470120E5
:101E10007047022070470000300000200148C06871
:101E200070470000300000202DE9F041444C0026AE
:101E3000206B28B1A069401CA0613046BDE8F0814C
:101E4000E5686D1CE56008D1606BA16B6163A06300
:101E5000206A401C2062FFF7FBF9A16A39488D42D5
:101E60000FD34FF0000E616B096839B1616BC9681F
:101E7000C9684A68954214D2A26202E04FF0FF316D
:101E8000A1622168C96AC1EBC10150F82100012893
:101E900000D901262A481C3000680028CDD0012630
:101EA000CBE7D1E902274B699760D1E902277A6035
:101EB0005F680A1D974201D1CF685F60C1F814E0E6
:101EC0001F687F1E1F60D1F828C0BCF1000F15D01D
:101ED000D1E907379F60D1E907377B60DCF80470F0
:101EE00001F118039F4202D10B6ACCF80430C1F80B
:101EF00028E0DCF800305B1ECCF80030CB6A2769A4
:101F0000BB4200D92361C3EBC30300EB83035B68CF
:101F10008B609F68CF609F687A609A60CA6AC2EBE4
:101F2000C20200EB82034B6150F822305B1C40F888
:101F30002230C96A2268D26A914294D9012692E776
:101F400030000020283D002010B504004FF00001B3
:101F500031D0A06C401EA064636CE26A9A422AD021
:101F600048BB201DFFF7EEFB606CE062C0F105008E
:101F70001249A061E06A0A69904200D908611049DB
:101F8000C0EBC00001EB80004068A0608268E260A6
:101F90008368221D5A608260E06AC0EBC00001EBDA
:101FA00080006061E06AC0EBC00051F82020521C44
:101FB00041F820200121084610BD0000300000201B
:101FC000283D002030B5C068C068D0E90732816A7A
:101FD0009A60D0E907235A604A6800F118039A42D0
:101FE00001D1026A4A60002484620A68521E0A60B3
:101FF00024490A6BAAB1244A5468C461A5680562E1
:10200000A5686B60A360826213685B1C1360C06A82
:102010000968C96A884233D91A4A01201C32106003
:1020200030BDD0E902524369AA60D0E902256A6056
:102030005D68021D954201D1C5685D6044611C6800
:10204000641E1C60C36A0C69A34200D90B610E4C6C
:10205000C3EBC303C43C04EB83035B6883609D68EC
:10206000C5609D686A609A60C26AC2EBC20204EBF6
:102070008203436154F822305B1C44F82230C6E7E7
:10208000002030BD30000020EC3D00202DE9F0475D
:102090000024A046FFF796FB454D0026286B401E06
:1020A0002863286B00287ED1A868424AA2464FF0D8
:1020B000010905F11C07E0BB75E0D068C468D4E9EC
:1020C0000731A06A9960D4E907135960436804F1A5
:1020D00018018B4201D1216A4160C4F828A001682F
:1020E0005346491E0160D4E902C06169CCF808007A
:1020F000D4E9020CCCF80400D1F804C0201D8445BA
:1021000003D1D4F80CC0C1F804C063610B685B1E36
:102110000B60E16A2B69994200D92961254BC1EB1B
:10212000C101C43B03EB81014968A160D1F808C03B
:1021300000E018E0C4F80CC0D1F808C0CCF80400E6
:102140008860E06AC0EBC00003EB8001616153F876
:102150002010491C43F82010E06A2968C96A8842A7
:1021600001D947F8269010680028A6D10CB1FFF7D6
:102170006FF8AC694CB100BFFFF756FE08B147F8E5
:102180002690641EF8D1C5F818A057F8260050B163
:1021900028684FF0010808494FF080500860BFF3ED
:1021A0004F8FBFF36F8FFFF71BFB4046BDE8F087F3
:1021B00030000020EC3D002004ED00E01CB50024C0
:1021C000FEF7DEFD0848006858B107490420091DE4
:1021D000CDE900018201002304A10648FFF7E2FDDA
:1021E000044620461CBD000070000020546D722083
:1021F00053766300C5120008182200080000002072
:1022000088000000A4060008A02200088800002022
:10221000F0410000B40600080102030405000000BC
:102220000000000000F36F06000000000000000046
:10223000000000000000000000000000000000009E
:1022400000000000AAAAAAAA0000000000000000E6
:10225000000000000000000000000000000000007E
:10226000000000000000000000000000000000006E
:10227000000000000400000000000000000000005A
:10228000000000000000000000000000000000004E
:10229000000000000000000000000000000000003E
:0400000508000105E9
:00000001FF
