:020000040800F2
:10000000D81B002071020008EF320008D92A00082E
:10001000ED320008610D00082954000800000000BE
:10002000000000000000000000000000AD460008D5
:10003000A114000800000000A93F0008A950000812
:100040008B0200088B0200088B0200088B0200085C
:100050008B0200088B020008611800088B02000860
:10006000671800088B0200088B0200088B0200084A
:100070008B0200088B0200088B0200088B0200082C
:100080008B0200088B0200088B0200088B0200081C
:100090008B0200088B0200088B0200088B0200080C
:1000A0008B0200088B0200088B0200088B020008FC
:1000B0008B0200088B0200088B0200088B020008EC
:1000C0008B0200088B0200088B0200088B020008DC
:1000D0008B0200088B0200088B0200088B020008CC
:1000E0008B0200088B0200088B0200088B020008BC
:1000F0008B0200088B0200088B0200088B020008AC
:100100008B0200088B0200088B0200088B0200089B
:100110008B0200088B0200088B0200088B0200088B
:100120008B0200088B0200088B0200088B0200087B
:100130008B0200088B0200088B0200088B0200086B
:100140008B0200088B0200088B0200088B0200085B
:100150008B0200088B0200088B020008ED53000898
:100160008B0200088B0200088B0200088B0200083B
:100170008B0200088B0200088B02000800000000C0
:100180008B0200088B02000800F002F800F060F813
:100190000AA090E8000C82448344AAF10107DA45E2
:1001A00001D100F055F8AFF2090EBAE80F0013F0D4
:1001B000010F18BFFB1A43F001031847D05C000081
:1001C000F05C00000A444FF0000C10F8013B13F003
:1001D000070408BF10F8014B1D1108BF10F8015BA0
:1001E000641E05D010F8016B641E01F8016BF9D193
:1001F00013F0080F1EBF10F8014BAD1C0C1B09D1EA
:100200006D1E58BF01F801CBFAD505E014F8016B5B
:1002100001F8016B6D1EF9D59142D6D370470000ED
:100220000023002400250026103A28BF78C1FBD8FF
:10023000520728BF30C148BF0B6070471FB505F09B
:1002400051F99DE8030000F0DDF91FBD10B510BDA8
:1002500000F034FA1146FFF7F1FF05F021F900F044
:1002600052FA03B4FFF7F2FF03BC00F07FFA00007C
:100270000948804709480047FEE7FEE7FEE7FEE73A
:10028000FEE7FEE7FEE7FEE7FEE7FEE70448054976
:10029000054A064B704700004551000889010008D7
:1002A000D8150020D81B0020D8170020D817002010
:1002B00070B5064600F08AF9056806F10B0020F0DB
:1002C0000704B4429CBF002070BD2B466A68BAB1D7
:1002D0001068A04210D304F1080188423CBF506866
:1002E000586007D35168101941601168091B0160FB
:1002F00058601460101D70BD13465268002AE7D183
:100300002146284600F06AF90028DED170BD70B59C
:100310000446051F00F05AF90068002C14BF446819
:1003200070BD002C18BFAC423CBF20466468F8D3B7
:1003300001680A18AA4218BF456003D12A68054619
:100340001144016028684119A1421CBF6C6070BD56
:100350006168696021680844286070BD53EA020C36
:1003600000F069802DE9F04B4FF00006002B1FBF15
:10037000B3FA83F503FA05F424FA05F65E4012BFDA
:100380001643B2FA82F502FA05F4C5F120051EBF44
:1003900022FA05FC44EA0C04203556EA044C4FEAE4
:1003A000144418BF641C4FF000084FF0000990423D
:1003B00071EB030C39D3002919BFB1FA81F701FAA7
:1003C00007F6B0FA80F700FA07F6C7F120071EBF5C
:1003D00020FA07FC46EA0C062037B6FBF4FCA7EB34
:1003E0000507103F07F01F0BCBF120060CFA0BFBA3
:1003F0002CFA06F644BFB3460026202FA4BF5E4663
:100400004FF0000B5BEA060C08BF4FF0010B19EB35
:100410000B09ABFB027C48EB0608C01B06FB02CCB9
:100420000BFB03CC71EB0C01C1E70B4602464146C6
:100430004846BDE8F08B13B54FF000004FF00001C7
:10044000AFF30080BDE81C40704710B5431C02E0CC
:1004500010F8011B71B18107FAD14FF0013202C8C7
:100460008C1A8C4314EAC211F9D0C01A0A0603D0C0
:10047000C01E10BDC01A10BD0A0401D0801E10BDE0
:100480000902FCD0401E10BD032A40F2308010F05B
:10049000030C00F0158011F8013BBCF1020F62441F
:1004A00098BF11F801CB00F8013B38BF11F8013BB0
:1004B000A2F1040298BF00F801CB38BF00F8013B5D
:1004C00011F0030300F02580083AC0F0088051F8CD
:1004D000043B083A51F804CBA0E80810F5E7121DD8
:1004E0005CBF51F8043B40F8043BAFF30080D207F7
:1004F00024BF11F8013B11F801CB48BF11F8012BC3
:1005000024BF00F8013B00F801CB48BF00F8012BE5
:10051000704710B5203AC0F00B80B1E81850203A6F
:10052000A0E81850B1E81850A0E81850BFF4F5AF93
:100530005FEA027C24BFB1E81850A0E8185044BF1D
:1005400018C918C0BDE810405FEA827C24BF51F88A
:10055000043B40F8043B08BF7047D20728BF31F87E
:10056000023B48BF11F8012B28BF20F8023B48BFCF
:1005700000F8012B70474FF0000200B51346944677
:100580009646203922BFA0E80C50A0E80C50B1F1EB
:100590002001BFF4F7AF090728BFA0E80C5048BFFF
:1005A0000CC05DF804EB890028BF40F8042B08BF9D
:1005B000704748BF20F8022B11F0804F18BF00F899
:1005C000012B704770477047704700000048704724
:1005D00080150020704770477047704738B5044653
:1005E0000A4600206946AFF30080002808BF38BDE6
:1005F00002460099204600F03FF8012038BD012056
:1006000000F054B8F8B5AFF30080054600200C4662
:10061000102000BF0646A819A0420DD932466946EF
:100620000020AFF30080070008BF00F03FF80098FB
:10063000A04218BF0546C419FFF7C8FF056007466A
:10064000F01D20F007004619284600F00AF8B442D1
:1006500008BFF8BDA21B31463868BDE8F84000F07D
:100660000BB800210160C0E90110704710207047ED
:100670000048704778150020034640688C460028E3
:1006800018BF88423CBF03464068F8D31868184436
:10069000884207D00CF1030020F00700001D411A2A
:1006A000521A0146081D0A60FFF731BE10B500F06E
:1006B00035F8BDE8104000F02CB870477546FFF7DC
:1006C000D7FFAE4605006946534620F00700854631
:1006D00018B020B5FFF7DAFDBDE820404FF0000666
:1006E0004FF000074FF000084FF0000B21F007011A
:1006F000AC46ACE8C009ACE8C009ACE8C009ACE85D
:10070000C0098D4670470446AFF300802046FFF7CE
:10071000A8FD002801D000F029B8704710B50128C5
:1007200005D0002103A000F027F8012010BD09A189
:10073000F8E7000053494752544D454D3A204F7554
:1007400074206F662068656170206D656D6F7279C9
:10075000000000003A2048656170206D656D6F7281
:100760007920636F72727570746564000149182096
:10077000ABBEFEE72600020070B505460C460A2017
:1007800000E06D1C00F011F835B128780028F8D190
:1007900002E0641C00F009F814B120780028F8D1B8
:1007A000BDE870400A20AFF3008008B569468DF8B7
:1007B00000000320ABBE08BD2DE9F05FD34D8A4693
:1007C0000024611E6982C10600F00F074FF0010985
:1007D000284685F80B90C07BA34604D54FF0010B4B
:1007E00020F0100005E0C10601D5012F70D100F006
:1007F0000F00E873000607EB1050C0B200268046D9
:1008000044281DD009DC122811D022280FD024281A
:100810000FD0B8F1420F20D109E0482810D082282B
:1008200005D084280CD0B8F1880F16D108E002203A
:1008300007E0B6492E31881E00F04EFA040004D1BC
:10084000A87B00F07BFC040007D0E87B02286ED078
:1008500004286DD008286CD1EAE06E854046B8F1D6
:10086000340F22D022DC222831D010DC14281CD0F6
:1008700007DC112874D012283BD0B8F1130F70D1C7
:1008800031E0182811D0B8F1210F6AD1ABE0282847
:100890000BD005DC232808D0B8F1240F61D149E042
:1008A000312822D0B8F1320F5BD1BDE048285ED0AC
:1008B0000FDC42287FD005DC38286FD0B8F1410F1B
:1008C0004FD187E0432869D0B8F1440F49D195E072
:1008D000F9E0A8F18100082843D2DFE800F0726552
:1008E000A560A7A7A78F1324BDE08948132406702D
:1008F000B9E004F081FD287820B102F0C7FA0400C5
:1009000002D006E05124AEE0EE7200F0F1F90400EE
:1009100004D0FF2C6FD0E87A20B105E07D4981F842
:100920000090A0E000F0EAF902F0E8FA9BE087E02E
:1009300082E071E004F0E8F8040006D17348EE723A
:10094000383000F0D3F9040004D0FF2C53D0E87AFB
:1009500040B109E0288F04F087F885F8029082E022
:100960004AE063E000F0C8F904F0E4FA7BE004F048
:10097000C5FA040004D1EE7200F0BCF9040004D002
:10098000FF2C38D0E87A18B104E085F801906AE0CD
:1009900000F0B6F904F004FB65E00CE044E000F080
:1009A000AFF904F0FDFA0AE000F0AAF9044604F0F9
:1009B000F7FAEE7284BB00F09FF904F0BBFAEE7216
:1009C00051E000F09DF9044604F0EAFAEE721CBB17
:1009D0004FF0410800F090F9044604F0ABFAEE72D3
:1009E000D4B94FF0210802F089FA00F087F90446E3
:1009F0004748067028E04BE045480670BBF1000F01
:100A000002D0404600F04EF9E87B10F00C0F09D000
:100A1000E88D10B1022003E016E0A88D10B103208C
:100A200000F024FFFE241EE011241CE012241AE032
:100A300000F066F904F0B4FA00F05EF904F07AFA16
:100A4000162C04D00220E873FF2C21D00BE002F01A
:100A500055FA00F053F9002000F023FD012000F0CA
:100A600020FD85F80F90E87B00F00F01B9424AD0D5
:100A700054EA0A012ED0384300072BD5687818B104
:100A800000F03EF904F08CFAE88DF0B102201FE08E
:100A900085F80C904046A5F82A80B8F1120F07D0CF
:100AA000132805D0242806D0482804D0C82004E004
:100AB0004FF4FA6001E042F2283000B20A2190FBC4
:100AC000F1F1401A6882BDE8F09FA88D10B10320B3
:100AD00000F0E7FC4CB1E87B082801D10420E87362
:100AE000C0B240F01000E87306E05FEA0A0002D0EE
:100AF000044647F01007EF732E73E87B2146BDE8EC
:100B0000F05F03F0CBBF2E730021F8E7B0030020A5
:100B1000440A0020FA0300202DE9F0415F48017BE0
:100B200000297CD000248046408A01272646D8B17F
:100B3000B8F82A00454612285FD013285DD0242833
:100B40006ED048286BD1E87A002868D068790028F0
:100B500067D0B5F91800002861DDB5F91A10884290
:100B60005DDC2E836E838FE0B8F82A00C0F3071592
:100B7000122806D0132804D0242810D0482855D194
:100B800019E098F80B0008B900F0B8F802F0B6F9CF
:100B90000CE000BFB8F8284048E0012446E098F88F
:100BA0000B0008B900F0A8F804F0C4F998F80A009E
:100BB0000028F2D0EEE798F8050068B198F8060032
:100BC00018B198F8030010B104E02D2408E0B8F83B
:100BD0002E0020B91A2403E0B8F82E0020B11B24FF
:100BE00098F80B0020B105E0082588F801701FE097
:100BF00000F086F804F0D4F918E0E87A00284BD029
:100C0000EE7200F075F838B1FF2845D000F076F8A4
:100C1000BDE8F04102F072B92148077002E03BE004
:100C200011E02CE095F82A0000F00F05002D33D0DC
:100C300088F80C600CB145F0100521462846BDE847
:100C4000F04103F02BBFE87A002825D01348EE725C
:100C5000383000F04BF838B1FF281DD000F04CF8C8
:100C6000BDE8F04104F066B9AF700425E0E7FF2865
:100C700012D000F045F8BDE8F04104F091B9E88DDC
:100C800010B1E878002807D0EE7200F033F80028A1
:100C9000EDD16F700825CBE7BDE8F081B0030020EF
:100CA000FA0300207047000003480078002801D0B4
:100CB00000F07CBB70470000B103002001464FF4F8
:100CC00080720148FFF7E0BB2C09002001494988E8
:100CD00001807047280800204FF4807202800A804B
:100CE00000207047FFF7F2BFFFF7E8BF0020704712
:100CF0000020704700207047002070470020704798
:100D000010B500F0A5FB002010BD30B50446002052
:100D10004FF6FF7505E0204600F024F8002803D1C7
:100D200028342189A942F6D130BD000038B541EA06
:100D3000C000ADF8000000221021074800F074FF49
:100D40009DF8010003F07EF9044C20709DF800002E
:100D500003F078F9607038BD000002408C0A002072
:100D6000FEE7000030B500B3144B0022196849B10A
:100D70000D890489A54215D902601968416008608F
:100D8000186018E018604260026014E007D90A6831
:100D9000C0E900210A6802B1506008600BE04B68AE
:100DA00033B119460B89A342F0D14FF0010030BD99
:100DB0004860C0E900124FF0000030BD180000206C
:100DC00030B5064D2C6803E02089646800F00EF908
:100DD000002CF9D10020286030BD00001800002050
:100DE00010B50C4C206828B1002101F0B9FF00209B
:100DF00020600BE08020FFF75BFA040008D00E2291
:100E00000549FFF741FB204603F0AEFA002010BD74
:100E1000072010BDAC0300206815002001480068C1
:100E200070470000180000200249002008600249B5
:100E300008807047AC030020600A00202DE9F84FBD
:100E4000214F3C68002C3DD0DFF880A0204D214E82
:100E50009AF800000090DFF880B0DFF880802B68FF
:100E60009BF80010B8F800003268A0470746FF283A
:100E700028D0DFF86C90002499F8000001280DD0EC
:100E8000022804D003280CD004280FD109E015490A
:100E9000086818B1FFF73BFA1248046000221146B7
:100EA00001E02A683168384603F08EFB89F800407B
:100EB000A8F800408BF80040346003482C608AF8A2
:100EC00000400460BDE8F88F700A0020560A002038
:100ED0006C0A0020680A0020570A00205E0A0020E1
:100EE000550A0020740A0020084900B50020086057
:100EF00001F5AC70FFF709FF002805D103485DF844
:100F000004EB1830FFF701BF00BD000018000020FF
:100F100038B52848202300240380448044F21F0170
:100F200044608181244AC0E90424848304620485E6
:100F3000448580F84040214803804480446081819A
:100F4000C0E90424848304620485448580F8404019
:100F50001B480470FFF7C8FF08B1FFF731FF1948BD
:100F600004220821047018480470184804801848A6
:100F70000470184804601848046018480460184851
:100F800004606846009401F0BFFC00980107154812
:100F900001D5047007E00121017004224FF41161B2
:100FA000114801F0B1FC10494FF47A60091F8860C4
:100FB00038BD0000E014002020A107002415002007
:100FC000440A0020550A0020560A00205E0A00202C
:100FD000570A0020680A00206C0A0020700A0020CE
:100FE000740A0020F40300201C0000200C4B196838
:100FF00013E00A8982420FD1D1E9002002B150608A
:1010000000B1026000220A604A601A6809891289E8
:10101000914200D11860704749680029E9D17047B2
:1010200018000020C188090B09290CD2DFE801F063
:101030000B09050909090909070003F025B803F0A0
:1010400093B90420704705207047000038B5104858
:10105000104C4FF41161007890B120690090042287
:10106000684601F051FC6169009820616268904215
:1010700004D2021C41F10101C4E90421606004E0D2
:1010800004480822103001F03FFC0020A06038BD69
:10109000F40300201800002010B50D480D4901226E
:1010A000448D0989002314B9048D8C4202D980F83B
:1010B000402001E080F840300748448D14B9048D89
:1010C0008C4202D980F8402010BD80F8403010BD1D
:1010D000E0140020380A00202415002038B5164CF2
:1010E000608EB0B10025ADF8005002224FF4886147
:1010F000684601F009FCBDF80000C00709D1E08D89
:1011000038B1607820B11B210420FFF755FB38BDB2
:10111000E57060790028FAD060780028F7D0A079CF
:1011200040B1E0790028F2D11A21BDE8384004200E
:10113000FFF742BB2C21F8E7B00300202DE9F05F58
:10114000544D06460024288E42F6FF71884202D292
:101150001420BDE8F09F002000F0B4FB83794188A3
:101160000288DB071DD08088C0F38103012B18D1D2
:10117000800716D5242914D3802912D81F03BA4218
:101180000FD34FF440594A450BD2012000F09AFB8F
:10119000837941880288DB0703D0808810F00C0F28
:1011A00001D0162474E08007FBD52429F9D38029C7
:1011B000F7D8B8464245F4D34A45F2D200274FF05B
:1011C000010A4FF4806B032E28D985F809A003206B
:1011D00000F078FB837941880288DB071BD029B1B6
:1011E000AB8D994202D10BB1594501D91E244FE074
:1011F000808810F00C0FF9D1E97B022906D0E98E26
:101200008A42F3D1800709D56F7207E04245EDD3DA
:101210004A45F7D3EAE7A88D0143E7D1022E34D936
:10122000022000F04FFB837941880288DB0720D041
:1012300011B3EB8D99421FD1F3B159451CD8808869
:10124000C0F38101012917D1E97B022907D0A98EBA
:101250008A4211D1410607D585F804A005E0424530
:101260000AD34A45F6D307E02F7180070DD56F7278
:101270000BE0E88D014308D01D2409E0304600F062
:1012800021FBC0882882761CF6B2A87B8642F5D363
:1012900020465EE7B003002070B5204B1E4C03F1E2
:1012A000440241F63246751C24889B8992890229A2
:1012B0001DD003DC01B301292CD104E0032921D086
:1012C000222927D10DE0B04202D11CB3980711E0CA
:1012D000A8421FD190071DD5E4B91148008858B91C
:1012E00018E0A84216D1900714D52CB912E0B042EC
:1012F00004D1580700280DDA002070BDA84209D19A
:101300005007F7E7B04201D11807F3E7A84201D12F
:101310001007EFE7122070BDDE030020E01400206C
:10132000DC03002010B5082004F07FF81C48417948
:1013300059B1817849B1C38B00215BB1828B9A424C
:1013400008D38171C27902B1C171BDE81040082093
:1013500004F07CB8828B9A4201D2521C8283012312
:101360008371448C24B1028CA242EAD2521C0284C2
:101370000C4A0D4C128D2489A24207D2C371B0F9D8
:1013800018100029E1DD418B491C07E0C279002AD1
:10139000DBD0C171B0F91820002AD6DD4183D4E733
:1013A000B0030020E0140020380A00202448254A19
:1013B000408800F00101C2F8B812C0F34001C2F841
:1013C000BC12C0F38001C2F88012C0F3C001C2F8A1
:1013D00084121D49C0F30013C1F89C32C0F34013BE
:1013E000C1F8A032C0F38013C1F8A432C0F3C01317
:1013F000C1F8A832C0F30023C1F8AC32C0F34023D7
:10140000C1F8B032C0F38023C1F8B432C0F3C023B6
:10141000C1F8B832C0F30033C1F8BC32C0F3403178
:10142000C2F8A012C0F38031C2F8A412C00BC2F8F7
:10143000A8024FF4807202490448FFF725B8000063
:101440002A09002000804142000042422808002072
:10145000114A0020C2F8B802C2F8BC02C2F88002E9
:10146000C2F884020D49C1F89C02C1F8A002C1F87B
:10147000A402C1F8A802C1F8AC02C1F8B002C1F8D8
:10148000B402C1F8B802C1F8BC02C2F8A002C2F8A6
:10149000A402C2F8A8027047008041420000424204
:1014A000704738B54FF48071ADF8001040F6060172
:1014B00001EBC00402222146684601F063FA0222D1
:1014C0002146684601F020FABDF80000C005F6D5B7
:1014D00038BD0000084810B5007FC00703D1074899
:1014E000007FC00704D00648008808B901F0D0FA90
:1014F000BDE81040FFF7D8BBE01400202415002001
:10150000DE03002070B51548007830B11448B0F9FA
:101510000010002901DD491E018000F0FDF8FFF7F1
:1015200001FF1048114A01780F4831B1104D016890
:101530000024691A74EB040309D3D0E900130D4C9D
:10154000091943F10003C0E90013106802E04FF4E9
:101550007A601060401C106070BD0000BC03002069
:10156000C2030020F40300202800002020000020F7
:1015700040FBE1FF40420F00F8B50025ADF80050F8
:1015800002220421684601F0BFF9BDF800001E4C9C
:10159000000A0222A0730621684601F0B5F9BDF8E1
:1015A000000040F6FF7101EB8020208603F024FF4D
:1015B000002604E03046FFF774FF761CF6B2A07BED
:1015C0008642F7D301F044FBE5722573E570657040
:1015D000A57025716586A583E5832584658465717D
:1015E000A57225852587E585A5850120E073002165
:1015F00003F054FA658565732572FFF715FCBDE8A5
:10160000F840002002F004BDB00300202DE9FC41A9
:1016100000260120ADF80460ADF8000001F010FCD8
:10162000394F40F60E08387820B10222414668460C
:1016300001F06AF901F0E2F90446344DC0070FD019
:10164000287B68B902224FF4907101A801F05CF97F
:10165000BDF8040024F01104C0B20021FFF7ACF87B
:10166000E0060FD5287B78B9E87BC1060ED420F0C0
:10167000100101290AD024F0100400F00F0000210D
:10168000FFF79AF8287B08B1FFF746FA3878002868
:1016900037D0BDF80000C00705D1E87B002100F07D
:1016A0000F00FFF789F8A00509D56E8718480222B8
:1016B000018816483A3001F065F901F001FBBDF8E8
:1016C0000000144C8007207801D508B113E090B1D8
:1016D00001F026FB20780028BDF8000002D040F47D
:1016E000007001E020F40070ADF8000002224146D5
:1016F000684601F047F901F081F9C00501D501F014
:10170000EDF9BDE8FC810000FA030020B0030020E1
:1017100006040020FB030020F0B54C480124002102
:1017200002784B4812B1C4700171F0BDC288521CDE
:1017300092B2C280322A05D0642A03D0962A01D000
:10174000C82AF2D1434B1B7803F00F05424B092DF9
:1017500006D2DFE805F005050713090505050C00AD
:10176000197005E0402500E041251D7000E01C7067
:101770001B789D0604D4C82A02D02FE06025F4E728
:101780000025DE0603D0DD06AD0E6D1EEDB28678B7
:10179000B34206D01D0601D5C17000E0C4700481BB
:1017A0001BE05E0616D5C67866B10026C670A5B1E8
:1017B0000689761CB6B20681AE420ED91F0603D545
:1017C000C47002E00126F1E7C1706D1DAE4204D382
:1017D000018102E003F00105C57083701F4B1B7887
:1017E0009D0601D4C82AA0D10025DE0603D0DD065F
:1017F000AD0E6D1EEDB24678B34206D01D0601D582
:10180000017100E0047144811BE05E0616D5067983
:1018100066B100260671A5B14689761CB6B246812E
:10182000AE420ED91F0603D5047102E00126F1E78E
:1018300001716D1DAE4204D3418102E003F0010449
:1018400004714370C82ACED1C180F0BDB10300201D
:1018500088030020BF030020F5030020BD03002003
:10186000012000F0DDB8042000F0DAB838B500211E
:10187000ADF8001040F6060101EBC004022221463B
:10188000684601F07FF802222146684601F03CF8E4
:10189000BDF80000C005F6D438BD72B6FEE7018879
:1018A000428891420BD000EB8102491C926889B2B8
:1018B00001808388994203D10021018000E0002249
:1018C000104670474FF4006110B501EBC0010822CB
:1018D000024801F019F8014810BD0000EC03002097
:1018E00038B5054600200446009004224FF41161EB
:1018F000684601F029F8009828B1854201D8441BB8
:1019000001E0E943441835B104488069A04201D29E
:10191000241A00E00024204638BD0000880300207F
:101920002DE9F0410446876D00F084F9064694F8ED
:1019300035000025022806D08020606584F83450E8
:101940000120BDE8F0812068016821F016010160E6
:101950002068416921F080014161206C08B9A06CC8
:1019600020B12068016821F0080101602068016849
:1019700021F0010101600CE000F05CF9801B0528FA
:1019800007D920206065032084F8350084F834509E
:10199000D7E720680068C007EED194F85C103F20BC
:1019A0008840B860012084F8350084F83450002065
:1019B000C7E790F83510022903D080214165012046
:1019C0007047052180F835100068016821F0010199
:1019D000016000207047000070B5044600F02AF94D
:1019E0000546601C02D004480078044400F022F947
:1019F000401BA042FAD370BD0800002010B5074C70
:101A0000042806D0012803D103F0D2FA0120206077
:101A100010BD02F0E9F90420F9E70000143C014090
:101A2000044910B50A68024202D00860FFF7E6FFD9
:101A300010BD0000143C01402DE9F84FDFF8BCA1B7
:101A40000022012503264FF00F090AF1040BAAF129
:101A5000040E00BF0B6805FA02F42340A34270D1C4
:101A60000F7907F00307012F01D0022F16D18768E5
:101A70004FEA420806FA08FC27EA0C07D1F80CC026
:101A80000CFA08FC4CEA070CC0F808C04768A743EA
:101A90000C79C4F3001494403C4344600C79E44353
:101AA000A4070AD0C4684FEA420C06FA0CF7BC43FC
:101AB0008F6807FA0CF72743C7600C7904F003041A
:101AC000022C12D1D40800EB840CDCF8204057071C
:101AD000FF0E09FA07F824EA0804D1F8108008FA82
:101AE00007F848EA0408CCF8208004684FEA420C62
:101AF00006FA0CF7BC430F7907F0030707FA0CF757
:101B0000274307604C6814F4403F70D03C4C276872
:101B100047F480472760246822F0030704F48044D8
:101B20000094384C07EB040CDCF8084897074FEAA0
:101B3000177809FA08F7BC43334FB84202D100279F
:101B400024E054E0314FB84201D101271EE0304F6C
:101B5000B84201D1022719E02E4FB84201D1032724
:101B600014E02D4FB84201D104270FE02B4FB842AB
:101B700001D105270AE02A4FB84201D1062705E026
:101B8000284FB84201D1072700E0082707FA08F7D5
:101B90002743CCF80878DAF800405746D1F804C05B
:101BA0009C435FEACC2C00D51C433C60DBF8004032
:101BB0005F46D1F804C09C435FEA8C2C00D51C43DF
:101BC0003C60DEF800407746D1F804C09C435FEAF1
:101BD0008C3C00D51C433C60084F083F3C68D1F862
:101BE00004C09C435FEACC3C00D51C433C60521CC3
:101BF000102AFFF42FAFBDE8F88F0000083C014029
:101C0000443802400030014000000240000402401D
:101C100000080240000C0240001002400014024084
:101C200000180240001C02400AB18161704709049B
:101C3000FBE70000014880687047000008000020B2
:101C400002488168027811448160704708000020D2
:101C50000B4810B5016841F400710160016841F45E
:101C600080610160016841F480710160032000F02F
:101C700071F8032000F006F800F024F8002010BDF1
:101C8000003C024070B50D4D04464FF47A7128783F
:101C9000B1FBF0F00A490968B1FBF0F000F080FBFD
:101CA00048B9102C07D200222146501E00F032F80D
:101CB00000206C6070BD012070BD00000800002095
:101CC000140000200B4882B0016841F4804101609B
:101CD000006800F4804000900648001F016841F051
:101CE00080510160006800F080500090052002B033
:101CF00000F030B844380240002809DB00F01F0231
:101D0000012191404009800000F1E020C0F800115D
:101D100070470000F0B40E4B1B680C46C3F302235F
:101D2000C3F10705042D00D90425191D072901D287
:101D3000002300E0DB1E012606FA05F1491E2140C2
:101D400099409E40761E16403143F0BC03F098BB8C
:101D50000CED00E0064900F0070208684FF6FF03AB
:101D6000184040EA0220034A104308607047000010
:101D70000CED00E00000FA052DE9F0470E460500E5
:101D800065D0DFF81481D8F80000F7B200F0070042
:101D9000B04207D288F80070D8F8000000F00700C1
:101DA000B04254D128683D4C810712D5400703D575
:101DB000206840F4E05020602878000703D52068B0
:101DC00040F4604020602068A96820F0F0000843DB
:101DD00020602878C0072DD030496868083901286C
:101DE00012D0022813D0032811D0096889070029CE
:101DF0002DDA216821F0030101432160FFF71AFF6A
:101E0000814641F2883A0EE009688903EFE70968E4
:101E10008901ECE7FFF70EFFA0EB0901514502D95C
:101E20000320BDE8F0872068696800F00C00B0EB83
:101E3000810FEFD1D8F80010404601F00701B14200
:101E400007D90770006800F00700B04201D00120F8
:101E5000E7E72878400705D52068E96820F4E050D6
:101E6000084320602878000706D52068296920F4F7
:101E7000604040EAC100206000F018F82168084A7C
:101E8000C1F30311515CC840064908600648006868
:101E9000FFF7F8FE0020C4E7003C0240083802408B
:101EA000EE540008140000200C000020154810B566
:101EB000006810F00C02144813D01449042A0FD003
:101EC000082A0ED10F4C241F2268236802F03F021B
:101ED0005B0207D52068C0F38810A0FB010106E073
:101EE000084610BD2168C1F38811A1FB0001002341
:101EF000FEF734FA2168C1F30141491C4900B0FBE7
:101F0000F1F010BD083802400024F400001BB700B7
:101F10002DE9F84F04006ED02078DFF84C93C0070D
:101F2000A9F104054AD009F104000168C1F3810157
:101F3000012908D00068C0F3810002280AD1D9F82D
:101F40000000400206D52868800337D56068002865
:101F5000E1D033E06068B0F5803F10D0B0F5A02F3D
:101F6000286810D020F480302860286820F4802071
:101F700028606068A8B1FFF75DFE06460DE028689E
:101F800040F48030F4E740F480202860F7E700BF99
:101F9000FFF750FE801B642873D828688003F7D5AC
:101FA0000CE0FFF747FE064605E000BFFFF742FEE4
:101FB000801B6428F0D828688003F7D42078DFF8E5
:101FC000AC8280074FF0000A3ED5A748001D01688B
:101FD00011F00C0F08D00068C0F3810002280BD16B
:101FE000D9F80000400207D42868800716D5E068B9
:101FF000012800D112E033E1E068B8B10120C8F84F
:102000000000FFF717FE064605E000BFFFF712FECF
:10201000801B0228C0D828688007F7D52868216966
:1020200020F0F80040EAC10028600DE0C8F800A0E8
:10203000FFF700FE064604E0FFF7FCFD801B0228C8
:102040001FD828688007F7D42078000722D5864F4C
:1020500087486169703771B101210160FFF7EAFDBE
:10206000064604E0FFF7E6FD801B022809D8386821
:102070008007F7D50EE0C0F800A0FFF7DBFD0646AD
:1020800005E082E0FFF7D6FD801B02287DD8386886
:102090008007F7D42078400768D5DFF8CCB1002757
:1020A0000BF13C0BDBF80000C0000BD4DBF8001098
:1020B00041F08051CBF80010DBF80000012700F060
:1020C000805000906B4E3068C00510D4306840F4EA
:1020D00080703060FFF7AEFD009005E0FFF7AAFDCD
:1020E0000099401A022850D83068C005F6D55E4ED7
:1020F000A0686C3601280FD00528306810D020F079
:1021000001003060306820F004003060A068B8B191
:10211000FFF790FD00900FE0306840F00100F4E719
:1021200040F004003060F7E7FFF784FD0099411AA2
:1021300041F28830814266D830688007F4D50EE0DD
:10214000FFF778FD009007E0FFF774FD0099411A52
:1021500041F28830814256D830688007F4D42FB1DC
:10216000DBF8001021F08051CBF80010A069C8B353
:102170003D49091D0968C1F3810102294AD002289D
:10218000504607D0C8F8600000E03CE0FFF752FD81
:1021900004463BE04746C8F86000FFF74BFD0646A3
:1021A00005E000BFFFF746FD801B02282BD82868FA
:1021B0008001F7D4D4E907010843A16A2E4A4908EF
:1021C00002EB0141626A41EA8211084394F82C1043
:1021D00040EA0161C9F8001001203866FFF72AFDC6
:1021E000044606E03EE000BFFFF724FD001B022886
:1021F00009D828688001F7D534E000BFFFF71AFD41
:10220000001B022802D90320BDE8F88F286880014E
:10221000F4D427E00128F7D0D9F80000E26900F4EF
:10222000800191421CD1226A00F03F01914217D1F6
:1022300047F6C071626A0140B1EB821F10D1A26AF9
:102240004FF0FF3300F4403103EB5202B1EB024F89
:1022500006D194F82C1000F07060B0EB016F01D043
:102260000120D1E70020CFE70438024000004742B8
:10227000800E4742007000400000FFFF70B5040070
:1022800009D0606A002540B125616561A56294F8B6
:10229000510040B10CE0012070BD6068B0F5827F54
:1022A000F4D0E561F2E784F85050204600F044F89D
:1022B000022084F851002068016821F0400101608B
:1022C000A088218900F4827001F404410843A189A7
:1022D00001F400610843217C01F002010843217DE3
:1022E00001F001010843218B01F400710843217FB3
:1022F00001F03801084394F8201001F080010843F0
:10230000218D01F40051084321680860A06904216F
:1023100001EA104094F8241001F0100108432168EC
:1023200048602068C16921F40061C16165650120D0
:1023300084F85100002070BD10B586B00446142109
:102340006846FEF718F913492068884220D11248E0
:102350000021026842F480520260006800F480505C
:1023600005900D481438026842F0010202600068CE
:1023700000F001000590E02000900220CDE901016D
:10238000032003900520049069460448FFF754FB9E
:1023900006B010BD00300140443802400000024049
:1023A00010B5401EB0F1807F01D3012010BD4FF069
:1023B000E02460610F21601703F062F80020A06143
:1023C00007202061002010BD70B590F83C20012A44
:1023D00032D0012480F83C40022280F83D2003687E
:1023E0005A689D6822F070060A6832435A60134B9F
:1023F00002689A4214D0B2F1804F11D0104B9A4229
:102400000ED0104B9A420BD00F4B9A4208D00F4B74
:102410009A4205D00E4B9A4202D00E4B9A4204D1FA
:10242000496825F080031943916080F83D40002100
:1024300080F83C10084670BD022070BD00000140CD
:102440000004004000080040000C0040000401406F
:10245000004001400018004010B5040003D094F87B
:102460003D0010B107E0012010BD002084F83C00C1
:10247000204600F01FF8022084F83D00211D20684E
:1024800002F068FE012084F8460084F83E0084F8DB
:102490003F0084F8400084F8410084F8420084F84A
:1024A000430084F8440084F8450084F83D0000208F
:1024B00010BD000008B500680649884208D10648EA
:1024C000016841F002010160006800F00200009024
:1024D00008BD0000000400404038024090F83D1064
:1024E000012901D001207047022180F83D100068C9
:1024F0001149884214D0B0F1804F11D00F49884261
:102500000ED00F4988420BD00E49884208D00E49A0
:10251000884205D00D49884202D00D49884204D135
:10252000816801F00701062903D0016841F001012B
:1025300001600020704700000000014000040040DE
:1025400000080040000C0040000401400040014031
:102550000018004070B5044690F83C0000250128A2
:1025600017D0012684F83C60022084F83D002068E2
:10257000826822F0770222F47F4282600868502845
:1025800038D00DDC20284FD005DC90B3102811D1B5
:102590004AE0022070BD302846D040280AD13BE0F6
:1025A00060282FD070280DD0B0F5805F03D0B0F533
:1025B000005F12D0012584F83D60002084F83C00C3
:1025C000284670BDCB68D1E90121206802F02EFEBB
:1025D0002068816841F0770109E0CB68D1E90121E9
:1025E000206802F023FE2068816841F48041816008
:1025F000E1E719E0CA684968206802F029FE502125
:10260000206806E0CA684968206802F032FE60214E
:10261000206802F015FECEE7CA684968206802F01B
:1026200017FE40212068F4E7226801461046F0E7D3
:1026300070477047F8B5016804460868CA684B6976
:1026400010F00F0F4FF000055AD003F0010602F40E
:102650009077374365D0C10705D0D10503D5616CAC
:1026600041F001016164410705D5D90703D0616CD0
:1026700041F002016164810705D5D90703D0616C7F
:1026800041F004016164010707D502F020013143E4
:1026900003D0616C41F008016164616C00293BD09A
:1026A000800604D5900602D5204602F022FE20685E
:1026B0004069616CC0F3801001F0080101432046BD
:1026C0002BD002F0EFFD20684069400621D520683C
:1026D000143050E8001F21F0400140E80012002AA9
:1026E000F5D1E06BA8B172490165E06BFFF761F9C4
:1026F000002811D0E06B016D01B0BDE8F040084743
:1027000083060ED593060CD52046BDE8F84002F0AE
:10271000F0BD2046FFF78DFFF8BDFFF78AFF656427
:10272000F8BD266B2023012E7ED1C6067CD5D606A9
:102730007AD508684868009048694FF0020640065C
:102740004DD5E26B106840684FF480770004000CB0
:102750003AD0A18D814237D9E085D069B8422DD0D9
:1027600020680C3050E8001F21F4807140E800120E
:10277000002AF5D12068143050E8001F21F0010133
:1027800040E80012002AF5D12068143050E8001FFC
:1027900021F0400140E80012002AF5D184F84230CF
:1027A000256320680C3050E8001F21F0100140E83C
:1027B0000012002AF5D1E06BFFF7B2F86663A08D36
:1027C000E18D401A81B206E0A18D8142A8D1D06985
:1027D000B842A5D166632046FFF72AFFF8BDA08D59
:1027E000E18D401A81B2E08D0028F7D00029F5D0A4
:1027F00020680C3050E8002F22F4907240E8002747
:10280000002FF5D12068143050E8002F22F001028B
:1028100040E80027002FF5D184F842302563206876
:102820000C3050E8002F00E006E022F0100240E8F3
:102830000023002BF3D1CDE705062BD5150629D5AE
:1028400094F841002128C9D1A068B0F5805F01D17A
:102850002069B0B1206A411C21622168007848607B
:10286000E08C401E0004000CE084B7D12068C168F1
:1028700021F08001C1602068C16841F04001C16061
:10288000F8BD206A0088C0F308004860206A801CF8
:102890002062E5E74006F3D55006F1D5CA68204628
:1028A00022F04002CA6084F8413000F02BF8F8BDF5
:1028B0009752000890F84230202B01D00220704738
:1028C00021B11AB10023036302F074BD01207047E7
:1028D0000068094988420ED10848094A01784388AE
:1028E000D1544188491CC9B24180014604480122A3
:1028F0004838FFF7DFBF7047001401400000002098
:10290000780B0020704700002DE9F0410E46144678
:1029100005460C4F11E072B602213046FEF706FA6A
:10292000FF2001F08FFB05F8010B01221021384632
:10293000FFF77AF962B6761CB6B2641EA4B2EAD288
:10294000BDE8F0810000024070B50B460546144614
:10295000002602211846FEF7E9F906E004B9FF2631
:10296000304601F06FFB05F8010B641EA4B2F5D2EE
:10297000BDE87040012210210148FFF755B9000061
:1029800000000240F8B50E46144605460C4F12E012
:1029900072B604213046FEF7C9F9287801F052FBDF
:1029A0008DF800000122102138466D1CFFF73CF91C
:1029B00062B6761CB6B2641EA4B2E9D2F8BD0000BD
:1029C0000000024038B50B4604461546042118465F
:1029D000FEF7ACF905E0207801F034FBADF800001B
:1029E000641C6D1EADB2F6D2BDE838400122102144
:1029F0000148FFF719B900000000024008B50122A4
:102A000000216846FFF780FF0148008808BD0000EC
:102A10008C0A002008B5012200216846FFF794FFC8
:102A20000148008808BD00008C0A0020F8B500F0BD
:102A30005BFB002493264FF4017504222946684667
:102A40000096FFF79FFF0422294668460094FFF78F
:102A50005BFF00989328F0D1042229466846009431
:102A6000FFF790FF082002F0FEFC062002F0FBFCBE
:102A7000072002F0F8FC00F05BFB0348FFF72EFD97
:102A800062B60020F8BD0000E80A00207047000090
:102A90000D4810B50078002815D10C4C206970B194
:102AA000FEF71EFF0A4A2061516809B1814200D930
:102AB0005060084A516809B1814200D95060002035
:102AC000FEF70EFF206110BDB50300208803002033
:102AD000E014002024150020FEE700002DE9FC4151
:102AE0002F4C02226846A189FFF70EFFE0790127EB
:102AF0000026012817D10A20FDF7DAFB050012D0C5
:102B00002E606E602E8104202880A888002120F489
:102B10007060A880EF8007202881284600F020F907
:102B20002846FDF7F4FBBDF80000801D81B2ADF82A
:102B300000106078A279104302D02770BDE8FC81B4
:102B400026706089814201D9ADF80000FDF7B0FB25
:102B500020610028F1D0BDF80020A189FFF7D4FE44
:102B6000ADF80460022240F6040101A8FFF7CCFE94
:102B7000BDF80400ADF80400BDF8040000050AD556
:102B800008480680A089618902220844801E81B21B
:102B90000448FFF7B9FE206900F01EF9CEE70000F7
:102BA000F8030020EA0300202DE9F84306462548F3
:102BB000007800F00F00012807D0234CA07820B146
:102BC000607820B10720BDE8F883F020FBE7358866
:102BD000E189A81D804682B23046FFF7D3FE002768
:102BE000ADF80070022240F60C016846FFF78CFE3B
:102BF000BDF80000ADF80000BDF80000000519D4D4
:102C000020891249401B801F80B20F80022808D201
:102C10004FEA5801C0F1020206EB41010B48FDF7F3
:102C200033FCE089218902220844801E81B20748D2
:102C3000FFF7A8FE606900B127610120666160703E
:102C40000020C0E7BF030020F8030020EA030020B3
:102C5000F8B5194D24200024688180202881400186
:102C6000A881E88115480A2140F60E0604804480B8
:102C70008180343802220480448081802C61AC61E0
:102C80006C61EC61EC70ADF8004031466846FFF7CE
:102C90003BFEBDF80000022220F40070ADF80000F9
:102CA00031466846FFF76EFEAC706C702C70AC71EC
:102CB0002C716C71F8BD0000F8030020AC140020EA
:102CC00070B5154C00256570A06920B1E16911B996
:102CD000FDF71DFBA5616069A061E06918B1FFF710
:102CE00063FFE56105E00D48FEF7D9FD08B1FFF788
:102CF0005BFFA07900280DD081070BD520F00200E2
:102D0000A0712069FEF76CF8002803D0A07940F08C
:102D10000200A07170BD0000F803002078140020AC
:102D200070B50E4CA5698DB16078002650B1E06990
:102D300040B90120FEF7B5FB6069E0610120FEF7B4
:102D400095FD66702846FFF72FFFA661E07810B169
:102D50000020E07070BD0120FBE70000F8030020B8
:102D60002DE9F0410646194800270D46007800F08D
:102D70000F00012808D0B088154C20F47040B080B6
:102D80006179490703D004E0F020BDE8F08101211A
:102D90006171617940EA0130B0803046FFF704FF8D
:102DA00040B10C49304601F000F9070002D045F06F
:102DB000800502E06079401C6071280604D5A17985
:102DC00005F07F000843A0713846DEE7BF0300200E
:102DD000F80300207814002070B50446818822880A
:102DE000080B04250126802A06D9258021F470606D
:102DF000A080E680082011E00F4910B10A799042C6
:102E000013D008710D49204601F0CFF8002811D0E9
:102E10002580A18821F47061A180E6802081204670
:102E2000BDE870400021FFF79BBF2046BDE8704021
:102E3000FDF76DBA70BD0000F8030020AC1400204F
:102E400070B5042501260F48FEF729FD04000FD0B8
:102E500000F0A2F90028F6D02580A18821F4706145
:102E6000A180E680208100212046FFF779FFEAE774
:102E700005480078002803D0BDE87040FFF72EBE5B
:102E800070BD0000AC140020F803002070B50025D0
:102E90002846FEF717FD184C418861810088A08103
:102EA0000120FEF70FFD418821810088E081A28981
:102EB00063891344834204D90844904201D91620FF
:102EC00070BD0020FEF7D2FC0120FEF7CFFC608928
:102ED000FDF7EEF90026206108B1E67107E0012058
:102EE000E0710A20FDF7E4F9206100B90225FDF741
:102EF0000EFA2846266170BDF8030020F8B5274C6D
:102F000000252846A570FEF7CCFA0120FEF7C9FA85
:102F1000A06908B1FDF7FBF9E06920B1A169884219
:102F200001D0FDF7F4F9606938B1A169884204D095
:102F3000E169884201D0FDF7EAF901F08DFB2561D6
:102F4000A5616561E561E57040F60E06ADF80050DB
:102F5000022231466846FFF7D7FCBDF80000022286
:102F600020F40070ADF8000031466846FFF70AFD16
:102F700065702570A571257165710948FEF78FFC94
:102F800010B1FDF7C4F9F8E705483438FEF787FCBF
:102F9000002802D0FDF7BBF9F6E7F8BDF8030020E2
:102FA000AC1400202DE9F04F87B014216846FDF7DE
:102FB000E2FA48484FF0000B016841F080010160DF
:102FC000016801F080010591016841F00101016093
:102FD000016801F001010591016841F010010160F3
:102FE000016801F010010591016841F008010160DC
:102FF000016801F008010591016841F004010160D8
:10300000006800F00400059032481430016841F077
:10301000200101600068DFF8C08000F0200005900A
:10302000002210214046FEF7FFFDDFF8B0904FF67A
:103030008076002231464846FEF7F6FDDFF8A0A074
:103040004CF20377002239465046FEF7EDFD05208D
:1030500000904FF404100124CDE901046946404674
:10306000FEF7EAFC1020CDE900040225694640463F
:10307000CDE90245FEF7E0FCCDE90064694648462B
:10308000CDE90245FEF7D8FCCDE90074694650460B
:10309000CDE90245FEF7D0FCC0208DE821080820CC
:1030A000CDE9035069460F48FEF7C6FC00221146E1
:1030B0000620FEF72FFE0620FEF71EFE012200214D
:1030C0000820FEF727FE0820FEF716FE07B0BDE831
:1030D000F08F000030380240000002400010024033
:1030E000000C024000080240104810B50E49016073
:1030F0004FF482714160002102228160C0E9031215
:10310000012242615202C0E90621016241628162EC
:103110000A21C162FFF7B2F8002803D0BDE81040D1
:10312000FEF7BBBB10BD000000300140900A00203C
:1031300010B586B0002417480094019402940394BB
:1031400004941349059401605421C0E9011440F22C
:10315000CF71C0E903148461FFF77EF908B1FEF76F
:103160009CFB4FF48050009069460A48FFF7F2F943
:1031700008B1FEF792FB049404A906480594FFF7F2
:1031800023F9002801D0FEF788FB06B010BD00002F
:1031900000040040E80A00208188C1F303210329CC
:1031A00001D002207047FDF73DBF00002DE9FC4132
:1031B0001C4C4FF000084546C4F80C80FEF7DCF9C3
:1031C000FDF7A6FE01202070657125616561A5618E
:1031D0000195009500264FF411654FF47A7704228B
:1031E000294601A8FFF7B0FB042229466846FFF7ED
:1031F000ABFBDDE90001814201D8401A01E0C9437F
:1032000008440090A06948B10099884200D9A161A2
:10321000761CBE42E3D34046BDE8FC810098A06125
:10322000F6E700008803002070B5284D28780028B4
:103230004AD02748274C007808B1217841BB26495D
:10324000097829BB012680B9FFF7D8FB410506D5CF
:1032500022482670007840B100F06CFE05E020495D
:10326000098811B9000500D526704FF0E0264FF40B
:103270008074C6F88041BFF34F8FBFF36F8FFEF7A6
:1032800029F91848007808B100F022FEC6F800417C
:1032900000F0A2FDB0F57A7F03D3FEF733F900F01A
:1032A00093FD11480068B0F57A6F01D3FDF7CEFEAB
:1032B000FEF7ACF9FDF7C2FDFDF710FFE868002846
:1032C00002D0BDE87040004770BD000088030020B8
:1032D000B8030020B3030020B5030020B103002091
:1032E000DE030020B203002020000020FEE7FEE7FE
:1032F0006422B1FBF2F310B5047823440370B1FBF0
:10330000F2F302FB13110A22B1FBF2F344782344D7
:103310004370B1FBF2F302FB13113031817010BD29
:103320002DE9FF41908954691F460E00C0F3032028
:1033300004D0072802D0092808D023E02046FDF752
:1033400084F885B27FB32A46214629E001250BE0A7
:10335000B54207D12046FDF778F885B28FB1002D30
:10336000F1D10FE06D1CADB22046FDF76EF80444BC
:10337000641CB54206D82078FF2803D0FE28E7D188
:1033800000E085B90C2577B10D2209496846FDF7A3
:103390007BF831460DF10900FFF7AAFF0D226946BF
:1033A0003846FDF771F804B02846BDE8F08100000A
:1033B000450A002082890069C2F30322082A04D04A
:1033C00001EB410100EB410070470029FCD0801D5A
:1033D0007047F0B58A8905004FF00000C2F303265C
:1033E00000D01020072E03D001224FF4187734E0CC
:1033F0000020F0BD082E14D00B6902EB420403EB51
:10340000440423881F2B2BD00EDCA3F1030CBCF14A
:10341000090F1BD2DFE80CF024341A2434341A1AB2
:1034200024000C69A41DECE7BB4219D006DC202B5C
:1034300026D02E2B14D02F2B08D121E0A3F5007C11
:10344000BCF1620C1CD0BCF1010F19D0AA4202D20F
:103450006388184480B2521C92B2AA42CAD9F0BD05
:103460000F304FF6F07C00EA0C00AA42F3D20B2B8F
:1034700001D0BB4202D16388184480B21030E9E722
:103480001F304FF6E07C00EA0C00AA42E3D2A3F51D
:10349000007CBCF1620CDBD0BCF1010CD8D0203038
:1034A000D8E72DE9F0418046202101FA08F18EB2DB
:1034B000FDF7B4FC034600251BE01889B0F5805FDA
:1034C00016D3B8F1000F11D01F7B00240BE0E1B23E
:1034D0001846FFF76FFF8088304207D1641CA4B202
:1034E000B8F1000F02D0BC42F1D901E06D1CADB2C1
:1034F0005B68002BE1D12846BDE8F0810A307047B7
:1035000010B50446FDF78AFC03E00189A14202D010
:1035100040680028F9D110BDF0B59489C4F30320A8
:10352000E5B200240226F3B1072823D0082801D0F1
:10353000012010E090690378106900895843C01D8C
:10354000C0080CE000EB4007136906EB4707401C7E
:10355000DB5BC0B21C44A842F4D9E41DE00800299A
:1035600000D1801CF0BD072806D041B1082808D042
:103570008D4209D20020F0BD106940880AE0012088
:10358000F0BD1069008905E0106901EB410106EB0F
:103590004101405AC01DC008F0BD00002DE9FF5F89
:1035A0008246202000FA0AF01FFA80F808884FF4BB
:1035B000805BDFF880900E9D14460E46584507D17B
:1035C000FDF72CFC030028D15DB31B20287028E0F8
:1035D000D9F8003020E058451DD3BAF1000F12D0C1
:1035E0001F7B00250CE029461846FFF7E3FE808884
:1035F00010EA080F07D16D1CEDB2BAF1000F02D02E
:10360000BD42F0D907E00398198901800398801C16
:10361000A41EA4B203905B681BB11889012CDAD8F0
:1036200001E04FF6FF703080C9F8003004B020464A
:10363000BDE8F09F880A00202DE9FF4F0D460F4698
:10364000998983B0C1F303209946109C904601F0FC
:10365000FF0AAB464FF480530290072806D0039828
:10366000984203D3D9F8180090F800A0119838B107
:103670000298072867D00398984264D3D34613E092
:10368000574503D9112007B0BDE8F08F5946484689
:10369000FFF790FE80880028ECD0BB4900F00702BD
:1036A000097811EA420F0AD0D9F81C606EB111985E
:1036B00000902346424639460398B047E3E7400767
:1036C00001D01A20DFE70620DDE70398B0F5805F20
:1036D0003AD2BFB348463946D9F81830FFF76AFEE8
:1036E0004088C01DC20803EB870050F8041CC807BF
:1036F0001DD0002321F001000BE000BF30F8021BB9
:10370000090A218005785B1C41EA052124F8021B87
:103710009BB2B3EB520FF1D3D10707D0218801F44C
:103720007F412180008841EA1020208026E131F885
:10373000020B208031F8020B6080201D121FFCF765
:10374000A3FE1BE100E0DFE04FF00008CDF80480AD
:103750000EE1D9F81860002345B10398B0F5805FF9
:1037600004D3E8B24946FFF734FE0346180906EBD6
:1037700040000090E9B24846FFF71CFE064600797B
:1037800000F007018048007810EA410F7DD0BD426B
:1037900004D01198002807D0BD4205D32DB9029856
:1037A000072802D024F802ABE0E03088B0F5E06FE3
:1037B0000DD37188082902D82F3188B207E010296B
:1037C00002D0202902D002E0062000E007201F28B6
:1037D00075D012DC71D2DFE800F03A4848727748C1
:1037E000727777959595ABABABABAB82ABABAB825E
:1037F000ABABABABAB82ABAB4800342835D012DC03
:10380000302832D008DC20285ED02D282DD02E285C
:1038100055D02F2851D157E0312826D0322824D036
:1038200033284AD121E0B0F5187F6BD006DC35286B
:103830001BD0362819D037287AD116E0A0F50070B1
:1038400061385FD001285DD0022871D15AE011980B
:1038500098B37088010703D0C118090700D1A41CD0
:10386000C0F3031004EB40045FE07088474903F0A5
:103870000F0231F81000904081B20098B0F800803B
:10388000180700D12080208800E053E0DDF844C014
:1038900008EA0108BCF1000F03D040EA08002080CC
:1038A00005E028FA02F848EA0008A4F80080B07899
:1038B0001844000739D1A41C37E039E0FFE71807A6
:1038C00022D10098008807E018071DD100980088D1
:1038D00024F8020B0098408824F8020B25E0180712
:1038E00012D10098008824F8020B0098408824F830
:1038F000020B0098808824F8040B0098C08824F8F4
:10390000020C12E0180701D00520BCE6708800996F
:10391000C01DC2082046FCF7B7FD7088010904EB02
:103920004104000701D0207820804FF001081DE0FD
:103930001820A8E60020190700D1218071880A0705
:1039400004D01944090701D124F8021F002103E023
:10395000401C24F8021FC0B2B278C2F303128242A4
:10396000F6D8307940070BD01A2001906D1CADB20B
:103970005D457FF6EEAEB8F1000F03D0002082E681
:103980000620F2E701987EE6BF030020F25D000802
:103990002DE9FF4F0C460F4699898FB00646C1F3BB
:1039A000032AC9B206910020A6F5B0519846DDF869
:1039B000709025460A90A6F5D053A1F5C26B0291EE
:1039C000BAF1070F14D0D8F81800007810F0FF00F3
:1039D0000ED1BBF11F0F0AD9029A4FF400718A422F
:1039E00005D38B4203D3A6F57041303900D1069838
:1039F0001D9959B1BAF1070F7ED00FB1054618E0F5
:103A0000119909B199F80000054628E0874203D9C9
:103A1000112013B0BDE8F08F39464046FFF7CAFCCD
:103A2000E4498088097801EA900111F00E0F23D053
:103A3000AFB1BBF11F0F0AD902984FF40071884251
:103A400005D38B4203D3A6F57040303807D1D8F8A0
:103A50001800007810F0FF0F01D001200A90D8F86C
:103A600020C0BCF1000F10D01D9800904B46394685
:103A70003046119AE047CCE710F0380F01D01A20F9
:103A8000C7E70028B8D00720C3E70020029007202E
:103A90000C9011980028BCD083E100BFD8F8180022
:103AA0000090E1B24046FFF785FC0590E0B2414648
:103AB000FFF78FFC864605980179BE48007800EA3A
:103AC000910010F00E0F72D02CB100984FEA1E1129
:103AD00000EB41000090BC4204D01D98002867D044
:103AE000BC4265D37CB9BAF1070F0CD0B9F800001D
:103AF000069AC1B28A4200E00FE101D2132088E7A2
:103B000000990880E8E005980088B0F5E06F0ED3D2
:103B100005994988082902D82F3188B207E0102971
:103B200002D0202902D002E0062000E007201F2852
:103B30007ED012DC77D2DFE800F03C4C4C7BD24CDC
:103B40007BD2D23939397676767676F2767676F217
:103B50007676767676F276764C00342839D012DC9A
:103B6000302836D008DC202805D02D2831D02E284A
:103B70005ED02F2857D1B2E031282AD0322828D061
:103B8000332850D125E0B0F5187F0FD006DC35285A
:103B90001FD036281DD0372845D11AE0A0F5007077
:103BA000613803D0012801D002283CD1CDE0E1E00A
:103BB000F5E01D98002836D005984088010705D00B
:103BC00000EB0E01090701D109F10209C0F303114D
:103BD000CBE005980EF00F03DDF874C041887648FD
:103BE00030F8111001FA03F082B200980088904377
:103BF000BCF1000F04D0B9F800101140014308E0F7
:103C0000B9F8002032EA010C30D10A409A40024350
:103C100091B2009801800598817801EB0E000007B1
:103C20005AD002E004E0A3E0814601200290B6E011
:103C30005FEA0E7071D1B9F8000001900A9820B1C6
:103C400000980188019881425AD1BBF11F0F0FD80B
:103C500001984FF40071A0F5B050884208D3019844
:103C6000A0F5D050884203D3019808B11220D0E6C5
:103C7000A6F5E050323801D0401E2AD1012C02D0E6
:103C8000082C10D025E0009801880198814206D0C8
:103C900001463046FDF700FB0C900028E7D147496C
:103CA0000120087015E0464A0020464BC2E9043066
:103CB00002F144015060C1E904304860019B9B0758
:103CC00007D55085108582F840004885088581F821
:103CD0004000DDE90001018009F10200A4E75FEA8C
:103CE0000E7035D10A9868B100980188B9F80000C3
:103CF000814205D100984188B9F80200814201D083
:103D00001C2086E60098B9F8001001800098B9F8E8
:103D10000210418009F1040086E719E0FFE75FEA3D
:103D20000E7015D10098B9F8001001800098B9F80C
:103D3000021041800098B9F8041081800098B9F809
:103D40000610C18009F108006EE75FEA0E7001D02D
:103D500005205EE6059849464088C01DC2080098C7
:103D6000FCF792FB05984088010909EB41005BE7ED
:103D700018204EE644B105984088010709D000EBB1
:103D80000E01090703D004E009F1020004E009F183
:103D90000209010909EB4100814618200C90641CBE
:103DA000A4B2AC427FF67AAE029808B1002030E6A9
:103DB0000C982EE6BF030020F25D0008440A0020A4
:103DC000E014002020A10700024900200968486291
:103DD00070470000E80A002002480068406A80B28C
:103DE00070470000E80A00202DE9F0412C480078D7
:103DF000002851D0FEF70EFE2A4D2B4F2B4C2C4E97
:103E0000400524D52B48007828B12B48007810B104
:103E10002A4900200880208D08B1401E20852849AD
:103E20003085012008702748007810B100F082F832
:103E30000DE0022229882448FEF786FD288839886B
:103E400002220844801E81B21F48FEF77DFD608873
:103E5000012801D1FDF73EFB1C48007830B1708885
:103E6000012801D0222801D100F032F8FEF7D2FD5E
:103E7000400511D5608D0222401C6085708529881F
:103E80001148FEF761FD2888398802220844801E07
:103E900081B20D48FEF758FDBDE8F041FDF7FCB8D2
:103EA000B8030020E4030020DE030020E01400201B
:103EB00024150020B6030020B5030020C403002011
:103EC000B3030020B1030020EA030020B203002066
:103ED00070B50025FEF79EFD114E124C307FC007D5
:103EE00002D1207FC00703D00020FDF7F9FC054672
:103EF0000D48FCF7F7FE0D4802880D4801880A4876
:103F0000FEF760FD307FC00702D1207FC00706D0DA
:103F10002846FDF7E5FC6169814200D2606170BD11
:103F2000E01400202415002078100020DC0300207D
:103F3000E603002070B5164C0025164E207FC00702
:103F400002D1307FC0070BD00020FDF7C9FC124919
:103F500005464861012048710020C861FEF798FDC0
:103F60000E4802880E4801880E48FEF7EDFC0D4809
:103F7000FCF7BAFE207FC00702D1307FC00706D011
:103F80002846FDF7ADFC6169814200D2606170BDD9
:103F9000E01400202415002088030020DE03002008
:103FA000E4030020780C0020704710B54B888C8803
:103FB0005A1C92B2944200D100220C88944201D142
:103FC000072010BD01EB830398604A80002010BDDC
:103FD00070B51D461446049AA0F58053F83B01D0F5
:103FE0000B2070BD0AB1052070BD09B1112070BD54
:103FF000082C01D90F2070BDFDF728F8224603498F
:104000002846FCF741FA002070BD0000280000207F
:1040100038B504464FF40175022229466846FEF77A
:1040200073FCBDF800002040ADF80000082001F04E
:10403000FCF9022229466846FEF7A4FC082001F09C
:1040400005FA38BD0E4910B50A68520603D40A684D
:1040500042F040020A600B4B1A4601E0521E0CD09F
:104060008C68A407FAD5C86001E05B1E05D088689B
:10407000C007FAD0C868C0B210BD002010BD000053
:1040800000300140A08601002DE9F04F87B00446C2
:10409000018900880090B148002601F0FF090078EE
:1040A00009F0E00BB046B246354618B1092007B01A
:1040B000BDE8F08F5FEA0B0006D0202805D040282D
:1040C00003D0BBF1600F7CD12AE160894FF6FF720B
:1040D00002EA002202EB112189B2000ACDE90201B5
:1040E0000846FFF70DFA049000286BD004980027CB
:1040F0000197007B0299814201D9112622E1DDE975
:10410000030209F01003FFF707FA824604F10C00DE
:10411000011D55460591BBF1400F05D009F0020184
:10412000BBF1200F19D03DE000990A2933D129466F
:10413000BAF1040F07D8BAF1000F04D000210180B2
:10414000074641802EE086480588103D8D4202D208
:104150000120019026E0059F24E041B100990A2941
:1041600019D1C9F38101C1F1040507461AE0A089FC
:10417000E18900EB01457B4805F11001008881428F
:1041800004D90099801F814205D106E0009805F10D
:104190000A01884201D0082089E70098059F0A3863
:1041A0008542D5D85FEAC96004D502984FF001086E
:1041B000012834D8019870B3684F012078713872A3
:1041C00001E0BEE0AAE087F80680039838820298F2
:1041D000F87104983863BBF1400F19D0FD62386A5A
:1041E00018B1FCF794F800203862F86A401C20F0FF
:1041F0000100FCF75DF8386270B1BBF1400F12D0DE
:10420000009A05990A3A1546FCF73EF900201DE090
:10421000C7F82CA0E3E738E0B8F1000F01D005267D
:1042200090E004268EE0CDE90008DDE90210524658
:10423000049BFFF701FA060002D0FF2E09D006E02A
:104240002A46396A0598FCF71FF960203871BD626B
:1042500078E00420787087F802800298F87003985C
:104260007881C7F814A0386AB861049809F0F001A1
:10427000C069F861012038707C62208920F0FF005D
:10428000084320816020387165E0BAF1000F06D143
:104290003248039901820299C17104990163CDE901
:1042A0000078049BBBF1400F08D0DDE902102A46DC
:1042B000FFF76EFB0646FF2818D043E0DDE9021049
:1042C0005246FFF7B9F90646FF283BD123480321A0
:1042D000417080F802800299C17003994181C0E960
:1042E00005A70499C969C16101210DE01B4801219D
:1042F000417080F80280029AC270039A4281C0E93C
:104300000557049A126AC26101704462208909F05B
:10431000F00120F0FF00084320811CE0082611E096
:104320000E4909798B450CD1BBF1000F204605D011
:1043300000F00EFB0646FF2804D10CE000F0B8F9AF
:10434000F8E70326CDE900A4ABB209F01002594604
:10435000304600F09FFA0020A9E60000540A002031
:1043600000040020020400202DE9F04F89B000264F
:1043700004468DF81460007A8D4F00F07F0502200E
:1043800006902088DFF82C924FF48058052D05D038
:10439000082806D2062009B0BDE8F08F0A28F9D314
:1043A0006AE0012D03D0032D66D00320D7E0A08959
:1043B000052860D8C5B20E2221467F48FCF764F874
:1043C000681E00F0FF0A0ED2A9F80C6000252846EE
:1043D000FFF767F804EB45016D1CEDB2C881052DB0
:1043E000F5D3122032E0B9F80C004D4648B13988B7
:1043F00004F10C030C398AB2E989ADF80410401EAF
:1044000014E05046FFF74DF8ADF80480398804F108
:104410000E030E398AB2B2EB400F09D2911C89B259
:10442000C2EB40000844401E90FBF1F0A88100E080
:10443000AE8105A8009001A95046FFF7AFF8BDF87E
:104440000410E9813988081A801F80B220809DF805
:104450001400002874D1208920F07F0040F0020071
:104460002081B9F80C106181002904D040F080004F
:1044700020818220069085E0A089ADF804004045A7
:1044800001D205206BE0FFF73BF85FEA000A7CD021
:10449000032D1ED094F80E805046FFF72FF8807839
:1044A000414680455AD85046FEF784FF0168216195
:1044B0008088A082A07BE0815046FFF71FF84088EB
:1044C00004F1160BC0F30320082820D009281ED0C1
:1044D00020E0FFF713F80068C4F80E0000235246EE
:1044E0001946BDF80400FEF71BFF39880C3080B276
:1044F000891F884201DD0C202CE004F11203524692
:104500000021BDF80400FEF70BFF0C3021E0B8F1EC
:10451000000F0ED0002352464146BDF80400FEF7BE
:10452000FFFE3988103080B2891F884209DD1020D3
:1045300010E00D2221495846FBF7A6FF1C2009E098
:104540000FE05B4652464146BDF80400FEF7E8FE28
:10455000103080B29DF81410F9B102E011208DF8EE
:1045600014000A202080208920F07F0040F00700FE
:104570002081668112489DF8141050F82100E060F7
:10458000A9F80C602046069900E00FE0FEF7E8FB72
:1045900008B10C4804600020FDE666812080208977
:1045A0006D1C20F07F0028432081EBE70820D6E730
:1045B00000040020540A002068150020450A00204D
:1045C000145E0008AC0300202DE9FC47204C814616
:1045D0000026207813460D46002837D0D4F824C092
:1045E0009CF8080000F0E00800F01007B8F1400F58
:1045F00021D118480088103886B22046406A103011
:10460000AE420DD2012161712172A7716021E56274
:104610002171324619462362FBF736FFA6620AE093
:10462000691E032901D80CF10C00834203D02A46ED
:104630001946FBF729FF00202070606A3346CDE958
:1046400000503A464146484600F024F9BDE8FC8750
:10465000540A00200004002070B5114D0024287871
:1046600001280CD1686A50B10E490968884206D009
:104670000D490968884202D0FBF749FE6C626C70F4
:10468000AC706C81EC706C61AC61EC612C70286A70
:1046900010B1FBF73CFE2C62AC622C7170BD0000C7
:1046A000540A002010040020140400207047000069
:1046B0002DE9FC47DFF8D49106460389002799F8D5
:1046C000080003F010013D46814201D10127B3E00B
:1046D0006F48008889F808100938D9F8201082B28C
:1046E000484600297CD0D0E90A4CA046ACEB040433
:1046F0005FEAC37C4FF0010A11D0944213D832888C
:10470000D21E944205D8C3F3420CCCF1070CA44549
:1047100003D0072C07D9944205D1457106E080F8F3
:1047200005A0944201D80E2786E0144657485FEA58
:10473000C872806A20F0010018D00A5C0A52B6F8EC
:1047400008C0D9F828000CF47F4C20F0010042EAA0
:104750000C020A52D9F82800621E20F00100084419
:1047600006F10A01801CFBF78FFE1BE0B27A1B0AE0
:1047700043EA02230B520120621CD9F828C00EE044
:1047800006EB4003B3F808809B7A4FEA182848EA02
:10479000032300EB5C08401C21F8183080B2B0EB1A
:1047A000520FEDD399F80500C846E8BB98F80620EB
:1047B000D8F82010CDE900124046D0E90B2398F834
:1047C0000710B8F81000FFF7E3F80746FF2808D0F5
:1047D000D8F82000FBF79BFDC8F8205027B32BE04A
:1047E00029E0022088F8010098F8060088F8020005
:1047F00098F8070088F80300B8F81000A8F80A0035
:10480000D8F82C00C8F81400D8F82000C8F8180010
:10481000D8F830004246006AC8F81C0088F800A0AA
:10482000C8F82460557100E014E01571FF20C8F845
:104830002850BDE8FC87032789F8055089F8045003
:10484000D9F820004C4610B1FBF761FD2562A56246
:104850003846EEE70A203080F08820F4704040F4BB
:104860004050F08098F80810404609B1302100E02F
:10487000202131814179012903D0856288F80450D3
:10488000E6E7816A2144C8F82810E1E7540A0020CD
:10489000020400202DE9F0410746DDE90604602905
:1048A00004D019B1258905F47F452581E5880A26BC
:1048B00025F47045AFB1268045F40050E080208992
:1048C00040F080002081204850F82700E06002215D
:1048D0002046FEF745FA002801D01C480460BDE8D8
:1048E000F08145F44055E580402908D031B3602976
:1048F000EDD02680208940F060002081E7E7411E4E
:1049000003290BD826802189C0B21143C0F10400CD
:10491000432242EA800001432181D8E7834202D248
:104920000A33238002E000F10A012180A081000CFB
:10493000E081208942F041010843DEE7268020899A
:1049400040F02000D9E70000145E0008AC0300200E
:104950002DE9F0470446007A002700F01001404896
:10496000027A914201D1012771E03E4A0026128865
:104970000172093A95B2826AC16A53198B4202D90F
:104980008D1A467101E0012141713549237A238155
:104990008146086A896A5FEAC27821F0010C0ED06C
:1049A00030F80C106A1E01F47F410B430CEB000140
:1049B000238104F10A00891CFBF766FD1AE010F858
:1049C0000CC0002143EA0C23520823810FE08B180E
:1049D00030F813C000EB43034FEA1C2C9B784CEAE1
:1049E000032304EB410C491CACF80A3089B2B1EB4B
:1049F000550FECD3E088C84620F4704040F4405096
:104A0000E080208920F0FF00208199F8051099F8B6
:104A1000082009B942F0010210432081072D08D275
:104A20000A2020802089C5F1070240EA4200208147
:104A300001E0E81C208001290CD0D8F82000FBF709
:104A400066FCC8F82060C8F8286088F8046038461A
:104A5000BDE8F087D8F828002844C9F82800F6E710
:104A6000540A00200004002038B504464FF40175B4
:104A7000022229466846FDF747FFBDF800002043A3
:104A8000ADF80000082000F0D0FC0222294668465C
:104A9000FDF778FF082000F0D9FC38BDF8B5194CB7
:104AA0000646ADF80010E07B0D46B04200D0E6733C
:104AB000A5F57F40FF3805D002224FF49A71684671
:104AC000FDF760FFE07BADF8000002224FF4987123
:104AD0006846FDF757FF0DB1F00601D400200DE048
:104AE0002D2D0AD01A2D08D0322D06D0A07A0128FB
:104AF00003D01B2D04D0402000E041206073F8BD9E
:104B00004220FBE7B00300202DE9F04F87B04FF0C3
:104B10000009CDF80090EE48EE4AADF80890ADF8E7
:104B20000490CDF8149080899489DFF8AC83032633
:104B30000440A8F838904F46354688F80390022084
:104B4000FCF7C0FE0288A8F834200079800700D561
:104B500001250320FCF7B6FE0288A8F8362000796C
:104B60004146800700D50126DC48B1F82C80DFF8EB
:104B700070B308FB06260088864204DDBBF80030CF
:104B8000034493420AD8D74BDFF85CA31B889E42AC
:104B900008DDBAF800601E44964203D91E2007B013
:104BA000BDE8F08F8E8EB1F82EC00CFB05658542F6
:104BB00004DDBBF800C06044B0420DD89D4204DD66
:104BC000BAF800001844B04206D88A46954205DD7E
:104BD00002EB0800B04201D91D20E0E702224FF4A9
:104BE000186103A8FDF790FE04224FF41A6168468D
:104BF000FDF78AFE042240F6A41105A8FDF784FE05
:104C0000B34BB44DBDF80C2058886988DDF814C04A
:104C100012F4106F29D012F4C06F41D0960501D460
:104C200056053DD43CB1660701D4960538D4260715
:104C300001D4560534D4D3F81080009E3EB14645C9
:104C400003D3DFF8A882464501D93620A7E75FEAFB
:104C500082580AD55FEA425807D5BCF1000F04D04C
:104C6000B44502D30127E4061AD5A14C2478CCB16F
:104C700012F4106F0CD0540503D4032810D003296C
:104C80000ED0920531D402280AD0022908D02CE097
:104C9000022805D0032803D0022901D003292DD1F1
:104CA00030207CE7BAF82E0012F4106F03D0A0B1C8
:104CB00097B1032011E028B1BAF82C100120E9B116
:104CC00022211BE0BAF82C0000284FF0000001D090
:104CD000012113E0002111E00220BAF82C1021B1CB
:104CE000510501D5032100E00221032801D002284B
:104CF00004D1009A5A625A606A626A609AF809207E
:104D000054460AB948B141B150EA01024FF4806BF0
:104D10004FF0010603D0267203E029203FE7227AF4
:104D20004AB1E28D12B1A4F838B004E0A28D12B1FC
:104D30004FF400622287022805D0032803D00229FD
:104D400001D0032904D16671E28D0AB9A4F8389024
:104D500058806980A4F82490A4F82690A4F81690AE
:104D60009A46C846A4F81490EFB100980CEB0001E5
:104D700084450BD3B1FBF0F2B1FBF0F392B200FB30
:104D80001313E2821BB9521CE28200E0E682B1FBFF
:104D9000F0F2B1FBF0F392B200FB1310A28440B129
:104DA000521CA28405E0022800D1E682032900D02B
:104DB000A684504802224FF48461A0F8008001A824
:104DC000FDF7A2FDBDF80400E18D09B300B3022296
:104DD000594602A8FDF798FDBDF8080080B1BDF85E
:104DE0000410801C484346F2A7110844491CB0FB3C
:104DF000F1F00004000C608606D0207930B10AE0A2
:104E0000ADF80480A4F83280207920B11F20C6E6D6
:104E1000ADF80880F6E7207A28B1E08D18B1208F30
:104E200040F480602087A4F81E80A4F81C80A4F8B9
:104E30002080A4F8228084F8068084F80780A4F8F3
:104E40001880A5F82880A5F82A8085F84080AAF85F
:104E50002880AAF82A808AF84080BDF80C209005A6
:104E600027D5254D00980A2360B1B0FBF5F105293F
:104E700001D2E68306E04FF6FF7707EA4101B1FB76
:104E8000F3F1E183510514D50599814201D2E08BFC
:104E90000EE00844B0FBF5F0052801D2668403E07B
:104EA0004000B0FBF3F06084608CE18B00EB5100BC
:104EB0006084E08D10B10220FCF7D8FCA08D10B109
:104EC0000320FCF7D3FCFFF703F8002067E600009F
:104ED000E014002024150020B00300200604002068
:104EE000000400200404002002040020000050C33D
:104EF000440A0020520A0020A08601000A4AFF202E
:104F0000917A09B1108D70475379002113B1C823EC
:104F100013835183054A118582F84010044A118594
:104F200082F8401070470000B0030020E014002019
:104F30002415002010B5164CE08D10B10220FCF7AE
:104F4000B0FAA08D10B10320FCF7ABFA4FF2F330AA
:104F5000FFF75EF80020E07020726071A071E071D0
:104F6000E082A082E083A083208460840949A08439
:104F7000E0840885488581F8400007490885488510
:104F800081F84000208305492071A070087010BD91
:104F9000B0030020E014002024150020440A002063
:104FA00002480021C170417070470000B00300202A
:104FB0002DE9F05F3048002505803048007878B34F
:104FC000DFF8BCA0DFF8BC809AF8000020B1B8F888
:104FD0000010491CA8F800102B490F8877B32B4C00
:104FE0008B462B492B4A208809881688DFF8A89021
:104FF000B84216D9294A138941B1DFF8A4C0BCF8D8
:1050000028209A4202D8D21CACF828204EB1D1B93F
:10501000B9F82810994206D8C91CA9F8281002E04E
:1050200026E081B97EB1FDF7F5FC000507D42088A4
:10503000BBF80010884208D8401C208005E025807D
:10504000A9F8285001E0B842F6D9FCF743FA9AF8DB
:10505000000068B1134E308850B1B8F800104446D3
:10506000884205D1FEF734FF3088012800D1258021
:10507000BDE8F05FFCF710B8CC030020B5030020BA
:10508000B2030020D6030020C6030020C403002082
:10509000DE030020DC03002024150020380A002055
:1050A000E0140020D4030020FCF7CABD30B593B053
:1050B00030216846FBF75FFA14210CA8FBF75BFA76
:1050C0001E480025016841F080510160006800F031
:1050D000805011901A48016841F4804101600068D5
:1050E000022400F4804011900120009000040190FF
:1050F0008001CDE906400C2008904FF4A870CDE95E
:10510000090404200B906846FCF702FF08B172B650
:10511000FEE70CA90F2081E831004FF4A0500F905A
:105120004FF48050109005210CA8FCF725FE0028B4
:1051300001D072B6FEE713B030BD00004038024027
:10514000007000400248016841F47001016070473E
:1051500088ED00E0F0B50268294C2A4D2A4E2B4F0D
:105160002B4B4FF0804CA04209D0604507D0A8429D
:1051700005D0B04203D0B84201D0984204D122F009
:10518000700E4A6842EA0E02A0421BD0604519D058
:10519000A84217D0B04215D0B84213D0984211D0CF
:1051A0001C4DA8420ED01C4DA8420BD01B4DA8424E
:1051B00008D01B4DA84205D01A4DA84202D01A4D66
:1051C000A84203D122F44075CA682A434D6922F0EF
:1051D00080022A4302608A68C2620A688262A04230
:1051E00001D0984201D1096901630121416101693E
:1051F000C90703D0016921F001010161F0BD000080
:10520000000001400004004000080040000C004085
:1052100000040140004001400044014000480140BA
:1052200000180040001C00400020004010B58468B9
:1052300042EA032224F47F440A432243826010BDE1
:10524000826822F070020A4342F0070181607047D1
:1052500010B5036A046A24F001040462846924F02E
:10526000F00444EA021423F00A020A438461026251
:1052700010BD10B5036A046A24F010040462846946
:1052800023F0A00324F4704444EA023243EA0111FB
:105290008261016210BD10B5806B0021C185FDF7F0
:1052A000C8F910BD01680C3151E8002F22F490724A
:1052B00041E80023002BF5D10168143151E8002F9B
:1052C00022F0010241E80023002BF5D1016B0129F6
:1052D00009D101680C3151E8002F22F0100241E899
:1052E0000023002BF5D1202180F84210002101631A
:1052F000704708B590F84210222901D0022008BD5D
:1053000082684FF480539A4201D1016921B1816AC8
:105310009A421BD04AB10AE00268816A5268C2F31D
:1053200008020A80816A891C08E0026972B1026879
:10533000526802F07F020A70816A491C8162C18D45
:10534000491E0904090CC18503D01BE0026852689C
:10535000F1E70168CA6822F02002CA600168CA68E1
:1053600022F48072CA6001684A6922F001024A612F
:10537000202180F8421000214163026B012A03D0F2
:10538000FDF7A6FA002008BD016301680C3151E861
:10539000002F22F0100241E80023002BF5D1016814
:1053A0000A68D20602D50A6849680091818DFDF726
:1053B0003FF9E7E781628285C285002141642221AD
:1053C00080F84210016921B10168CA6842F4807214
:1053D000CA6001684A6942F001024A610068C16816
:1053E00041F02001C1600020704700000148FDF736
:1053F00021B90000300B002038B50024ADF8004082
:10540000022240F202516846FDF77EFABDF8000024
:105410000449020501D4C00401D50C7038BD012037
:10542000087038BDB0030020FEE700280DDB00F057
:105430001F02012191404009800000F1E020C0F8E6
:105440008011BFF34F8FBFF36F8F7047002809DBC8
:1054500000F01F02012191404009800000F1E0208E
:10546000C0F800117047002809DB00F01F0201217D
:1054700091404009800000F1E020C0F80011704721
:105480000907090E002804DB00F1E02080F8001471
:10549000704700F00F0000F1E02080F8141D704705
:1054A00010B5FCF7D5FBFFF701FEFDF77BFDFDF71F
:1054B0001BFEFDF73DFE6420FCF78EFAFDF7B6FA01
:1054C000FDF774FE064C012084F80000FDF7ACFEE9
:1054D00020780128FAD0FDF7D9FA002010BD00008D
:1054E000A80300204FF04070E1EE100A7047000062
:1054F000000000000000010203040607080905007F
:1055000008000700070020004700070020004700B0
:105510000700200047000700200047000700200088
:105520004700070020004700070020004700070051
:105530002000470007002000470007002000470028
:105540000700200047000700200047000700200058
:105550004700070020004700070020004700070021
:1055600020004700444F20556E6974320053756225
:10557000496E6465782030303100537562496E643D
:1055800065782030303200537562496E646578204A
:1055900030303300537562496E64657820303034A2
:1055A00000537562496E646578203030350053755C
:1055B00062496E6465782030303600537562496EFA
:1055C0006465782030303700537562496E646578C1
:1055D0002030303800537562496E64657820303071
:1055E0003900537562496E6465782030313000535C
:1055F0007562496E646578203031310053756249B7
:105600006E6465782030313200537562496E64658E
:10561000782030313300537562496E6465782030EC
:10562000313400537562496E64657820303135003D
:10563000537562496E6465782030313600FF000092
:1056400005000800070007002000470007002000B1
:105650004700070020004700070020004700070020
:1056600020004700070020004700070020004700F7
:105670000700200047000700200047000700200027
:1056800047000700200047000700200047000700F0
:1056900020004700070020004700070020004700C7
:1056A000070020004700444920556E6974310053BB
:1056B0007562496E646578203030310053756249F7
:1056C0006E6465782030303200537562496E6465CF
:1056D000782030303300537562496E64657820302D
:1056E000303400537562496E64657820303035007F
:1056F000537562496E6465782030303600537562A8
:10570000496E6465782030303700537562496E64A5
:1057100065782030303800537562496E64657820B2
:1057200030303900537562496E646578203031300D
:1057300000537562496E64657820303131005375CD
:1057400062496E6465782030313200537562496E6B
:105750006465782030313300537562496E64657832
:105760002030313400537562496E646578203031E1
:105770003500537562496E6465782030313600FF1C
:10578000000005000800070006001000070053791C
:105790006E634D616E61676572203220617373695B
:1057A000676E6D656E7400FF00000500080007005D
:1057B00006001000070053796E634D616E616765E6
:1057C0007220332061737369676E6D656E7400FFBC
:1057D000000005000800070001000100870001002B
:1057E000010087000100010087000100010087001F
:1057F0000100010087000100010087000100010095
:1058000087000100010087000100010087000100FE
:1058100001008700010001008700010001008700EE
:105820000100010087000100010087000100010064
:105830008700010001008700444920556E697431DA
:1058400000444920310044492032004449203300BB
:10585000444920340044492035004449203600445E
:105860004920370044492038004449203900444940
:105870002031300044492031310044492031320088
:105880004449203133004449203134004449203117
:105890003500444920313600FF00050008000700AC
:1058A000010001007F00010001007F0001000100F4
:1058B0007F00010001007F00010001007F00010066
:1058C00001007F00010001007F00010001007F0056
:1058D000010001007F00010001007F0001000100C4
:1058E0007F00010001007F00010001007F00010036
:1058F00001007F00010001007F00010001007F0026
:10590000444F20556E69743200444F203100444F9B
:10591000203200444F203300444F203400444F20B5
:105920003500444F203600444F203700444F203884
:1059300000444F203900444F20313000444F203183
:105940003100444F20313200444F20313300444F66
:1059500020313400444F20313500444F203136008F
:10596000FF00050008000700060010003F000600C9
:1059700010003F00060010000700060010003F0066
:10598000506172616D65746572732048616E6469FF
:105990006E6700536176652043757272656E742080
:1059A000506172616D657465727300526573746FD6
:1059B00072652044656661756C7420506172616D1A
:1059C000657465727300436865636B73756D00562B
:1059D000656E646F72205265736572766500FF00B4
:1059E00007002000070044657669636520747970BC
:1059F00065000500080007004572726F722072652D
:105A000067697374657200000900500007004465FF
:105A100076696365206E616D6500090020000700EE
:105A200048617264776172652076657273696F6E22
:105A30000000090020000700536F667477617265EB
:105A40002076657273696F6E00000500080007001C
:105A500007002000070007002000070007002000C3
:105A600007000700200007004964656E74697479B7
:105A70000056656E646F722049440050726F647501
:105A8000637420636F6465005265766973696F6E35
:105A90000053657269616C206E756D62657200FFFE
:105AA0000000050008000700070020003F00060076
:105AB00010003F004572726F722053657474696EF6
:105AC0006773004C6F63616C204572726F72205275
:105AD00065616374696F6E0053796E6320457272FD
