:020000040800F2
:10000000882E002071020008CF3B0008B933000899
:10001000CD3B0008C50F0008096100080000000082
:100020000000000000000000000000008D4F0008EC
:10003000BD1700080000000089480008095B00089F
:100040008B0200088B0200088B0200088B0200085C
:100050008B0200088B020008FD1B00088B020008C1
:10006000031C00088B0200088B0200088B020008AA
:100070008B0200088B0200088B0200088B0200082C
:100080008B0200088B0200088B0200088B0200081C
:100090008B0200088B0200088B0200088B0200080C
:1000A0008B0200088B0200088B0200088B020008FC
:1000B0008B0200088B0200088B0200088B020008EC
:1000C0008B0200088B0200088B0200088B020008DC
:1000D0008B0200088B0200088B0200088B020008CC
:1000E0008B0200088B0200088B0200088B020008BC
:1000F0008B0200088B0200088B0200088B020008AC
:100100008B0200088B0200088B0200088B0200089B
:100110008B0200088B0200088B0200088B0200088B
:100120008B0200088B0200088B0200088B0200087B
:100130008B0200088B0200088B0200088B0200086B
:100140008B0200088B0200088B0200088B0200085B
:100150008B0200088B0200088B020008CD600008AB
:100160008B0200088B0200088B0200088B0200083B
:100170008B0200088B0200088B02000800000000C0
:100180008B0200088B02000800F002F800F060F813
:100190000AA090E8000C82448344AAF10107DA45E2
:1001A00001D100F055F8AFF2090EBAE80F0013F0D4
:1001B000010F18BFFB1A43F00103184700B20000FB
:1001C00020B200000A444FF0000C10F8013B13F07D
:1001D000070408BF10F8014B1D1108BF10F8015BA0
:1001E000641E05D010F8016B641E01F8016BF9D193
:1001F00013F0080F1EBF10F8014BAD1C0C1B09D1EA
:100200006D1E58BF01F801CBFAD505E014F8016B5B
:1002100001F8016B6D1EF9D59142D6D370470000ED
:100220000023002400250026103A28BF78C1FBD8FF
:10023000520728BF30C148BF0B6070471FB505F09B
:10024000BFFF9DE8030000F009FA1FBD10B510BD07
:1002500000F060FA1146FFF7F1FF05F091FF00F0A2
:100260007EFA03B4FFF7F2FF03BC00F0ABFA000024
:100270000948804709480047FEE7FEE7FEE7FEE73A
:10028000FEE7FEE7FEE7FEE7FEE7FEE70448054976
:10029000054A064B70470000A55B0008890100086D
:1002A00088280020882E0020882A0020882A002004
:1002B00070B5064600F0B6F9056806F10B0020F0AF
:1002C0000704B4429CBF002070BD2B466A68BAB1D7
:1002D0001068A04210D304F1080188423CBF506866
:1002E000586007D35168101941601168091B0160FB
:1002F00058601460101D70BD13465268002AE7D183
:100300002146284600F096F90028DED170BD70B570
:100310000446051F00F086F90068002C14BF4468ED
:1003200070BD002C18BFAC423CBF20466468F8D3B7
:1003300001680A18AA4218BF456003D12A68054619
:100340001144016028684119A1421CBF6C6070BD56
:100350006168696021680844286070BD53EA020C36
:1003600000F069802DE9F04B4FF00006002B1FBF15
:10037000B3FA83F503FA05F424FA05F65E4012BFDA
:100380001643B2FA82F502FA05F4C5F120051EBF44
:1003900022FA05FC44EA0C04203556EA044C4FEAE4
:1003A000144418BF641C4FF000084FF0000990423D
:1003B00071EB030C39D3002919BFB1FA81F701FAA7
:1003C00007F6B0FA80F700FA07F6C7F120071EBF5C
:1003D00020FA07FC46EA0C062037B6FBF4FCA7EB34
:1003E0000507103F07F01F0BCBF120060CFA0BFBA3
:1003F0002CFA06F644BFB3460026202FA4BF5E4663
:100400004FF0000B5BEA060C08BF4FF0010B19EB35
:100410000B09ABFB027C48EB0608C01B06FB02CCB9
:100420000BFB03CC71EB0C01C1E70B4602464146C6
:100430004846BDE8F08B13B54FF000004FF00001C7
:10044000AFF30080BDE81C40704740EA010310B5DF
:100450009B070FD1042A0DD310C808C9121F9C4254
:10046000F8D020BA19BA884201D9012010BD4FF046
:10047000FF3010BD1AB1D30703D0521C07E0002093
:1004800010BD10F8013B11F8014B1B1B07D110F8F0
:10049000013B11F8014B1B1B01D1921EF1D11846F3
:1004A00010BD10B5431C02E010F8011B71B18107AB
:1004B000FAD14FF0013202C88C1A8C4314EAC211EF
:1004C000F9D0C01A0A0603D0C01E10BDC01A10BD54
:1004D0000A0401D0801E10BD0902FCD0401E10BDD0
:1004E000032A40F2308010F0030C00F0158011F860
:1004F000013BBCF1020F624498BF11F801CB00F838
:10050000013B38BF11F8013BA2F1040298BF00F88B
:1005100001CB38BF00F8013B11F0030300F0258048
:10052000083AC0F0088051F8043B083A51F804CB6F
:10053000A0E80810F5E7121D5CBF51F8043B40F835
:10054000043BAFF30080D20724BF11F8013B11F840
:1005500001CB48BF11F8012B24BF00F8013B00F884
:1005600001CB48BF00F8012B704710B5203AC0F00E
:100570000B80B1E81850203AA0E81850B1E81850A4
:10058000A0E81850BFF4F5AF5FEA027C24BFB1E8E1
:100590001850A0E8185044BF18C918C0BDE8104052
:1005A0005FEA827C24BF51F8043B40F8043B08BF5B
:1005B0007047D20728BF31F8023B48BF11F8012B22
:1005C00028BF20F8023B48BF00F8012B70474FF0CE
:1005D000000200B5134694469646203922BFA0E893
:1005E0000C50A0E80C50B1F12001BFF4F7AF09079F
:1005F00028BFA0E80C5048BF0CC05DF804EB890090
:1006000028BF40F8042B08BF704748BF20F8022BD2
:1006100011F0804F18BF00F8012B704770477047EA
:1006200070470000004870472C2800207047704732
:100630007047704738B504460A4600206946AFF354
:100640000080002808BF38BD02460099204600F00F
:100650003FF8012038BD012000F054B8F8B5AFF3E1
:100660000080054600200C46102000BF0646A81951
:10067000A0420DD9324669460020AFF30080070042
:1006800008BF00F03FF80098A04218BF0546C41903
:10069000FFF7C8FF05600746F01D20F00700461968
:1006A000284600F00AF8B44208BFF8BDA21B314644
:1006B0003868BDE8F84000F00BB800210160C0E9DF
:1006C0000110704710207047004870472428002010
:1006D000034640688C46002818BF88423CBF03464A
:1006E0004068F8D318681844884207D00CF103001A
:1006F00020F00700001D411A521A0146081D0A6029
:10070000FFF705BE10B500F035F8BDE8104000F069
:100710002CB870477546FFF7D7FFAE46050069460F
:10072000534620F00700854618B020B5FFF7AEFD10
:10073000BDE820404FF000064FF000074FF00008E2
:100740004FF0000B21F00701AC46ACE8C009ACE863
:10075000C009ACE8C009ACE8C0098D467047044642
:10076000AFF300802046FFF77CFD002801D000F0A9
:1007700029B8704710B5012805D0002103A000F06A
:1007800027F8012010BD09A1F8E70000534947529E
:10079000544D454D3A204F7574206F662068656151
:1007A00070206D656D6F7279000000003A20486519
:1007B0006170206D656D6F727920636F72727570F4
:1007C0007465640001491820ABBEFEE726000200F4
:1007D00070B505460C460A2000E06D1C00F011F8CB
:1007E00035B128780028F8D102E0641C00F009F83F
:1007F00014B120780028F8D1BDE870400A20AFF38A
:10080000008008B569468DF800000320ABBE08BD26
:100810002DE9F05FD34D8A460024611E6982C1062E
:1008200000F00F074FF00109284685F80B90C07BB8
:10083000A34604D54FF0010B20F0100005E0C106DF
:1008400001D5012F70D100F00F00E873000607EB0F
:100850001050C0B20026804644281DD009DC122862
:1008600011D022280FD024280FD0B8F1420F20D168
:1008700009E0482810D0822805D084280CD0B8F18F
:10088000880F16D108E0022007E0B6492E31881EF5
:1008900000F06EFA040004D1A87B00F081FD040092
:1008A00007D0E87B02286ED004286DD008286CD1D0
:1008B000EAE06E854046B8F1340F22D022DC2228CF
:1008C00031D010DC14281CD007DC112874D0122879
:1008D0003BD0B8F1130F70D131E0182811D0B8F126
:1008E000210F6AD1ABE028280BD005DC232808D0E3
:1008F000B8F1240F61D149E0312822D0B8F1320F8C
:100900005BD1BDE048285ED00FDC42287FD005DCFB
:1009100038286FD0B8F1410F4FD187E0432869D014
:10092000B8F1440F49D195E0F9E0A8F18100082819
:1009300043D2DFE800F07265A560A7A7A78F132454
:10094000BDE0894813240670B9E005F0C5FB28789E
:1009500020B102F00BFF040002D006E05124AEE00B
:10096000EE7200F07FFA040004D0FF2C6FD0E87A1A
:1009700020B105E07D4981F80090A0E000F078FA10
:1009800002F02CFF9BE087E082E071E004F0ECFDD8
:10099000040006D17348EE72383000F061FA0400AA
:1009A00004D0FF2C53D0E87A40B109E0288F04F03E
:1009B0000FFD85F8029082E04AE063E000F056FA0D
:1009C00004F0E8FF7BE004F0C9FF040004D1EE72FC
:1009D00000F04AFA040004D0FF2C38D0E87A18B1AD
:1009E00004E085F801906AE000F044FA05F008F8A8
:1009F00065E00CE044E000F03DFA05F001F80AE0A3
:100A000000F038FA044604F0FBFFEE7284BB00F0FD
:100A10002DFA04F0BFFFEE7251E000F02BFA04460D
:100A200004F0EEFFEE721CBB4FF0410800F01EFA1E
:100A3000044604F0AFFFEE72D4B94FF0210802F083
:100A4000CDFE00F015FA04464748067028E04BE05A
:100A500045480670BBF1000F02D0404600F04EF949
:100A6000E87B10F00C0F09D0E88D10B1022003E0F4
:100A700016E0A88D10B1032001F0C6F8FE241EE098
:100A800011241CE012241AE000F0F4F904F0B8FF7D
:100A900000F0ECF904F07EFF162C04D00220E8737D
:100AA000FF2C21D00BE002F099FE00F0E1F90020CC
:100AB00000F085FE012000F082FE85F80F90E87BB3
:100AC00000F00F01B9424AD054EA0A012ED038434F
:100AD00000072BD5687818B100F0CCF904F090FF2E
:100AE000E88DF0B102201FE085F80C904046A5F893
:100AF0002A80B8F1120F07D0132805D0242806D079
:100B0000482804D0C82004E04FF4FA6001E042F223
:100B1000283000B20A2190FBF1F1401A6882BDE84A
:100B2000F09FA88D10B1032000F049FE4CB1E87B86
:100B3000082801D10420E873C0B240F01000E87327
:100B400006E05FEA0A0002D0044647F01007EF73A0
:100B50002E73E87B2146BDE8F05F04F053BC2E7392
:100B60000021F8E74C040020D81C00209604002047
:100B70002DE9F0415F48017B00297CD000248046AC
:100B8000408A01272646D8B1B8F82A0045461228DF
:100B90005FD013285DD024286ED048286BD1E87A26
:100BA000002868D06879002867D0B5F918000028B7
:100BB00061DDB5F91A1088425DDC2E836E838FE00B
:100BC000B8F82A00C0F30715122806D0132804D05D
:100BD000242810D0482855D119E098F80B0008B9FE
:100BE00000F046F902F0FAFD0CE000BFB8F828402A
:100BF00048E0012446E098F80B0008B900F036F907
:100C000004F0C8FE98F80A000028F2D0EEE798F841
:100C1000050068B198F8060018B198F8030010B103
:100C200004E02D2408E0B8F82E0020B91A2403E0CF
:100C3000B8F82E0020B11B2498F80B0020B105E075
:100C4000082588F801701FE000F014F904F0D8FEC0
:100C500018E0E87A00284BD0EE7200F003F938B1C2
:100C6000FF2845D000F004F9BDE8F04102F0B6BD20
:100C70002148077002E03BE011E02CE095F82A00E3
:100C800000F00F05002D33D088F80C600CB145F052
:100C9000100521462846BDE8F04104F0B3BBE87AD0
:100CA000002825D01348EE72383000F0D9F838B15A
:100CB000FF281DD000F0DAF8BDE8F04104F06ABE6C
:100CC000AF700425E0E7FF2812D000F0D3F8BDE8AC
:100CD000F04104F095BEE88D10B1E878002807D007
:100CE000EE7200F0C1F80028EDD16F700825CBE757
:100CF000BDE8F0814C0400209604002070470000FD
:100D000004480078002804D003480068002800D078
:100D1000004770474D040020341D002070B5044684
:100D20004FF4FF7501462A460548FFF7D9FB2A46CE
:100D300004F5FF71BDE870400248FFF7D1BB000029
:100D4000C2180020C21A002070B54FF4FF75044687
:100D50002A460549FFF7C4FB2A4604F5FF70BDE8A3
:100D600070400249FFF7BCBBC2140020C21600202D
:100D70002DE9F35F4FF00008444647464546DFF84B
:100D8000D4B01FE00BEB4500408803F029F80600C3
:100D900023D0B069B0F8009000200FE000F1010A04
:100DA0000AF0FF00314602F084FF0109B06950F8F3
:100DB000110057FA80F087B21FFA8AF04845EDD348
:100DC0006D1CADB2BBF80010A942DBD8FF1D4FEA85
:100DD000D70AB8F1000F04D02EE04FF0000A25200A
:100DE00036E0DFF870B000250BF1060B20E000BF05
:100DF0000BEB4500408802F0F3FF060026D0B069F7
:100E00000788002010E000BF00F1010909F0FF0091
:100E1000314602F04EFFB169000951F8100054FA52
:100E200080F084B21FFA89F0B842EDD36D1CADB2E8
:100E3000BBF80010A942DBD80099E41DE008088047
:100E400001994046A1F800A0BDE8FC9F00242420A1
:100E50008046F1E7B4140020FFF776BFFFF75EBFCE
:100E60000020704700207047002070470020704726
:100E700000207047034810B5006800B1804700208B
:100E800010BD0000381D002030B5044600204FF68C
:100E9000FF7505E0204600F097F8002803D12834BC
:100EA0002189A942F6D130BD38B541EAC000ADF87C
:100EB000000000221021074801F0DEFA9DF8010031
:100EC00003F030FD044C20709DF8000003F02AFD73
:100ED000607038BD00000240201D00200B4910B595
:100EE0000868401C10D030220948FFF73EFB084834
:100EF00000F04AFB0649C96A884205D0BDE81040A7
:100F000030210348FFF763BB10BD0000000001085B
:100F1000F42700202DE9F04387B014216846FFF73D
:100F200056FB002430251C48059400F02DFB1A497F
:100F30002A461A4DC86229461748FFF786FADFF895
:100F4000609078B101F06CF90220049004200290C6
:100F500001200390A046009405A9684601F0CCF852
:100F600028B115E089F8004007B0BDE8F0830C27F0
:100F7000094E0024002356F824202946022001F0BF
:100F800011F928B9641C2D1DBC42F3D389F80080E7
:100F900001F0FEF8E8E70000F42700200000010857
:100FA000301D002002480069002800D0004770472B
:100FB000341D002002484069002800D000477047D7
:100FC000341D0020FEE7000030B500B3144B0022B2
:100FD000196849B10D890489A54215D902601968BB
:100FE00041600860186018E018604260026014E018
:100FF00007D90A68C0E900210A6802B15060086098
:101000000BE04B6833B119460B89A342F0D14FF086
:10101000010030BD4860C0E900124FF0000030BD53
:101020001800002030B5064D2C6803E02089646864
:1010300000F00EF9002CF9D10020286030BD00002E
:101040001800002010B50C4C206828B1002102F0D7
:10105000F7FA002020600BE08020FFF729F9040058
:1010600008D00E220549FFF73BFA204603F0ECFDBD
:10107000002010BD072010BD48040020E4270020F8
:101080000148006870470000180000200249002055
:10109000086002490880704748040020F41C0020C2
:1010A0002DE9F84F214F3C68002C3DD0DFF880A09F
:1010B000204D214E9AF800000090DFF880B0DFF854
:1010C00080802B689BF80010B8F800003268A047B9
:1010D0000746FF2828D0DFF86C90002499F800001C
:1010E00001280DD0022804D003280CD004280FD1E9
:1010F00009E01549086818B1FFF709F912480460BA
:101100000022114601E02A683168384603F0CCFE1F
:1011100089F80040A8F800408BF80040346003488C
:101120002C608AF800400460BDE8F88F041D0020A0
:10113000EA1C0020001D0020FC1C0020EB1C0020ED
:10114000F21C0020E91C0020081D0020084900B501
:101150000020086001F5FC70FFF796FE002805D11D
:1011600003485DF804EB1830FFF78EBE00BD0000A9
:101170001800002038B5284820230024038044802C
:1011800044F21F0144608181244AC0E9042484831D
:1011900004620485448580F84040214803804480EF
:1011A00044608181C0E90424848304620485448509
:1011B00080F840401B480470FFF7C8FF08B1FFF7F4
:1011C00031FF194804220821047018480470184897
:1011D00004801848047018480460184804601848CF
:1011E0000460184804606846009401F0EFFF00981E
:1011F0000107154801D5047007E0012101700422A0
:101200004FF41161114801F0E1FF10494FF47A6089
:10121000091F886038BD00005C27002020A107005E
:10122000A0270020D81C0020E91C0020EA1C002078
:10123000F21C0020EB1C0020FC1C0020001D0020E4
:10124000041D0020081D0020900400201C00002028
:101250000C4B196813E00A8982420FD1D1E90020B2
:1012600002B1506000B1026000220A604A601A6850
:1012700009891289914200D1186070474968002994
:10128000E9D1704718000020C188090B09290CD248
:10129000DFE801F00B09050909090909070003F056
:1012A00063BB03F0D1BC04207047052070470000E9
:1012B00038B51048104C4FF41161007890B1206996
:1012C00000900422684601F081FF61690098206166
:1012D0006268904204D2021C41F10101C4E9042178
:1012E000606004E004480822103001F06FFF002025
:1012F000A06038BD900400201800002010B50D48F3
:101300000D490122448D0989002314B9048D8C42B2
:1013100002D980F8402001E080F840300748448D31
:1013200014B9048D8C4202D980F8402010BD80F899
:10133000403010BD5C270020CC1C0020A0270020DE
:1013400038B5164C608EB0B10025ADF800500222C1
:101350004FF48861684601F039FFBDF80000C0070E
:1013600009D1E08D38B1607820B11B210420FFF74E
:101370004FFA38BDE57060790028FAD0607800280F
:10138000F7D0A07940B1E0790028F2D11A21BDE868
:1013900038400420FFF73CBA2C21F8E74C04002029
:1013A0002DE9F05F544D06460024288E42F6FF7169
:1013B000884202D21420BDE8F09F002000F05EFDBC
:1013C000837941880288DB071DD08088C0F38103C0
:1013D000012B18D1800716D5242914D3802912D8BF
:1013E0001F03BA420FD34FF440594A450BD2012094
:1013F00000F044FD837941880288DB0703D08088B0
:1014000010F00C0F01D0162474E08007FBD52429BE
:10141000F9D38029F7D8B8464245F4D34A45F2D2E9
:1014200000274FF0010A4FF4806B032E28D985F86E
:1014300009A0032000F022FD837941880288DB07A0
:101440001BD029B1AB8D994202D10BB1594501D9BD
:101450001E244FE0808810F00C0FF9D1E97B02299F
:1014600006D0E98E8A42F3D1800709D56F7207E072
:101470004245EDD34A45F7D3EAE7A88D0143E7D1CA
:10148000022E34D9022000F0F9FC837941880288C9
:10149000DB0720D011B3EB8D99421FD1F3B1594531
:1014A0001CD88088C0F38101012917D1E97B02296A
:1014B00007D0A98E8A4211D1410607D585F804A02C
:1014C00005E042450AD34A45F6D307E02F7180076D
:1014D0000DD56F720BE0E88D014308D01D2409E0A3
:1014E000304600F0CBFCC0882882761CF6B2A87B80
:1014F0008642F5D320465EE74C04002070B5204BB1
:101500001E4C03F1440241F63246751C24889B8927
:10151000928902291DD003DC01B301292CD104E0FA
:10152000032921D0222927D10DE0B04202D11CB3DA
:10153000980711E0A8421FD190071DD5E4B91148C2
:10154000008858B918E0A84216D1900714D52CB9D4
:1015500012E0B04204D1580700280DDA002070BD17
:10156000A84209D15007F7E7B04201D11807F3E7C5
:10157000A84201D11007EFE7122070BD7A040020C5
:101580005C270020780400200246002010B50B23C1
:101590004FEA000152F82140491C60409942F9D3BA
:1015A00010BD000010B5082004F0AFFD1C484179C3
:1015B00059B1817849B1C38B00215BB1828B9A42CA
:1015C00008D38171C27902B1C171BDE81040082011
:1015D00004F0ACBD828B9A4201D2521C828301235B
:1015E0008371448C24B1028CA242EAD2521C028440
:1015F0000C4A0D4C128D2489A24207D2C371B0F956
:1016000018100029E1DD418B491C07E0C279002A4E
:10161000DBD0C171B0F91820002AD6DD4183D4E7B0
:101620004C0400205C270020CC1C002001681823FB
:10163000CAB2103AB2FBF3F2054B6FF30901032A69
:101640009B5CC36500D9091D816508467047000091
:10165000CA61000810B5014600208B698A6A4FF004
:10166000C07453B1B3F5005F15D072B1012A0CD02C
:10167000022A0AD0032A09D104E01AB1012A06D0AD
:10168000022A03D1C96AC90100D5012010BDC96A67
:10169000A142FAD010BD002AF7D0012AF2D0022AC6
:1016A000F3D0032AF3D010BD30B50468256825F4C3
:1016B00080252560046863608368402B036803D03D
:1016C00099600068C26030BD9A600068C16030BD3A
:1016D00022482349244A408808812248408800F053
:1016E0000101C2F8B812C0F34001C2F8BC12C0F345
:1016F0008001C2F88012C0F3C001C2F884121B49F5
:10170000C0F30013C1F89C32C0F34013C1F8A032FB
:10171000C0F38013C1F8A432C0F3C013C1F8A832DB
:10172000C0F30023C1F8AC32C0F34023C1F8B0329B
:10173000C0F38023C1F8B432C0F3C023C1F8B8327B
:10174000C0F30033C1F8BC32C0F34031C2F8A0127C
:10175000C0F38030C2F8A40270470000241D0020AE
:10176000C0140020C0180020008041420000424206
:10177000104A0020C2F8B802C2F8BC02C2F88002C7
:10178000C2F884020C49C1F89C02C1F8A002C1F859
:10179000A402C1F8A802C1F8AC02C1F8B002C1F8B5
:1017A000B402C1F8B802C1F8BC02C2F8A002C2F883
:1017B000A40270470080414200004242704738B5A1
:1017C0004FF48071ADF8001040F6060101EBC00443
:1017D00002222146684601F037FD02222146684672
:1017E00001F0F4FCBDF80000C005F6D538BD0000DE
:1017F000084810B5007FC00703D10748007FC00725
:1018000004D00648008808B901F0B2FDBDE81040D8
:10181000FFF776BA5C270020A02700207A0400207A
:1018200070B51548007830B11448B0F9001000299F
:1018300001DD491E018000F009F9FFF7B3FE1048F1
:10184000114A01780F4831B1104D01680024691A1E
:1018500074EB040309D3D0E900130D4C091943F1CB
:101860000003C0E90013106802E04FF47A601060D2
:10187000401C106070BD0000580400205E04002071
:1018800090040020280000202000002040FBE1FF01
:1018900040420F00F8B50025ADF8005002220421A7
:1018A000684601F093FCBDF800001E4C000A0222BD
:1018B000A0730621684601F089FCBDF8000040F6DF
:1018C000FF7101EB8020208604F006FC002604E076
:1018D0003046FFF774FF761CF6B2A07B8642F7D342
:1018E00001F026FEE5722573E5706570A57025711F
:1018F0006586A583E583258465846571A572258544
:101900002587E585A5850120E073002103F07AFD98
:10191000658565732572FFF7B9FBBDE8F8400020C7
:1019200002F0E6BF4C0400202DE9FC410026012016
:10193000ADF80460ADF8000001F0F2FE394F40F65A
:101940000E08387820B102224146684601F03EFC7C
:1019500001F0B6FC0446344DC0070FD0287B68B9AF
:1019600002224FF4907101A801F030FCBDF8040090
:1019700024F01104C0B20021FEF74AFFE0060FD5A3
:10198000287B78B9E87BC1060ED420F0100101292C
:101990000AD024F0100400F00F000021FEF738FFF9
:1019A000287B08B1FFF7E4F83878002837D0BDF875
:1019B0000000C00705D1E87B002100F00F00FEF712
:1019C00027FFA00509D56E8718480222018816480E
:1019D0003A3001F039FC01F0E3FDBDF80000144C91
:1019E0008007207801D508B113E090B101F008FE1E
:1019F00020780028BDF8000002D040F4007001E01B
:101A000020F40070ADF8000002224146684601F063
:101A10001BFC01F055FCC00501D501F0CFFCBDE871
:101A2000FC810000960400204C040020A204002049
:101A3000970400200149086170470000341D002010
:101A40000149486170470000341D0020F0B54C4842
:101A50000124002102784B4812B1C4700171F0BD1D
:101A6000C288521C92B2C280322A05D0642A03D0A6
:101A7000962A01D0C82AF2D1434B1B7803F00F05F8
:101A8000424B092D06D2DFE805F0050507130905CD
:101A900005050C00197005E0402500E041251D708A
:101AA00000E01C701B789D0604D4C82A02D02FE0E9
:101AB0006025F4E70025DE0603D0DD06AD0E6D1EC1
:101AC000EDB28678B34206D01D0601D5C17000E0A4
:101AD000C47004811BE05E0616D5C67866B1002688
:101AE000C670A5B10689761CB6B20681AE420ED983
:101AF0001F0603D5C47002E00126F1E7C1706D1D19
:101B0000AE4204D3018102E003F00105C570837089
:101B10001F4B1B789D0601D4C82AA0D10025DE06E4
:101B200003D0DD06AD0E6D1EEDB24678B34206D091
:101B30001D0601D5017100E0047144811BE05E06C1
:101B400016D5067966B100260671A5B14689761CC0
:101B5000B6B24681AE420ED91F0603D5047102E02B
:101B60000126F1E701716D1DAE4204D3418102E00F
:101B700003F0010404714370C82ACED1C180F0BDC6
:101B80004D040020280400205B0400209104002064
:101B90005904002010B50E480C49002401600D497D
:101BA00041600D4981600D49C16003E06420641CFF
:101BB00000F090FA01F09CFB08B1032CF6DBFFF774
:101BC0008DF9BDE8104001F061BF0000A50F0008CD
:101BD000341D0020B50F0008490D00081D0D000838
:101BE00010B501F091FF04480078002803D0BDE84B
:101BF0001040FFF78FB910BD301D0020012000F00C
:101C000037BB042000F034BB38B50021ADF800101C
:101C100040F6060101EBC00402222146684601F0AD
:101C200013FB02222146684601F0D0FABDF80000FD
:101C3000C005F6D438BD72B6FEE70000002229B117
:101C400001291AD002291BD04FF440720E490B68AB
:101C500023F440730B600B6813430B600A6822F097
:101C6000F8020A600A68022303EBC00002430A601C
:101C7000086840F48030086070474FF48072E5E7F0
:101C80004FF40072E2E70000103C02401348016884
:101C900089050FD5016821F400710160016841F4E4
:101CA00000610160016821F400610160016841F494
:101CB00000710160016849050FD5016821F4806158
:101CC0000160016841F480510160016821F4805194
:101CD0000160016841F4806101607047003C02408E
:101CE00008490A6822F440720A600A6842F0040255
:101CF0000A600A684FF4803343EA002002430A6016
:101D000070470000103C0240064A136823F44073F9
:101D1000136013681360136843F0010313600170CC
:101D200070470000103C0240094910B50C6824F4CB
:101D300040740C600C6844F440740C600C6844F00F
:101D400001040C600260BFF36F8F436010BD0000A0
:101D5000103C0240074A136823F440731360136871
:101D600043F480731360136843F001031360018030
:101D700070470000103C0240074A136823F4407388
:101D80001360136843F400731360136843F0010396
:101D90001360016070470000103C0240174908685A
:101DA000C206174805D5C26942F01002C26110226E
:101DB0000A600A68920605D5C26942F00802C2614B
:101DC00020220A600A68520605D5C26942F0040260
:101DD000C26140220A600A68120605D5C26942F053
:101DE0000202C26180220A600A68920705D5C269B0
:101DF00042F02002C2610220086070470C3C0240A1
:101E0000D41E002070B5114904460020C86100F0BE
:101E100039FB06460E4D09E0601C07D024B100F0E6
:101E200031FB801BA04201D9032070BD2868C0038C
:101E3000F2D42868C00701D001202860286810F07B
:101E4000F200F2D0FFF7AAFF012070BDD41E0020DF
:101E50000C3C02400188428891420BD000EB810289
:101E6000491C926889B201808388994203D100217C
:101E7000018000E000221046704700004FF400612E
:101E800010B501EBC0010822024801F09FF901489A
:101E900010BD00008804002038B505460020044627
:101EA000009004224FF41161684601F0AFF90098E8
:101EB00028B1854201D8441B01E0E943441835B1FB
:101EC00004488069A04201D2241A00E00024204680
:101ED00038BD0000280400202DE9F0410446876D3C
:101EE00000F0D0FA064694F835000025022806D006
:101EF0008020606584F834500120BDE8F0812068BE
:101F0000016821F0160101602068416921F080011B
:101F10004161206C08B9A06C20B12068016821F0F3
:101F2000080101602068016821F0010101600CE0F6
:101F300000F0A8FA801B052807D92020606503203F
:101F400084F8350084F83450D7E720680068C0076B
:101F5000EED194F85C103F208840B860012084F8EE
:101F6000350084F834500020C7E790F83510022976
:101F700003D08021416501207047052180F835108C
:101F80000068016821F00101016000207047000035
:101F90002DE9F041044600F075FA06465CB10220D6
:101FA00084F83500002584F834502068016821F059
:101FB000010101600DE00120BDE8F08100F062FA4E
:101FC000801B052805D920206065032084F8350092
:101FD000F2E720680068C007F0D122681168204845
:101FE0000140D4E901031843D4E9033633431843CD
:101FF00063691843A3691843E3691843236A1843C4
:102000000843616A042903D1D4E90B131943084337
:10201000106020684069666A20F0070130460E4370
:10202000012704280CD1A06A0643E06A40B120468B
:10203000FFF710FB20B14020606584F83570BAE7E7
:10204000206846612046FFF7F1FA94F85C203F21B2
:1020500091408160656584F835700020ACE7000030
:102060003F8010F02DE9F0410446866D90F8340071
:10207000002501280DD0012084F8340094F8357033
:102080000020012F07D084F8340002252846BDE83F
:10209000F0810220FBE7022784F835706065204656
:1020A000FFF702FB94F85C103F208840B060206886
:1020B000016841F016010160206C20B120680168C0
:1020C00041F0080101602068016841F001010160F0
:1020D000DCE7000070B5044600F0D4F90546601C4A
:1020E00002D004480078044400F0CCF9401BA04220
:1020F000FAD370BD080000202DE9F04704462248BD
:102100000F46017E01290AD00121804601764CF25A
:1021100050394846FFF776FE020003D02FE0022038
:10212000BDE8F0874FF0FF3038602068174D012878
:1021300001D0A6681CE0207C6168FFF7D1FD48460D
:10214000FFF760FE0246286820F00400286014E0D3
:10215000217C3046FFF772FD4846FFF753FE020030
:10216000286820F0FA00286001D03E6005E0761C67
:10217000D4E902100844B042EAD8FFF787FD0021F5
:1021800088F818101046CBE7D41E0020103C0240FF
:102190000348016841F000410160002070470000E1
:1021A000103C02402DE9F0471B4E05461446307E98
:1021B0001F468946012808D0012030764CF250385D
:1021C0004046FFF71FFE18B114E00220BDE8F0877B
:1021D0009DB1012D16D0022D19D022463B4648460E
:1021E000FFF7A2FD4046FFF70DFE0C490A6822F0FA
:1021F00001020A6000213176E8E7E1B24846FFF7C4
:1022000083FDEFE7A1B24846FFF7A4FDEAE72146C8
:102210004846FFF7B1FDE5E7D41E0020103C024020
:10222000074900200A68002A09DA054A054B0C3ADA
:102230001360054B13600968002900DA012070471C
:10224000103C024023016745AB89EFCD10B5074C28
:10225000042806D0012803D103F0DAFB0120206016
:1022600010BD02F031FA0420F9E70000143C0140EF
:10227000044910B50A68024202D00860FFF7E6FF81
:1022800010BD0000143C01402DE9F84FDFF8BCA15F
:102290000022012503264FF00F090AF1040BAAF1D1
:1022A000040E00BF0B6805FA02F42340A34270D16C
:1022B0000F7907F00307012F01D0022F16D187688D
:1022C0004FEA420806FA08FC27EA0C07D1F80CC0CE
:1022D0000CFA08FC4CEA070CC0F808C04768A74392
:1022E0000C79C4F3001494403C4344600C79E443FB
:1022F000A4070AD0C4684FEA420C06FA0CF7BC43A4
:102300008F6807FA0CF72743C7600C7904F00304C1
:10231000022C12D1D40800EB840CDCF820405707C3
:10232000FF0E09FA07F824EA0804D1F8108008FA29
:1023300007F848EA0408CCF8208004684FEA420C09
:1023400006FA0CF7BC430F7907F0030707FA0CF7FE
:10235000274307604C6814F4403F70D03C4C27681A
:1023600047F480472760246822F0030704F4804480
:102370000094384C07EB040CDCF8084897074FEA48
:10238000177809FA08F7BC43334FB84202D1002747
:1023900024E054E0314FB84201D101271EE0304F14
:1023A000B84201D1022719E02E4FB84201D10327CC
:1023B00014E02D4FB84201D104270FE02B4FB84253
:1023C00001D105270AE02A4FB84201D1062705E0CE
:1023D000284FB84201D1072700E0082707FA08F77D
:1023E0002743CCF80878DAF800405746D1F804C003
:1023F0009C435FEACC2C00D51C433C60DBF80040DA
:102400005F46D1F804C09C435FEA8C2C00D51C4386
:102410003C60DEF800407746D1F804C09C435FEA98
:102420008C3C00D51C433C60084F083F3C68D1F809
:1024300004C09C435FEACC3C00D51C433C60521C6A
:10244000102AFFF42FAFBDE8F88F0000083C0140D0
:1024500044380240003001400000024000040240C5
:1024600000080240000C024000100240001402402C
:1024700000180240001C02400AB181617047090443
:10248000FBE700000148806870470000080000205A
:10249000024881680278114481607047080000207A
:1024A0000B4810B5016841F400710160016841F406
:1024B00080610160016841F480710160032000F0D7
:1024C00071F8032000F006F800F024F8002010BD99
:1024D000003C024070B50D4D04464FF47A712878E7
:1024E000B1FBF0F00A490968B1FBF0F000F0A0FB85
:1024F00048B9102C07D200222146501E00F032F8B5
:1025000000206C6070BD012070BD0000080000203C
:10251000140000200B4882B0016841F48041016042
:10252000006800F4804000900648001F016841F0F8
:1025300080510160006800F080500090052002B0DA
:1025400000F030B844380240002809DB00F01F02D8
:10255000012191404009800000F1E020C0F8001105
:1025600070470000F0B40E4B1B680C46C3F3022307
:10257000C3F10705042D00D90425191D072901D22F
:10258000002300E0DB1E012606FA05F1491E21406A
:1025900099409E40761E16403143F0BC03F0E0BDEA
:1025A0000CED00E0064900F0070208684FF6FF0353
:1025B000184040EA0220034A1043086070470000B8
:1025C0000CED00E00000FA052DE9F0470E4605008D
:1025D00065D0DFF81481D8F80000F7B200F00700EA
:1025E000B04207D288F80070D8F8000000F0070069
:1025F000B04254D128683D4C810712D5400703D51D
:10260000206840F4E05020602878000703D5206857
:1026100040F4604020602068A96820F0F000084382
:1026200020602878C0072DD0304968680839012813
:1026300012D0022813D0032811D009688907002975
:102640002DDA216821F0030101432160FFF71AFF11
:10265000814641F2883A0EE009688903EFE709688C
:102660008901ECE7FFF70EFFA0EB0901514502D904
:102670000320BDE8F0872068696800F00C00B0EB2B
:10268000810FEFD1D8F80010404601F00701B142A8
:1026900007D90770006800F00700B04201D00120A0
:1026A000E7E72878400705D52068E96820F4E0507E
:1026B000084320602878000706D52068296920F49F
:1026C000604040EAC100206000F038F82168084A04
:1026D000C1F30311515CC840064908600648006810
:1026E000FFF7F8FE0020C4E7003C02400838024033
:1026F000D2610008140000200C00002004480549A5
:1027000000680968044AC1F38221515CC8407047DF
:102710001400002008380240E2610008044805491E
:1027200000680968044AC1F34231515CC8407047EF
:102730001400002008380240E2610008154810B576
:10274000006810F00C02144813D01449042A0FD06A
:10275000082A0ED10F4C241F2268236802F03F0282
:102760005B0207D52068C0F38810A0FB010106E0DA
:10277000084610BD2168C1F38811A1FB00010023A8
:10278000FDF7ECFD2168C1F30141491C4900B0FB94
:10279000F1F010BD083802400024F400001BB7001F
:1027A0002DE9F84F04006ED02078DFF84C93C00775
:1027B000A9F104054AD009F104000168C1F38101BF
:1027C000012908D00068C0F3810002280AD1D9F895
:1027D0000000400206D52868800337D560680028CD
:1027E000E1D033E06068B0F5803F10D0B0F5A02FA5
:1027F000286810D020F480302860286820F48020D9
:1028000028606068A8B1FFF73DFE06460DE0286825
:1028100040F48030F4E740F480202860F7E700BF00
:10282000FFF730FE801B642873D828688003F7D533
:102830000CE0FFF727FE064605E000BFFFF722FE8B
:10284000801B6428F0D828688003F7D42078DFF84C
:10285000AC8280074FF0000A3ED5A748001D0168F2
:1028600011F00C0F08D00068C0F3810002280BD1D2
:10287000D9F80000400207D42868800716D5E06820
:10288000012800D112E033E1E068B8B10120C8F8B6
:102890000000FFF7F7FD064605E000BFFFF7F2FD79
:1028A000801B0228C0D828688007F7D528682169CE
:1028B00020F0F80040EAC10028600DE0C8F800A050
:1028C000FFF7E0FD064604E0FFF7DCFD801B022871
:1028D0001FD828688007F7D42078000722D5864FB4
:1028E00087486169703771B101210160FFF7CAFD46
:1028F000064604E0FFF7C6FD801B022809D83868A9
:102900008007F7D50EE0C0F800A0FFF7BBFD064634
:1029100005E082E0FFF7B6FD801B02287DD838680D
:102920008007F7D42078400768D5DFF8CCB10027BE
:102930000BF13C0BDBF80000C0000BD4DBF80010FF
:1029400041F08051CBF80010DBF80000012700F0C7
:10295000805000906B4E3068C00510D4306840F451
:1029600080703060FFF78EFD009005E0FFF78AFD74
:102970000099401A022850D83068C005F6D55E4E3E
:10298000A0686C3601280FD00528306810D020F0E0
:1029900001003060306820F004003060A068B8B1F9
:1029A000FFF770FD00900FE0306840F00100F4E7A1
:1029B00040F004003060F7E7FFF764FD0099411A2A
:1029C00041F28830814266D830688007F4D50EE045
:1029D000FFF758FD009007E0FFF754FD0099411AFA
:1029E00041F28830814256D830688007F4D42FB144
:1029F000DBF8001021F08051CBF80010A069C8B3BB
:102A00003D49091D0968C1F3810102294AD0022804
:102A1000504607D0C8F8600000E03CE0FFF732FD08
:102A200004463BE04746C8F86000FFF72BFD06462A
:102A300005E000BFFFF726FD801B02282BD8286881
:102A40008001F7D4D4E907010843A16A2E4A490856
:102A500002EB0141626A41EA8211084394F82C10AA
:102A600040EA0161C9F8001001203866FFF70AFD4D
:102A7000044606E03EE000BFFFF704FD001B02280D
:102A800009D828688001F7D534E000BFFFF7FAFCC9
:102A9000001B022802D90320BDE8F88F28688001B6
:102AA000F4D427E00128F7D0D9F80000E26900F457
:102AB000800191421CD1226A00F03F01914217D15E
:102AC00047F6C071626A0140B1EB821F10D1A26A61
:102AD0004FF0FF3300F4403103EB5202B1EB024FF1
:102AE00006D194F82C1000F07060B0EB016F01D0AB
:102AF0000120D1E70020CFE7043802400000474220
:102B0000800E4742007000400000FFFF70B50400D7
:102B100009D0606A002540B125616561A56294F81D
:102B2000510040B10CE0012070BD6068B0F5827FBB
:102B3000F4D0E561F2E784F85050204600F044F804
:102B4000022084F851002068016821F040010160F2
:102B5000A088218900F4827001F404410843A1890E
:102B600001F400610843217C01F002010843217D4A
:102B700001F001010843218B01F400710843217F1A
:102B800001F03801084394F8201001F08001084357
:102B9000218D01F40051084321680860A0690421D7
:102BA00001EA104094F8241001F010010843216854
:102BB00048602068C16921F40061C1616565012038
:102BC00084F85100002070BD10B586B00446142171
:102BD0006846FDF7FCFC13492068884220D1124862
:102BE0000021026842F480520260006800F48050C4
:102BF00005900D481438026842F001020260006836
:102C000000F001000590E02000900220CDE90101D4
:102C1000032003900520049069460448FFF734FB25
:102C200006B010BD003001404438024000000240B0
:102C300010B5401EB0F1807F01D3012010BD4FF0D0
:102C4000E02460610F21601703F08AFA0020A06180
:102C500007202061002010BD70B590F83C20012AAB
:102C600032D0012480F83C40022280F83D200368E5
:102C70005A689D6822F070060A6832435A60134B06
:102C800002689A4214D0B2F1804F11D0104B9A4290
:102C90000ED0104B9A420BD00F4B9A4208D00F4BDC
:102CA0009A4205D00E4B9A4202D00E4B9A4204D162
:102CB000496825F080031943916080F83D40002168
:102CC00080F83C10084670BD022070BD0000014035
:102CD0000004004000080040000C004000040140D7
:102CE000004001400018004010B5040003D094F8E3
:102CF0003D0010B107E0012010BD002084F83C0029
:102D0000204600F01FF8022084F83D00211D2068B5
:102D100002F050FF012084F8460084F83E0084F859
:102D20003F0084F8400084F8410084F8420084F8B1
:102D3000430084F8440084F8450084F83D000020F6
:102D400010BD000008B500680649884208D1064851
:102D5000016841F002010160006800F0020000908B
:102D600008BD0000000400404038024090F83D10CB
:102D7000012901D001207047022180F83D10006830
:102D80001149884214D0B0F1804F11D00F498842C8
:102D90000ED00F4988420BD00E49884208D00E4908
:102DA000884205D00D49884202D00D49884204D19D
:102DB000816801F00701062903D0016841F0010193
:102DC0000160002070470000000001400004004046
:102DD00000080040000C0040000401400040014099
:102DE0000018004070B5044690F83C00002501280A
:102DF00017D0012684F83C60022084F83D0020684A
:102E0000826822F0770222F47F42826008685028AC
:102E100038D00DDC20284FD005DC90B3102811D11C
:102E20004AE0022070BD302846D040280AD13BE05D
:102E300060282FD070280DD0B0F5805F03D0B0F59A
:102E4000005F12D0012584F83D60002084F83C002A
:102E5000284670BDCB68D1E90121206802F016FF39
:102E60002068816841F0770109E0CB68D1E9012150
:102E7000206802F00BFF2068816841F48041816086
:102E8000E1E719E0CA684968206802F011FF5021A3
:102E9000206806E0CA684968206802F01AFF6021CD
:102EA000206802F0FDFECEE7CA684968206802F09B
:102EB000FFFE40212068F4E7226801461046F0E753
:102EC00070477047F8B5016804460868CA684B69DE
:102ED00010F00F0F4FF000055AD003F0010602F476
:102EE0009077374365D0C10705D0D10503D5616C14
:102EF00041F001016164410705D5D90703D0616C38
:102F000041F002016164810705D5D90703D0616CE6
:102F100041F004016164010707D502F0200131434B
:102F200003D0616C41F008016164616C00293BD001
:102F3000800604D5900602D5204602F08FFF206857
:102F40004069616CC0F3801001F008010143204624
:102F50002BD002F04EFF20684069400621D5206842
:102F6000143050E8001F21F0400140E80012002A10
:102F7000F5D1E06BA8B172490165E06BFEF7F5FF92
:102F8000002811D0E06B016D01B0BDE8F0400847AA
:102F900083060ED593060CD52046BDE8F84002F016
:102FA0005DBF2046FFF78DFFF8BDFFF78AFF656420
:102FB000F8BD266B2023012E7ED1C6067CD5D60611
:102FC0007AD508684868009048694FF002064006C4
:102FD0004DD5E26B106840684FF480770004000C18
:102FE0003AD0A18D814237D9E085D069B8422DD041
:102FF00020680C3050E8001F21F4807140E8001276
:10300000002AF5D12068143050E8001F21F001019A
:1030100040E80012002AF5D12068143050E8001F63
:1030200021F0400140E80012002AF5D184F8423036
:10303000256320680C3050E8001F21F0100140E8A3
:103040000012002AF5D1E06BFEF746FF6663A08D03
:10305000E18D401A81B206E0A18D8142A8D1D069EC
:10306000B842A5D166632046FFF72AFFF8BDA08DC0
:10307000E18D401A81B2E08D0028F7D00029F5D00B
:1030800020680C3050E8002F22F4907240E80027AE
:10309000002FF5D12068143050E8002F22F00102F3
:1030A00040E80027002FF5D184F8423025632068DE
:1030B0000C3050E8002F00E006E022F0100240E85B
:1030C0000023002BF3D1CDE705062BD5150629D516
:1030D00094F841002128C9D1A068B0F5805F01D1E2
:1030E0002069B0B1206A411C2162216800784860E3
:1030F000E08C401E0004000CE084B7D12068C16859
:1031000021F08001C1602068C16841F04001C160C8
:10311000F8BD206A0088C0F308004860206A801C5F
:103120002062E5E74006F3D55006F1D5CA6820468F
:1031300022F04002CA6084F8413000F046F8F8BD41
:10314000F75C000870B5040004D094F84100002535
:1031500010B106E0012070BD84F84050204600F018
:1031600023F8242084F841002068C16821F400512C
:10317000C160204602F0D4FE2068016921F490412C
:1031800001612068416921F02A0141612068C1681C
:1031900041F40051C1606564202084F8410084F846
:1031A00042006563002070BD704790F84230202BCC
:1031B00001D00220704721B11AB10023036302F04D
:1031C00035BF012070477047704770472DE9F041C7
:1031D0000E46144605460C4F11E072B602213046E9
:1031E000FDF762FEFF2001F09DFB05F8010B0122B7
:1031F00010213846FFF740F962B6761CB6B2641E5D
:10320000A4B2EAD2BDE8F0810000024070B50B46DE
:1032100005461446002602211846FDF745FE06E045
:1032200004B9FF26304601F07DFB05F8010B641E52
:10323000A4B2F5D2BDE87040012210210148FFF789
:103240001BB9000000000240F8B50E4614460546C2
:103250000C4F12E072B604213046FDF725FE2878A7
:1032600001F060FB8DF800000122102138466D1C32
:10327000FFF702F962B6761CB6B2641EA4B2E9D2B8
:10328000F8BD00000000024038B50B460446154664
:1032900004211846FDF708FE05E0207801F042FB06
:1032A000ADF80000641C6D1EADB2F6D2BDE838402A
:1032B000012210210148FFF7DFB8000000000240A2
:1032C00008B5012200216846FFF780FF0148008809
:1032D00008BD0000201D002008B50122002168461D
:1032E000FFF794FF0148008808BD0000201D002062
:1032F0002DE9F84300F068FB012210211A48FFF77E
:10330000BBF80024264693274FF401754FF47A78D2
:103310000422294668460097FFF796FF04222946B3
:1033200068460096FFF752FF641C444502DD012009
:10333000BDE8F88300989328EAD10422294668461C
:103340000096FFF781FF082002F0FDFE062002F044
:10335000FAFE072002F0F7FE00F05AFB0348FFF7E1
:1033600005FD62B60020E3E700000240A41D002036
:103370000D4810B50078002815D10C4C206970B1AB
:10338000FEF78AFD0A4A2061516809B1814200D9DD
:103390005060084A516809B1814200D9506000204C
:1033A000FEF77AFD206110BD5104002028040020A2
:1033B0005C270020A0270020FEE700002DE9FC414B
:1033C0002F4C02226846A189FFF700FFE079012710
:1033D0000026012817D10A20FCF76AFF050012D049
:1033E0002E606E602E8104202880A888002120F4A1
:1033F0007060A880EF8007202881284600F020F91F
:103400002846FCF784FFBDF80000801D81B2ADF8AE
:1034100000106078A279104302D02770BDE8FC81CB
:1034200026706089814201D9ADF80000FCF740FFA9
:1034300020610028F1D0BDF80020A189FFF7C6FE69
:10344000ADF80460022240F6040101A8FFF7BEFEB9
:10345000BDF80400ADF80400BDF8040000050AD56D
:1034600008480680A089618902220844801E81B232
:103470000448FFF7ABFE206900F01EF9CEE700001C
:1034800094040020860400202DE9F84306462548D0
:10349000007800F00F00012807D0234CA07820B15D
:1034A000607820B10720BDE8F883F020FBE735887D
:1034B000E189A81D804682B23046FFF7C5FE00278D
:1034C000ADF80070022240F60C016846FFF77EFE60
:1034D000BDF80000ADF80000BDF80000000519D4EB
:1034E00020891249401B801F80B20F80022808D219
:1034F0004FEA5801C0F1020206EB41010B48FCF70C
:10350000EFFFE089218902220844801E81B207482A
:10351000FFF79AFE606900B1276101206661607063
:103520000020C0E75B0400209404002086040020F3
:10353000F8B5194D2420002468818020288140019D
:10354000A881E88115480A2140F60E0604804480CF
:103550008180343802220480448081802C61AC61F7
:103560006C61EC61EC70ADF8004031466846FFF7E5
:103570002DFEBDF80000022220F40070ADF800001E
:1035800031466846FFF760FEAC706C702C70AC7111
:103590002C716C71F8BD00009404002028270020D5
:1035A00070B5154C00256570A06920B1E16911B9AD
:1035B000FCF7ADFEA5616069A061E06918B1FFF795
:1035C00063FFE56105E00D48FEF744FC08B1FFF735
:1035D0005BFFA07900280DD081070BD520F00200F9
:1035E000A0712069FDF72EFD002803D0A07940F0DE
:1035F0000200A07170BD000094040020F426002099
:1036000070B50E4CA5698DB16078002650B1E069A7
:1036100040B90120FEF7D3F86069E0610120FEF7B0
:10362000F3FA66702846FFF72FFFA661E07810B125
:103630000020E07070BD0120FBE700009404002032
:103640002DE9F0410646194800270D46007800F0A4
:103650000F00012808D0B088154C20F47040B080CD
:103660006179490703D004E0F020BDE8F081012131
:103670006171617940EA0130B0803046FFF704FFA4
:1036800040B10C49304601F000F9070002D045F086
:10369000800502E06079401C6071280604D5A1799C
:1036A00005F07F000843A0713846DEE75B04002088
:1036B00094040020F426002070B5044681882288F6
:1036C000080B04250126802A06D9258021F4706084
:1036D000A080E680082011E00F4910B10A799042DD
:1036E00013D008710D49204601F0CFF8002811D001
:1036F0002580A18821F47061A180E6802081204688
:10370000BDE870400021FFF79BBF2046BDE8704038
:10371000FCF7FDBD70BD00009404002028270020A8
:1037200070B5042501260F48FEF794FB04000FD066
:1037300000F0A2F90028F6D02580A18821F470615C
:10374000A180E680208100212046FFF779FFEAE78B
:1037500005480078002803D0BDE87040FFF72EBE72
:1037600070BD0000282700209404002070B50025BB
:103770002846FEF783FB184C418861810088A081B0
:103780000120FEF77BFB418821810088E081A2892E
:1037900063891344834204D90844904201D9162016
:1037A00070BD0020FEF730FA0120FEF72DFA608987
:1037B000FCF77EFD0026206108B1E67107E00120DC
:1037C000E0710A20FCF774FD206100B90225FCF7C6
:1037D0009EFD2846266170BD94040020F8B5274C54
:1037E00000252846A570FDF7EAFF0120FDF7E7FF59
:1037F000A06908B1FCF78BFDE06920B1A16988429E
:1038000001D0FCF784FD606938B1A169884204D019
:10381000E169884201D0FCF77AFD01F08DFB25615A
:10382000A5616561E561E57040F60E06ADF80050F2
:10383000022231466846FFF7C9FCBDF800000222AB
:1038400020F40070ADF8000031466846FFF7FCFC3C
:1038500065702570A571257165710948FEF7FAFA42
:1038600010B1FCF754FDF8E705483438FEF7F2FADA
:10387000002802D0FCF74BFDF6E7F8BD94040020C9
:10388000282700202DE9F04F87B014216846FCF767
:103890009EFE48484FF0000B016841F08001016036
:1038A000016801F080010591016841F001010160AA
:1038B000016801F001010591016841F0100101600A
:1038C000016801F010010591016841F008010160F3
:1038D000016801F008010591016841F004010160EF
:1038E000006800F00400059032481430016841F08F
:1038F000200101600068DFF8C08000F02000059022
:10390000002210214046FEF7B7FDDFF8B0904FF6D9
:103910008076002231464846FEF7AEFDDFF8A0A0D3
:103920004CF20377002239465046FEF7A5FD0520EC
:1039300000904FF404100124CDE90104694640468B
:10394000FEF7A2FC1020CDE900040225694640469E
:10395000CDE90245FEF798FCCDE90064694648468A
:10396000CDE90245FEF790FCCDE90074694650466A
:10397000CDE90245FEF788FCC0208DE8210808202B
:10398000CDE9035069460F48FEF77EFC0022114640
:103990000620FEF7E7FD0620FEF7D6FD01220021F6
:1039A0000820FEF7DFFD0820FEF7CEFD07B0BDE8DA
:1039B000F08F00003038024000000240001002404A
:1039C000000C024000080240104810B50E4901608A
:1039D0004FF482714160002102228160C0E903122C
:1039E000012242615202C0E9062101624162816204
:1039F0000A21C162FFF78AF8002803D0BDE8104011
:103A0000FEF719B910BD0000003001404C1D002028
:103A100010B586B0002417480094019402940394D2
:103A200004941349059401605421C0E9011440F243
:103A3000CF71C0E903148461FFF756F908B1FEF7AE
:103A4000FAF84FF48050009069460A48FFF7CAF927
:103A500008B1FEF7F0F8049404A906480594FFF7AE
:103A6000FBF8002801D0FEF7E6F806B010BD000014
:103A700000040040A41D00208188C1F30321032914
:103A800001D002207047FDF7FFBB00002DE9FC418B
:103A90001C4C4FF000084546C4F80C80FDF7FAFEB8
:103AA000FDF768FB01202070657125616561A561E6
:103AB0000195009500264FF411654FF47A770422A2
:103AC000294601A8FFF7A2FB042229466846FFF712
:103AD0009DFBDDE90001814201D8401A01E0C943A4
:103AE00008440090A06948B10099884200D9A161BA
:103AF000761CBE42E3D34046BDE8FC810098A0613D
:103B0000F6E700002804002070B5284D287800282A
:103B10004AD02748274C007808B1217841BB264974
:103B2000097829BB012680B9FFF7CAFB410506D5F4
:103B300022482670007840B100F06CFE05E0204974
:103B4000098811B9000500D526704FF0E0264FF422
:103B50008074C6F88041BFF34F8FBFF36F8FFDF7BE
:103B600047FE1848007808B100F022FEC6F8004170
:103B700000F0A2FDB0F57A7F03D3FDF751FE00F00F
:103B800093FD11480068B0F57A6F01D3FDF790FB03
:103B9000FDF7CAFEFDF784FAFDF7D2FBE8680028BE
:103BA00002D0BDE87040004770BD0000280400202E
:103BB000540400204F040020510400204D04002034
:103BC0007A0400204E04002020000020FEE7FEE7DB
:103BD0006422B1FBF2F310B5047823440370B1FB07
:103BE000F2F302FB13110A22B1FBF2F344782344EF
:103BF0004370B1FBF2F302FB13113031817010BD41
:103C00002DE9FF41908954691F460E00C0F303203F
:103C100004D0072802D0092808D023E02046FCF76A
:103C200040FC85B27FB32A46214629E001250BE0FE
:103C3000B54207D12046FCF734FC85B28FB1002D88
:103C4000F1D10FE06D1CADB22046FCF72AFC044414
:103C5000641CB54206D82078FF2803D0FE28E7D19F
:103C600000E085B90C2577B10D2209496846FCF7BB
:103C700037FC31460DF10900FFF7AAFF0D22694616
:103C80003846FCF72DFC04B02846BDE8F081000062
:103C9000D91C002082890069C2F30322082A04D0BB
:103CA00001EB410100EB410070470029FCD0801D71
:103CB0007047F0B58A8905004FF00000C2F3032673
:103CC00000D01020072E03D001224FF4187734E0E3
:103CD0000020F0BD082E14D00B6902EB420403EB68
:103CE000440423881F2B2BD00EDCA3F1030CBCF162
:103CF000090F1BD2DFE80CF024341A2434341A1ACA
:103D000024000C69A41DECE7BB4219D006DC202B73
:103D100026D02E2B14D02F2B08D121E0A3F5007C28
:103D2000BCF1620C1CD0BCF1010F19D0AA4202D226
:103D30006388184480B2521C92B2AA42CAD9F0BD1C
:103D40000F304FF6F07C00EA0C00AA42F3D20B2BA6
:103D500001D0BB4202D16388184480B21030E9E739
:103D60001F304FF6E07C00EA0C00AA42E3D2A3F534
:103D7000007CBCF1620CDBD0BCF1010CD8D020304F
:103D8000D8E72DE9F0418046202101FA08F18EB2F2
:103D9000FDF776F9034600251BE01889B0F5805F32
:103DA00016D3B8F1000F11D01F7B00240BE0E1B255
:103DB0001846FFF76FFF8088304207D1641CA4B219
:103DC000B8F1000F02D0BC42F1D901E06D1CADB2D8
:103DD0005B68002BE1D12846BDE8F0810A307047CE
:103DE00010B50446FDF74CF903E00189A14202D069
:103DF00040680028F9D110BDF0B59489C4F30320C0
:103E0000E5B200240226F3B1072823D0082801D008
:103E1000012010E090690378106900895843C01DA3
:103E2000C0080CE000EB4007136906EB4707401C95
:103E3000DB5BC0B21C44A842F4D9E41DE0080029B1
:103E400000D1801CF0BD072806D041B1082808D059
:103E50008D4209D20020F0BD106940880AE001209F
:103E6000F0BD1069008905E0106901EB410106EB26
:103E70004101405AC01DC008F0BD00002DE9FF5FA0
:103E80008246202000FA0AF01FFA80F808884FF4D2
:103E9000805BDFF880900E9D14460E46584507D192
:103EA000FDF7EEF8030028D15DB31B20287028E051
:103EB000D9F8003020E058451DD3BAF1000F12D0D8
:103EC0001F7B00250CE029461846FFF7E3FE80889B
:103ED00010EA080F07D16D1CEDB2BAF1000F02D045
:103EE000BD42F0D907E00398198901800398801C2E
:103EF000A41EA4B203905B681BB11889012CDAD808
:103F000001E04FF6FF703080C9F8003004B0204661
:103F1000BDE8F09F1C1D00202DE9FF4F0D460F4608
:103F2000998983B0C1F303209946109C904601F013
:103F3000FF0AAB464FF480530290072806D003983F
:103F4000984203D3D9F8180090F800A0119838B11E
:103F50000298072867D00398984264D3D34613E0A9
:103F6000574503D9112007B0BDE8F08F59464846A0
:103F7000FFF790FE80880028ECD0BB4900F00702D4
:103F8000097811EA420F0AD0D9F81C606EB1119875
:103F900000902346424639460398B047E3E740077E
:103FA00001D01A20DFE70620DDE70398B0F5805F37
:103FB0003AD2BFB348463946D9F81830FFF76AFEFF
:103FC0004088C01DC20803EB870050F8041CC807D6
:103FD0001DD0002321F001000BE000BF30F8021BD0
:103FE000090A218005785B1C41EA052124F8021B9F
:103FF0009BB2B3EB520FF1D3D10707D0218801F464
:104000007F412180008841EA1020208026E131F89C
:10401000020B208031F8020B6080201D121FFCF77C
:104020005FFA1BE100E0DFE04FF00008CDF804800C
:104030000EE1D9F81860002345B10398B0F5805F10
:1040400004D3E8B24946FFF734FE0346180906EBED
:1040500040000090E9B24846FFF71CFE0646007992
:1040600000F007018048007810EA410F7DD0BD4282
:1040700004D01198002807D0BD4205D32DB902986D
:10408000072802D024F802ABE0E03088B0F5E06FFA
:104090000DD37188082902D82F3188B207E0102982
:1040A00002D0202902D002E0062000E007201F28CD
:1040B00075D012DC71D2DFE800F03A4848727748D8
:1040C000727777959595ABABABABAB82ABABAB8275
:1040D000ABABABABAB82ABAB4800342835D012DC1A
:1040E000302832D008DC20285ED02D282DD02E2874
:1040F00055D02F2851D157E0312826D0322824D04E
:1041000033284AD121E0B0F5187F6BD006DC352882
:104110001BD0362819D037287AD116E0A0F50070C8
:1041200061385FD001285DD0022871D15AE0119822
:1041300098B37088010703D0C118090700D1A41CE7
:10414000C0F3031004EB40045FE07088474903F0BC
:104150000F0231F81000904081B20098B0F8008052
:10416000180700D12080208800E053E0DDF844C02B
:1041700008EA0108BCF1000F03D040EA08002080E3
:1041800005E028FA02F848EA0008A4F80080B078B0
:104190001844000739D1A41C37E039E0FFE71807BD
:1041A00022D10098008807E018071DD100980088E8
:1041B00024F8020B0098408824F8020B25E0180729
:1041C00012D10098008824F8020B0098408824F847
:1041D000020B0098808824F8040B0098C08824F80B
:1041E000020C12E0180701D00520BCE67088009987
:1041F000C01DC2082046FCF773F97088010904EB62
:104200004104000701D0207820804FF001081DE014
:104210001820A8E60020190700D1218071880A071C
:1042200004D01944090701D124F8021F002103E03A
:10423000401C24F8021FC0B2B278C2F303128242BB
:10424000F6D8307940070BD01A2001906D1CADB222
:104250005D457FF6EEAEB8F1000F03D0002082E698
:104260000620F2E701987EE65B04002022B30008F6
:104270002DE9FF4F0C460F4699898FB00646C1F3D2
:10428000032AC9B206910020A6F5B0519846DDF880
:10429000709025460A90A6F5D053A1F5C26B029105
:1042A000BAF1070F14D0D8F81800007810F0FF000A
:1042B0000ED1BBF11F0F0AD9029A4FF400718A4246
:1042C00005D38B4203D3A6F57041303900D106984F
:1042D0001D9959B1BAF1070F7ED00FB1054618E00C
:1042E000119909B199F80000054628E0874203D9E1
:1042F000112013B0BDE8F08F39464046FFF7CAFCE5
:10430000E4498088097801EA900111F00E0F23D06A
:10431000AFB1BBF11F0F0AD902984FF40071884268
:1043200005D38B4203D3A6F57040303807D1D8F8B7
:104330001800007810F0FF0F01D001200A90D8F883
:1043400020C0BCF1000F10D01D9800904B4639469C
:104350003046119AE047CCE710F0380F01D01A2010
:10436000C7E70028B8D00720C3E700200290072045
:104370000C9011980028BCD083E100BFD8F8180039
:104380000090E1B24046FFF785FC0590E0B241465F
:10439000FFF78FFC864605980179BE48007800EA51
:1043A000910010F00E0F72D02CB100984FEA1E1140
:1043B00000EB41000090BC4204D01D98002867D05B
:1043C000BC4265D37CB9BAF1070F0CD0B9F8000034
:1043D000069AC1B28A4200E00FE101D2132088E7B9
:1043E00000990880E8E005980088B0F5E06F0ED3EA
:1043F00005994988082902D82F3188B207E0102989
:1044000002D0202902D002E0062000E007201F2869
:104410007ED012DC77D2DFE800F03C4C4C7BD24CF3
:104420007BD2D23939397676767676F2767676F22E
:104430007676767676F276764C00342839D012DCB1
:10444000302836D008DC202805D02D2831D02E2861
:104450005ED02F2857D1B2E031282AD0322828D078
:10446000332850D125E0B0F5187F0FD006DC352871
:104470001FD036281DD0372845D11AE0A0F500708E
:10448000613803D0012801D002283CD1CDE0E1E021
:10449000F5E01D98002836D005984088010705D022
:1044A00000EB0E01090701D109F10209C0F3031164
:1044B000CBE005980EF00F03DDF874C04188764814
:1044C00030F8111001FA03F082B20098008890438E
:1044D000BCF1000F04D0B9F800101140014308E00E
:1044E000B9F8002032EA010C30D10A409A40024368
:1044F00091B2009801800598817801EB0E000007C9
:104500005AD002E004E0A3E0814601200290B6E028
:104510005FEA0E7071D1B9F8000001900A9820B1DD
:1045200000980188019881425AD1BBF11F0F0FD822
:1045300001984FF40071A0F5B050884208D301985B
:10454000A0F5D050884203D3019808B11220D0E6DC
:10455000A6F5E050323801D0401E2AD1012C02D0FD
:10456000082C10D025E0009801880198814206D0DF
:1045700001463046FCF7C2FF0C900028E7D14749BE
:104580000120087015E0464A0020464BC2E904307D
:1045900002F144015060C1E904304860019B9B076F
:1045A00007D55085108582F840004885088581F838
:1045B0004000DDE90001018009F10200A4E75FEAA3
:1045C0000E7035D10A9868B100980188B9F80000DA
:1045D000814205D100984188B9F80200814201D09A
:1045E0001C2086E60098B9F8001001800098B9F800
:1045F0000210418009F1040086E719E0FFE75FEA55
:104600000E7015D10098B9F8001001800098B9F823
:10461000021041800098B9F8041081800098B9F820
:104620000610C18009F108006EE75FEA0E7001D044
:1046300005205EE6059849464088C01DC2080098DE
:10464000FBF74EFF05984088010909EB41005BE745
:1046500018204EE644B105984088010709D000EBC8
:104660000E01090703D004E009F1020004E009F19A
:104670000209010909EB4100814618200C90641CD5
:10468000A4B2AC427FF67AAE029808B1002030E6C0
:104690000C982EE65B04002022B30008D81C0020F2
:1046A0005C27002020A10700024900200968486219
:1046B00070470000A41D002002480068406A80B2D4
:1046C00070470000A41D00202DE9F0412C4800781F
:1046D000002851D0FEF700FE2A4D2B4F2B4C2C4EBC
:1046E000400524D52B48007828B12B48007810B11C
:1046F0002A4900200880208D08B1401E20852849C5
:104700003085012008702748007810B100F082F849
:104710000DE0022229882448FEF778FD2888398890
:1047200002220844801E81B21F48FEF76FFD608898
:10473000012801D1FDF75CF81C48007830B1708881
:10474000012801D0222801D100F032F8FEF7C4FD83
:10475000400511D5608D0222401C60857085298836
:104760001148FEF753FD2888398802220844801E2C
:1047700081B20D48FEF74AFDBDE8F041FCF7BEBD31
:1047800054040020800400207A0400205C270020CC
:10479000A0270020520400205104002060040020C3
:1047A0004F0400204D040020860400204E04002009
:1047B00070B50025FEF790FD114E124C307FC007FA
:1047C00002D1207FC00703D00020FDF765FB05461E
:1047D0000D48FCF741FB0D4802880D4801880A4846
:1047E000FEF752FD307FC00702D1207FC00706D000
:1047F0002846FDF751FB6169814200D2606170BDBE
:104800005C270020A0270020F4220020780400204C
:104810008204002070B5164C0025164E207FC0077C
:1048200002D1307FC0070BD00020FDF735FB1249C5
:1048300005464861012048710020C861FEF798FDD7
:104840000E4802880E4801880E48FEF7DFFC0D482E
:10485000FCF704FB207FC00702D1307FC00706D0E1
:104860002846FDF719FB6169814200D2606170BD85
:104870005C270020A0270020280400207A040020C4
:1048800080040020F41E0020704710B54B888C88EF
:104890005A1C92B2944200D100220C88944201D159
:1048A000072010BD01EB830398604A80002010BDF3
:1048B00070B51D461446049AA0F58053F83B01D00C
:1048C0000B2070BD0AB1052070BD09B1112070BD6B
:1048D000082C01D90F2070BDFCF7EAFC22460349E1
:1048E0002846FBF7FDFD002070BD000028000020D9
:1048F00038B504464FF40175022229466846FEF792
:1049000065FCBDF800002040ADF80000082001F073
:10491000FCFB022229466846FEF796FC082001F0BF
:1049200005FC38BD0E4910B50A68520603D40A6862
:1049300042F040020A600B4B1A4601E0521E0CD0B6
:104940008C68A407FAD5C86001E05B1E05D08868B2
:10495000C007FAD0C868C0B210BD002010BD00006A
:1049600000300140A08601002DE9F04F87B00446D9
:10497000018900880090B148002601F0FF09007805
:1049800009F0E00BB046B246354618B1092007B031
:10499000BDE8F08F5FEA0B0006D0202805D0402844
:1049A00003D0BBF1600F7CD12AE160894FF6FF7222
:1049B00002EA002202EB112189B2000ACDE90201CC
:1049C0000846FFF70DFA049000286BD004980027E2
:1049D0000197007B0299814201D9112622E1DDE98C
:1049E000030209F01003FFF707FA824604F10C00F6
:1049F000011D55460591BBF1400F05D009F002019C
:104A0000BBF1200F19D03DE000990A2933D1294686
:104A1000BAF1040F07D8BAF1000F04D000210180C9
:104A2000074641802EE086480588103D8D4202D21F
:104A30000120019026E0059F24E041B100990A2958
:104A400019D1C9F38101C1F1040507461AE0A08913
:104A5000E18900EB01457B4805F1100100888142A6
:104A600004D90099801F814205D106E0009805F124
:104A70000A01884201D0082089E70098059F0A387A
:104A80008542D5D85FEAC96004D502984FF0010885
:104A9000012834D8019870B3684F012078713872BA
:104AA00001E0BEE0AAE087F8068003983882029809
:104AB000F87104983863BBF1400F19D0FD62386A71
:104AC00018B1FBF724FC00203862F86A401C20F083
:104AD0000100FBF7EDFB386270B1BBF1400F12D063
:104AE000009A05990A3A1546FBF7FAFC00201DE0EA
:104AF000C7F82CA0E3E738E0B8F1000F01D0052695
:104B000090E004268EE0CDE90008DDE9021052466F
:104B1000049BFFF701FA060002D0FF2E09D006E041
:104B20002A46396A0598FBF7DBFC60203871BD62C4
:104B300078E00420787087F802800298F870039873
:104B40007881C7F814A0386AB861049809F0F001B8
:104B5000C069F861012038707C62208920F0FF0074
:104B6000084320816020387165E0BAF1000F06D15A
:104B70003248039901820299C17104990163CDE918
:104B80000078049BBBF1400F08D0DDE902102A46F3
:104B9000FFF76EFB0646FF2818D043E0DDE9021060
:104BA0005246FFF7B9F90646FF283BD123480321B7
:104BB000417080F802800299C17003994181C0E977
:104BC00005A70499C969C16101210DE01B480121B4
:104BD000417080F80280029AC270039A4281C0E953
:104BE0000557049A126AC26101704462208909F073
:104BF000F00120F0FF00084320811CE0082611E0AE
:104C00000E4909798B450CD1BBF1000F204605D028
:104C100000F00EFB0646FF2804D10CE000F0B8F9C6
:104C2000F8E70326CDE900A4ABB209F0100259461B
:104C3000304600F09FFA0020A9E60000E81C0020A2
:104C40009C0400209E0400202DE9F04F89B000262E
:104C500004468DF81460007A8D4F00F07F05022025
:104C600006902088DFF82C924FF48058052D05D04F
:104C7000082806D2062009B0BDE8F08F0A28F9D32B
:104C80006AE0012D03D0032D66D00320D7E0A08970
:104C9000052860D8C5B20E2221467F48FBF720FCCC
:104CA000681E00F0FF0A0ED2A9F80C600025284605
:104CB000FFF767F804EB45016D1CEDB2C881052DC7
:104CC000F5D3122032E0B9F80C004D4648B13988CE
:104CD00004F10C030C398AB2E989ADF80410401EC6
:104CE00014E05046FFF74DF8ADF80480398804F120
:104CF0000E030E398AB2B2EB400F09D2911C89B271
:104D0000C2EB40000844401E90FBF1F0A88100E097
:104D1000AE8105A8009001A95046FFF7AFF8BDF895
:104D20000410E9813988081A801F80B220809DF81C
:104D30001400002874D1208920F07F0040F0020088
:104D40002081B9F80C106181002904D040F0800066
:104D500020818220069085E0A089ADF804004045BE
:104D600001D205206BE0FFF73BF85FEA000A7CD038
:104D7000032D1ED094F80E805046FFF72FF8807850
:104D8000414680455AD85046FEF784FF01682161AC
:104D90008088A082A07BE0815046FFF71FF8408802
:104DA00004F1160BC0F30320082820D009281ED0D8
:104DB00020E0FFF713F80068C4F80E000023524605
:104DC0001946BDF80400FEF71BFF39880C3080B28D
:104DD000891F884201DD0C202CE004F112035246A9
:104DE0000021BDF80400FEF70BFF0C3021E0B8F104
:104DF000000F0ED0002352464146BDF80400FEF7D6
:104E0000FFFE3988103080B2891F884209DD1020EA
:104E100010E00D2221495846FBF762FB1C2009E0F7
:104E20000FE05B4652464146BDF80400FEF7E8FE3F
:104E3000103080B29DF81410F9B102E011208DF805
:104E400014000A202080208920F07F0040F0070015
:104E50002081668112489DF8141050F82100E0600E
:104E6000A9F80C602046069900E00FE0FEF7E8FB89
:104E700008B10C4804600020FDE66681208020898E
:104E80006D1C20F07F0028432081EBE70820D6E747
:104E90009C040020E81C0020E4270020D91C0020EE
:104EA00044B30008480400202DE9FC47204C81460B
:104EB0000026207813460D46002837D0D4F824C0A9
:104EC0009CF8080000F0E00800F01007B8F1400F6F
:104ED00021D118480088103886B22046406A103028
:104EE000AE420DD2012161712172A7716021E5628C
:104EF0002171324619462362FBF7F2FAA6620AE0F4
:104F0000691E032901D80CF10C00834203D02A4604
:104F10001946FBF7E5FA00202070606A3346CDE9B8
:104F200000503A464146484600F024F9BDE8FC8767
:104F3000E81C00209C04002070B5114D0024287846
:104F400001280CD1686A50B10E490968884206D020
:104F50000D490968884202D0FBF7D9F96C626C7080
:104F6000AC706C81EC706C61AC61EC612C70286A87
:104F700010B1FBF7CCF92C62AC622C7170BD000053
:104F8000E81C0020AC040020B004002070470000A2
:104F90002DE9FC47DFF8D49106460389002799F8EC
:104FA000080003F010013D46814201D10127B3E022
:104FB0006F48008889F808100938D9F8201082B2A3
:104FC000484600297CD0D0E90A4CA046ACEB04044A
:104FD0005FEAC37C4FF0010A11D0944213D83288A3
:104FE000D21E944205D8C3F3420CCCF1070CA44561
:104FF00003D0072C07D9944205D1457106E080F80B
:1050000005A0944201D80E2786E0144657485FEA6F
:10501000C872806A20F0010018D00A5C0A52B6F803
:1050200008C0D9F828000CF47F4C20F0010042EAB7
:105030000C020A52D9F82800621E20F00100084430
:1050400006F10A01801CFBF74BFA1BE0B27A1B0A3F
:1050500043EA02230B520120621CD9F828C00EE05B
:1050600006EB4003B3F808809B7A4FEA182848EA19
:10507000032300EB5C08401C21F8183080B2B0EB31
:10508000520FEDD399F80500C846E8BB98F8062002
:10509000D8F82010CDE900124046D0E90B2398F84B
:1050A0000710B8F81000FFF7E3F80746FF2808D00C
:1050B000D8F82000FBF72BF9C8F8205027B32BE0D5
:1050C00029E0022088F8010098F8060088F802001C
:1050D00098F8070088F80300B8F81000A8F80A004C
:1050E000D8F82C00C8F81400D8F82000C8F8180028
:1050F000D8F830004246006AC8F81C0088F800A0C2
:10510000C8F82460557100E014E01571FF20C8F85C
:105110002850BDE8FC87032789F8055089F804501A
:10512000D9F820004C4610B1FBF7F1F82562A562D2
:105130003846EEE70A203080F08820F4704040F4D2
:105140004050F08098F80810404609B1302100E046
:10515000202131814179012903D0856288F80450EA
:10516000E6E7816A2144C8F82810E1E7E81C00203E
:105170009E0400202DE9F0410746DDE90604602980
:1051800004D019B1258905F47F452581E5880A26D3
:1051900025F47045AFB1268045F40050E0802089A9
:1051A00040F080002081204850F82700E060022174
:1051B0002046FEF745FA002801D01C480460BDE8EF
:1051C000F08145F44055E580402908D031B360298D
:1051D000EDD02680208940F060002081E7E7411E65
:1051E00003290BD826802189C0B21143C0F10400E5
:1051F000432242EA800001432181D8E7834202D260
:105200000A33238002E000F10A012180A081000C12
:10521000E081208942F041010843DEE726802089B1
:1052200040F02000D9E7000044B300084804002003
:105230002DE9F0470446007A002700F010014048AD
:10524000027A914201D1012771E03E4A002612887C
:105250000172093A95B2826AC16A53198B4202D926
:105260008D1A467101E0012141713549237A23816C
:105270008146086A896A5FEAC27821F0010C0ED083
:1052800030F80C106A1E01F47F410B430CEB000157
:10529000238104F10A00891CFBF722F91AE010F8B7
:1052A0000CC0002143EA0C23520823810FE08B1825
:1052B00030F813C000EB43034FEA1C2C9B784CEAF8
:1052C000032304EB410C491CACF80A3089B2B1EB62
:1052D000550FECD3E088C84620F4704040F44050AD
:1052E000E080208920F0FF00208199F8051099F8CE
:1052F000082009B942F0010210432081072D08D28D
:105300000A2020802089C5F1070240EA420020815E
:1053100001E0E81C208001290CD0D8F82000FAF721
:10532000F6FFC8F82060C8F8286088F8046038469E
:10533000BDE8F087D8F828002844C9F82800F6E727
:10534000E81C00209C040020F8B51E4D1C490026D6
:105350002960C5E901060C20EE60C5E90460AE6174
:105360002846EE61FDF7EEFE1748016841F4800122
:105370000160006805F1480400F4800000901348C3
:1053800020608005C4E901064FF48060C4E9036031
:1053900080106661C4E9066020462662FCF7F8FDCD
:1053A000EC63A5632068016821F01C01016004F131
:1053B00060012846BDE8F8404022FDF7F6BE000037
:1053C00000140140EC1D00203038024028640240E7
:1053D00038B504464FF40175022229466846FDF7A8
:1053E000F5FEBDF800002043ADF80000082000F0F5
:1053F0008CFE022229466846FDF726FF082000F0B1
:1054000095FE38BDF8B5194C0646ADF80010E07BA6
:105410000D46B04200D0E673A5F57F40FF3805D0B9
:1054200002224FF49A716846FDF70EFFE07BADF85B
:10543000000002224FF498716846FDF705FF0DB198
:10544000F00601D400200DE02D2D0AD01A2D08D031
:10545000322D06D0A07A012803D01B2D04D0402085
:1054600000E041206073F8BD4220FBE74C040020BF
:10547000F0B51E48006840681D4FC0F14006BC46AC
:10548000DFF870E078682BE018499CF80150603133
:10549000194B095C8CF800509CF802208CF8012014
:1054A0009CF803408CF802408CF803101D70401CDF
:1054B0005A709C7000F03F00D970FF2D10D1521E21
:1054C0002244D2B28A420BD1BCF801100B4A49BA2D
:1054D0001180DEF8A81239B15FF00001CEF8A812F1
:1054E000B042D1D17860F0BD0121F7E7341E002031
:1054F00000000020008041422C1D0020261D0020BD
:1055000070B5174C174D207820B101280BD0022818
:1055100022D119E0286840F001002860FCF7B2FFB2
:105520006060012017E0FCF7ADFF6168884213D08E
:10553000286820F0010028600A480C3800680948F3
:1055400008380068022006E0FCF79CFF6168401AFA
:10555000322801D300202070BDE87040FFF788BFDB
:10556000241D00200C1401402DE9F04F87B04FF0AE
:105570000009CDF80090EE48EE4AADF80890ADF87D
:105580000490CDF8149080899489DFF8AC830326C9
:105590000440A8F838904F46354688F8039002201A
:1055A000FCF76CFC0288A8F834200079800700D54D
:1055B00001250320FCF762FC0288A8F83620007958
:1055C0004146800700D50126DC48B1F82C80DFF881
:1055D00070B308FB06260088864204DDBBF8003065
:1055E000034493420AD8D74BDFF85CA31B889E4242
:1055F00008DDBAF800601E44964203D91E2007B0A9
:10560000BDE8F08F8E8EB1F82EC00CFB056585428B
:1056100004DDBBF800C06044B0420DD89D4204DDFB
:10562000BAF800001844B04206D88A46954205DD13
:1056300002EB0800B04201D91D20E0E702224FF43E
:10564000186103A8FDF7C2FD04224FF41A616846F1
:10565000FDF7BCFD042240F6A41105A8FDF7B6FD38
:10566000B34BB44DBDF80C2058886988DDF814C0E0
:1056700012F4106F29D012F4C06F41D0960501D4F6
:1056800056053DD43CB1660701D4960538D42607AB
:1056900001D4560534D4D3F81080009E3EB146455F
:1056A00003D3DFF8A882464501D93620A7E75FEA91
:1056B00082580AD55FEA425807D5BCF1000F04D0E2
:1056C000B44502D30127E4061AD5A14C2478CCB105
:1056D00012F4106F0CD0540503D4032810D0032902
:1056E0000ED0920531D402280AD0022908D02CE02D
:1056F000022805D0032803D0022901D003292DD187
:1057000030207CE7BAF82E0012F4106F03D0A0B15D
:1057100097B1032011E028B1BAF82C100120E9B1AB
:1057200022211BE0BAF82C0000284FF0000001D025
:10573000012113E0002111E00220BAF82C1021B160
:10574000510501D5032100E00221032801D00228E0
:1057500004D1009A5A625A606A626A609AF8092013
:1057600054460AB948B141B150EA01024FF4806B86
:105770004FF0010603D0267203E029203FE7227A8A
:105780004AB1E28D12B1A4F838B004E0A28D12B192
:105790004FF400622287022805D0032803D0022993
:1057A00001D0032904D16671E28D0AB9A4F83890BA
:1057B00058806980A4F82490A4F82690A4F8169044
:1057C0009A46C846A4F81490EFB100980CEB00017B
:1057D00084450BD3B1FBF0F2B1FBF0F392B200FBC6
:1057E0001313E2821BB9521CE28200E0E682B1FB95
:1057F000F0F2B1FBF0F392B200FB1310A28440B1BF
:10580000521CA28405E0022800D1E682032900D0C0
:10581000A684504802224FF48461A0F8008001A8B9
:10582000FDF7D4FCBDF80400E18D09B300B30222FA
:10583000594602A8FDF7CAFCBDF8080080B1BDF8C2
:105840000410801C484346F2A7110844491CB0FBD1
:10585000F1F00004000C608606D0207930B10AE037
:10586000ADF80480A4F83280207920B11F20C6E66C
:10587000ADF80880F6E7207A28B1E08D18B1208FC6
:1058800040F480602087A4F81E80A4F81C80A4F84F
:105890002080A4F8228084F8068084F80780A4F889
:1058A0001880A5F82880A5F82A8085F84080AAF8F5
:1058B0002880AAF82A808AF84080BDF80C2090053C
:1058C00027D5254D00980A2360B1B0FBF5F10529D5
:1058D00001D2E68306E04FF6FF7707EA4101B1FB0C
:1058E000F3F1E183510514D50599814201D2E08B92
:1058F0000EE00844B0FBF5F0052801D2668403E011
:105900004000B0FBF3F06084608CE18B00EB510051
:105910006084E08D10B10220FCF776F9A08D10B103
:105920000320FCF771F9FEF743FF002067E6000053
:105930005C270020A02700204C040020A2040020A7
:105940009C040020A00400209E040020000050C3FE
:10595000D81C0020E61C0020A08601000A4AFF2077
:10596000917A09B1108D70475379002113B1C82382
:1059700013835183054A118582F84010044A11852A
:1059800082F84010704700004C0400205C27002083
:10599000A027002010B5164CE08D10B10220FBF7B7
:1059A0000EFFA08D10B10320FBF709FF4FF2F3307B
:1059B000FEF79EFF0020E07020726071A071E07120
:1059C000E082A082E083A083208460840949A084CF
:1059D000E0840885488581F84000074908854885A6
:1059E00081F84000208305492071A070087010BD27
:1059F0004C0400205C270020A0270020D81C002099
:105A000002480021C1704170704700004C04002022
:105A10002DE9F05F3048002505803048007878B3E4
:105A2000DFF8BCA0DFF8BC809AF8000020B1B8F81D
:105A30000010491CA8F800102B490F8877B32B4C95
:105A40008B462B492B4A208809881688DFF8A890B6
:105A5000B84216D9294A138941B1DFF8A4C0BCF86D
:105A600028209A4202D8D21CACF828204EB1D1B9D5
:105A7000B9F82810994206D8C91CA9F8281002E0E4
:105A800026E081B97EB1FDF727FC000507D4208808
:105A9000BBF80010884208D8401C208005E0258013
:105AA000A9F8285001E0B842F6D9FBF7A1FE9AF810
:105AB000000068B1134E308850B1B8F80010444669
:105AC000884205D1FEF774FE3088012800D1258078
:105AD000BDE8F05FFBF712BC680400205104002011
